:020000040800F2
:10000000000005208DAF020835AB020843AB0208A3
:1000100049AB02084FAB020855AB020800000000D4
:100020000000000000000000000000005BAB0208C0
:1000300069AB02080000000077AB020885AB02083C
:10004000DDAF0208DDAF0208DDAF0208DDAF020858
:10005000DDAF0208DDAF0208DDAF0208DDAF020848
:10006000DDAF0208DDAF0208DDAF0208DDAF020838
:10007000DDAF0208DDAF0208DDAF0208DDAF020828
:10008000DDAF0208DDAF0208DDAF0208DDAF020818
:10009000DDAF0208DDAF0208DDAF0208DDAF020808
:1000A000DDAF0208DDAF0208DDAF0208DDAF0208F8
:1000B000DDAF0208DDAF0208DDAF0208DDAF0208E8
:1000C000DDAF0208DDAF0208DDAF0208DDAF0208D8
:1000D000DDAF020891AB0208A5AB0208DDAF020854
:1000E000DDAF0208DDAF0208DDAF0208DDAF0208B8
:1000F000DDAF0208DDAF0208DDAF0208DDAF0208A8
:10010000DDAF0208DDAF0208DDAF0208DDAF020897
:10011000DDAF0208DDAF0208DDAF0208DDAF020887
:10012000DDAF0208DDAF0208DDAF0208DDAF020877
:10013000DDAF0208DDAF0208DDAF0208DDAF020867
:10014000DDAF0208DDAF0208DDAF0208DDAF020857
:10015000DDAF0208DDAF0208DDAF0208DDAF020847
:10016000DDAF0208DDAF0208DDAF0208DDAF020837
:10017000DDAF0208DDAF0208DDAF020800000000BD
:10018000DDAF0208DDAF0208DDAF0208DDAF020817
:10019000DDAF0208DDAF0208DDAF0208DDAF020807
:1001A000DDAF0208DDAF0208000000000000000023
:1001B00010B5054C237833B9044B13B10448AFF3A1
:1001C00000800123237010BDD80A00200000000029
:1001D0006406060808B5034B1BB103490348AFF397
:1001E000008008BD00000000DC0A0020640606084C
:1001F000F0B44C1E05464E2C3FD8DFE804F03B3BE4
:100200003B3B3E3E3E3E28283B28282828282828DD
:1002100028282828283E29292929292929293B282D
:10022000282828283E28293C3B3E3B29293C3E3EA5
:100230002828283B3B3B3B3B283B3B283B3E3E287A
:1002400028283E3E3E2828283B293B292900A2B1E8
:10025000D5E90540844210DA2F692601B819013426
:100260004FF0000CC0F804C06C61B955C0E902231E
:10027000F0BC70470AB1002BEAD10020F0BC7047F7
:1002800010B4C3681C78522C0A460FD04F2C03D0F0
:1002900008465DF8044B7047016B03310163202170
:1002A0000133C3605DF8044B0023A1E7016B023109
:1002B00001631F21F4E700BF002A4ED070B5054648
:1002C0000E4614462378013B4E2B2CD8DFE803F072
:1002D000373737402B2B28283737373737373737DB
:1002E000373737373737372B3737373737373737AA
:1002F0003737303037372B373737372C37373737B3
:100300002B28373737373737373737373737372BA4
:100310002B372C2C2C2C2B373737373737373700E8
:10032000E468002CCED170BDA468002CCAD1FAE7D5
:10033000A2681378052B03D1336801333360A268B8
:1003400031462846FFF7B8FFE468002CBAD1EAE747
:100350002B6801332B60A268F2E770479AB32DE94E
:10036000F0418E180446D0F80031013E4D1E0027A2
:1003700016E0D4F80831D4F80C2184F8FF709847BF
:10038000D4F8243100220133C4F82431B5424FF0AF
:100390000103C4F8003104F8028084F8048110D00D
:1003A000FF2B1946204615F8018FE2D01A46B542B8
:1003B00003F10103C4F8003104F8028084F80481D9
:1003C000EED1BDE8F0817047A0F11C03042B07D9E2
:1003D0004C2805D04E3801288CBF002001207047E2
:1003E0000120704770B4026811786E2918D0A1F10D
:1003F0003003092B1ED800260023013203EB8303B0
:10040000026001EB43041178A1F13005092DA4F13C
:100410003003F2D90EB1C4F13003184670BC7047F6
:10042000531C03605178A1F13002092A02D81A4600
:100430000126E1E70023184670BC7047D0E9053279
:10044000934270B50EDA01691A018C180133002647
:10045000412566600C3083608D54FFF7C3FFA060B8
:10046000204670BD0024204670BD00BF10B5C36893
:100470001A785F2A04460DD06E2A0DD00C30FFF793
:10048000B1FF013008D4E3681A785F2A04D1013340
:10049000E36010BD0020FAE74FF0FF3010BD00BF51
:1004A000F8B5C3681A78542A19D10133C3600446D9
:1004B000FFF7DCFF051E12DBD4E90531A26A8B428F
:1004C00002F10102A2620ADA21691A0188180133D5
:1004D00000270526476063618E548560F8BD0020C3
:1004E000F8BD00BF2DE9F04104460C30FFF77AFF5C
:1004F000071E49DDE56863685B1B9F4242DCA2681A
:10050000EB195207E36004D5EA5D242A04BF0133E6
:10051000E360092FD4E9056810DCB04532DD2169BC
:1005200032018818013600234360666155B3436089
:100530008B54C0E90257E062BDE8F08108221449FB
:10054000284654F017FC0028E7D12B7A2E2B03D035
:100550005F2B01D0242BE0D16B7A4E2BDDD1236BA6
:100560001633DF1BB04527630CDD2269094D3301CB
:10057000D0180021013666614160D1541523C0E9CD
:100580000253D8E70020D6E70020BDE8F08100BF85
:10059000F8590608045A060870B5C368C66A1A787E
:1005A000422A04460D460FD10133E3602046FFF78F
:1005B00099FF2A4603464B212046FFF719FEE368C0
:1005C0001A78422A0546EFD0E662284670BD00BF81
:1005D0002DE9F8430546C0680378532B31D1431CFD
:1005E000EB604278A2B3831CEB6042785F2A00F094
:1005F0008980A2F13004E3B2092B25D800210EE056
:10060000303B99421DD8E9680A78481C22B1E8605D
:100610000A785F2A00F08280A2F130041946E4B221
:1006200001EBC103092CA2F1410002EB8303E7D9DE
:10063000192806D801EBC10302EB8303373B99422B
:10064000E1D90020BDE8F883A2F14103192BD5D9E7
:10065000AB6803F00803002B14BF0124002401D170
:1006600000295DD1354B7421914203F1C40005D0BE
:100670001C338342E5D219789142F9D15869D5E902
:100680000521A8B18A4257DAD5F810C0D3F818E08E
:1006900017010CEB070601324FF000094FF0180864
:1006A000C6F804906A610CF80780C6E9020EEE6293
:1006B000002C3CD1D3E901642B6B914223442B6382
:1006C00038DD29691301C81801324FF0000C1827D2
:1006D000C0F804C06A61CF54C0E90264EB681B78BB
:1006E000422BAFD101462846FFF756FF0028A8D07D
:1006F000D5E908329342A5DAE9695A1C41F823008A
:100700002A629FE700232A6A9A429AD9AA6AE9696B
:100710000132AA6251F82300BDE8F8830133F2E701
:10072000EB681B78433B012B98BF0C469AE7D3E953
:100730000364C1E70020D1E70026B8E7E80D06080A
:10074000C3681A785F2A01D00120704710B55A1C7F
:10075000044640F80C2F5A785F2A04D0FFF742FE77
:10076000C043C00F10BD0233E360FFF73BFE00281B
:1007700005DB092807DDE3681A785F2A01D000202D
:1007800010BD0133E360012010BD00BF70B10378DC
:100790002F2B0FD1002904DC09E003782F2B09D17E
:1007A00031B1C06801390028F7D17047704701D1D5
:1007B0008068704700207047D0F8103133B1096865
:1007C0005B680029DB6804DB1846DFE70122C0F81C
:1007D00018211846704700BF002942D038B5054699
:1007E0000C4623784B2B27D8DFE803F02E2626264D
:1007F00026302E2B2B26262626262626262626267D
:10080000262626262E262626262626262626262680
:100810002626262E262626262E262626262E2B265B
:100820002626262626262626262626262E2E262658
:10083000262E2E2E26262E2EA1682846FFF7CCFF28
:1008400018B9E468002CCCD1002038BD04F10801AF
:100850002846FFF7B1FF0028F6D003782F2BF3D1FD
:1008600038BD0020704700BF2DE9F0411446D4E99F
:10087000025752684B1C1344AB4282B00E4680466E
:1008800014D817B102B0BDE8F081D4E900033246B4
:100890004146184454F07DFAD4E9003233449F5461
:1008A00063681E44666002B0BDE8F081002FE9D1A4
:1008B0001DB9022B4FF0020502D96D00AB42FCD8E6
:1008C0002946206854F0FAFA28B1E7682060A5604C
:1008D000002FD7D1D9E70190206853F0C3FF019BC7
:1008E0000122C4E90033C4E90232CBE738B504463B
:1008F00029B9C3681A7832B15A1CC26019786829BC
:1009000012D0762901D0002038BD04F10C0528460C
:10091000FFF768FDE3681A785F2AF4D10133E360DA
:100920002846FFF75FFD03E004F10C00FFF75AFDD6
:10093000E3681A785F2AE6D10133E360012038BD0D
:100940002DE9F04188B00A4604461C4901A854F03C
:100950005FFD01A806F016FA68B301ADD4F80031C6
:100960002E18002716E0D4F80831D4F80C2184F8AA
:10097000FF709847D4F8243100220133C4F82431A1
:10098000AE424FF00103C4F8003104F8028084F84D
:10099000048110D0FF2B1946204615F8018BE2D0B8
:1009A0001A46AE4203F10103C4F8003104F8028094
:1009B00084F80481EED108B0BDE8F0811C5A060825
:1009C0002DE9F04FC3681D7883B000228D420446A4
:1009D000019200F09981DFF8C094884601AF0125AB
:1009E000666B65631A784C2A5CD0542A66D0732AE9
:1009F00045D0662A1CD15A78702A00F0878020469C
:100A000001F070FA0546002800F08C810378312B44
:100A100000F09880322B56D0332B71D1E3681A78CE
:100A20005F2A00F0DA81204600F038FA0346C1E080
:100A3000A2F13001092900F2E780204601F0FEFB17
:100A40000546002800F06E81E3681A78492A00F014
:100A5000B88066632A4600232E212046FFF7C8FB94
:100A6000386030B3E3681A78424500F10C07B6D11C
:100A70000133019DE360284603B0BDE8F08F5A784A
:100A8000722A00F0AB80702AB9D10233E3602046AD
:100A900000F004FA002302464A212046FFF7A8FB93
:100AA000054603E0204602F013F805466663002D74
:100AB000D0D10025284603B0BDE8F08F2046FFF7CF
:100AC000EFFC0546F2E78368032B19D801A252F820
:100AD00023F000BF670C0008270A0008010B00087C
:100AE000010B0008742A8AD15B786C2B87D12046D1
:100AF00000F0FEFDE3685A780546002A40F02381A5
:100B000000252846666303B0BDE8F08F9A1CE260BA
:100B10009A78542A40F082800333E3600020D4E9BD
:100B200005329342ECDA21691A018D1801334FF036
:100B3000000E4FF0060CC5F804E0636101F802C036
:100B4000A86086E7D0F808B0236BDBF80820DBF854
:100B500000A0023A134423635046494606F008F9C0
:100B6000002800F0E480DBF80CB0BBF1030FC7D81D
:100B7000DFE81BF079000400F70081009AF80030EC
:100B8000702B65D06D2B63D04FF0000B5046BD49E4
:100B900006F0EEF8002840F0C080204600F090FB00
:100BA0000346BBF1000F05D01A4638212046FFF757
:100BB0001FFB03462A4636212046FFF719FB054650
:100BC00074E70133E360204600F07AFB2A460346CF
:100BD00004212046FFF70CFB054667E70233E3607C
:100BE000204600F085FD8246204601F027FBE368A1
:100BF0001A78492A83461ED0034629465246204683
:100C0000FFF7F6FA054651E76F2A40F094805A78CC
:100C10006E2A7FF4F4AE0233E3600EE72046FFF75E
:100C200025FC6FF0004398423FF46AAF431C3FF449
:100C300067AF013073E70133E360204600F040FB0B
:100C40005A46034604212046FFF7D2FA0346D4E76A
:100C50009AF801209A4297D1E3681A785F2A95D1D1
:100C60000133E36090E72A46002335212046FFF751
:100C7000BFFA05461AE7BAF1000F3FF441AF8249C7
:100C8000504606F075F8002800F0C7809AF800304A
:100C9000662B00F0ED806E2B7FF432AF9AF80130B6
:100CA000772B02D0612B7FF42BAF5F212046FFF71B
:100CB00087FE8246204600F01BFDE3681A78452A2D
:100CC000834600F08680702A00F0C680692A7FF48F
:100CD00017AF5B786C2B7FF413AF204600F0DEF883
:100CE00003465A463B212046FFF782FA5246034606
:100CF0003A212046FFF77CFA2A460346392120464E
:100D0000FFF776FA0546D1E60133C3602E2113467C
:100D100003B0BDE8F04FFFF76BBA204600F0BEF815
:100D200003463EE72846666303B0BDE8F08F2046E1
:100D300000F0DEFC3DE7692A7FF4D4AE5A786C2AD5
:100D40007FF45DAE00250233E36045212046FFF7C6
:100D500037FE2A46034630212046FFF749FA05466A
:100D6000A4E6BAF1000F3FF4CBAEAB681B685A782B
:100D7000632A3AD09AF80030662B49D1204601F018
:100D8000B1F883464149504605F0F2FF002839D0BA
:100D90003F49504605F0ECFF28B150463D4905F06B
:100DA000E7FF002868D1204601F048FAE3681A7886
:100DB000492A824643D053465A4638212046FFF7F7
:100DC00017FA2A46034637212046FFF711FA05464F
:100DD0006CE60133E360002383E70133E3604521E0
:100DE0002046FFF7EDFD0346E4E61B78A3F163021E
:100DF000012A02D9723B012BBCD8204600F078FCB6
:100E00008346BFE745212046FFF7DAFD8246D2E759
:100E1000204600F043F88346B4E7204600F03EF851
:100E20008246204600F03AF88346204600F036F825
:100E3000034600287FF455AF666305461BE6013381
:100E4000E360204600F03CFA524603460421204667
:100E5000FFF7CEF98246AEE75A78692A7FF450AEA2
:100E60000233E36045212046FFF7AAFD034638E739
:100E7000204601F037F8D3E7204600F00FF882460D
:100E800099E700BF205A0608305A0608245A060877
:100E9000285A06082C5A06082C5F0608C1680B78E9
:100EA0004C2B67D0542B67D0732B2DE9F0410446AF
:100EB0001CD0662B3DD14B78702B1DD18B1CC36091
:100EC0008B78542B40F09A800331C1600020D4E924
:100ED000053293424ADA21691A018D18013300273D
:100EE00006266F6063618E54A8602FE04B78722BEA
:100EF0006ED0702B00F06081204600F0F3FF0546B5
:100F0000A0B30378312B39D0322B00F02781332B5B
:100F10002CD1E3681A785F2A00F076812046FFF72B
:100F2000BDFF03462A4620463621BDE8F041FFF7C3
:100F30005FB9A3F13002092A41D8204601F07EF9B9
:100F4000054698B1E3681A78492A2BD02846BDE8AF
:100F5000F081742BD0D14B786C2BCDD100F0C8FB35
:100F6000E1684B780546002B40F09081002528462B
:100F7000BDE8F08101F0ACBDFFF792BA8768236B42
:100F8000BA683E68C849023A13442363304605F004
:100F9000EFFE00285BD0FF68032FE7D8DFE807F0FB
:100FA0005C38A7640133E360204600F089F92A46E3
:100FB000034604212046BDE8F041FFF719B96F2B25
:100FC00040F05C814B786E2B96D10231C160B4E762
:100FD0000231C16000F08CFB0546204601F02EF97D
:100FE000E36819784929064600F0D98003462A4665
:100FF00020460121BDE8F041FFF7FAB8FFF736FAC5
:10100000C34333F0004318BF01307FF460AFADE756
:10101000002E83D03378702B00F0B0806D2B00F061
:10102000AD8000273046A14905F0A2FE002840F01F
:10103000B180204600F044F90346002F3FF472AF20
:101040001A4638212046FFF7D3F803466AE72046C0
:1010500000F04EFB034665E72A4620460023352173
:10106000BDE8F041FFF7C4B89149304605F080FE75
:10107000002800F0D1803378662B00F0F6806E2BCC
:101080007FF474AF7378772B02D0612B7FF46EAF4F
:101090005F212046FFF794FC0646204600F028FB1F
:1010A000E36819784529074600F0AA80702900F006
:1010B000D08069297FF45AAF5B786C2B7FF456AFF0
:1010C0002046FFF7EBFE03463A463B212046FFF75A
:1010D0008FF8324603463A212046FFF789F82A4620
:1010E000034639212046BDE8F041FFF781B8002EC4
:1010F0003FF43CAFAB681B685A78632A68D03378FA
:10110000662B78D1204600F0EDFE0746694930464F
:1011100005F02EFE002868D06749304605F028FE0D
:1011200030B13046654905F023FE002840F0A1802B
:10113000204601F083F8E3681A78492A06467BD0F6
:1011400033463A4638212046FFF752F82A460346EE
:1011500037212046BDE8F041FFF74AB88368032BEA
:101160003FF604AF01A252F823F000BF5910000867
:101170001D0F00086D0F00086D0F000872789A426D
:101180007FF44FAFE3681A785F2A7FF44BAF0133E7
:10119000E36046E72046FFF781FE03464DE7013353
:1011A000E360204600F08CF83246034604212046D6
:1011B000FFF71EF803461AE70231E160FFF76EFE03
:1011C000002302464A212046BDE8F041FFF710B84F
:1011D0001B78A3F16302012A02D9723B012B8ED83E
:1011E000204600F085FA074690E745212046FFF7A4
:1011F000E7FB0646A4E72046FFF750FE074685E7D3
:101200000133E36000235FE70133E36045212046BB
:10121000FFF7D6FB034685E62046FFF73FFE06466E
:101220002046FFF73BFE07462046FFF737FE034602
:1012300000287FF449AF99E60133E360204600F0CF
:101240003FF83246034604212046FEF7D1FF06460A
:1012500076E75A78692A7FF489AE0233E360452144
:101260002046FFF7ADFB03462EE7204600F03AFE8E
:10127000D5E72046FFF712FE064661E7692B7FF4AB
:1012800068AE4B786C2B7FF437AE00250231E160FD
:1012900020464521FFF794FB2A460346302120468D
:1012A000BDE8F041FEF7A4BF2C5F0608205A0608EF
:1012B000305A0608245A0608285A06082C5A0608E6
:1012C0002DE9F041C268C76A1378452B82B0044605
:1012D0004ED002AD002145F8041D0126493B0F2BDD
:1012E0003DD8DFE803F037373C323C3C3C3C3C3CEB
:1012F0003C3C3C3C3C080132D4F83480E2606663FC
:101300002046FFF7CBFDE368C4F834801A78452AFD
:10131000844603F1010327D1E36000232F216246B5
:101320002046BCF1000F1FD0FEF762FF286000F1DD
:101330000C05C8B1E2681378452BCFD10198E7625C
:101340000132E26002B0BDE8F081204601F0C0FB4E
:101350008446E2E7204600F015F88446DDE72046A3
:1013600000F0C6F98446D8E7002002B0BDE8F0815D
:1013700001320023C2602F211A4602B0BDE8F041BD
:10138000FEF736BFC3681A78493A012A02D80133FA
:10139000C36095E7002070472DE9F043C2681378D9
:1013A0004E3B83B004460C2B46D8DFE803F067457C
:1013B0004545450E450745454545A40000F03EFF1F
:1013C0000546284603B0BDE8F0835378742B40F0FF
:1013D000D780D0E9053102328B42C26080F227818A
:1013E0000169C0481A018D180133636100236B60E5
:1013F0008B540323C5E90203204600F01FFF2A4651
:10140000034601212046FEF7F3FE236BE268033317
:1014100023631378492B0546D3D1002800F0BA8006
:10142000D4E90832934280F2B580E1695A1C41F850
:1014300023002262204614E000F000FFE3681B78DE
:10144000492B0546BDD1002800F0A480D4E908321C
:10145000934280F29F80E1695A1C41F823002046A4
:101460002262FFF78FFF2A46034604212046FEF73B
:10147000BFFE0546284603B0BDE8F0830132C260D6
:1014800001A9012200F0E6FD8046002800F08280DC
:1014900000212046FEF7F4FEE268934E157881465F
:1014A0000027002D00F0B380442D00F09680A5F1B8
:1014B0003003DBB21C2B6FD9A5F16103DBB2192B12
:1014C0006ED9552D00F0A180532D00F0B280492D2A
:1014D00000F0A480542D00F0E680452D00F0E98056
:1014E0004D2D40F09480002F00F09180531CE3605C
:1014F00055781A46D5E70132C260002101F03AF86A
:10150000E3681A78452A064644D15A1CE2605A78A4
:10151000732A00F0B080642A00F095802046FFF71F
:101520003BFF054608B30378452B1ED0472B1CD044
:101530004FF0FF372046FFF703F958B37B1C14D058
:10154000D4E90532934280F294802069190142184F
:1015500001334FF0000E4FF0460CC2F804E0636117
:1015600000F801C0C2E9025715462B463246204614
:101570000221FEF73DFE0546284603B0BDE8F08394
:101580000021FFF725F8E3681B78492B05467FF417
:1015900018AF4FE7002514E726FA03F3D9078BD5D8
:1015A000204600F04BFE5FB3012103463A46204639
:1015B000FEF71EFE0746E268532D13781ED0452B1A
:1015C0001AD027B3D4E908318B4220DAE16941F817
:1015D000237001332362157863E7537803F0DF0348
:1015E000542B20460ED000F029FE002FDCD1E268FB
:1015F0001378452B0746E4D11D4658E71D4650E7B2
:101600000746D8E700F074F8EFE72046EBE700253F
:101610002846C8F8005003B0BDE8F083002FF6D08C
:101620000132E2602046FFF74BFE0421BDE70025B2
:10163000E2E601212046FEF7CBFF002FB4D1E2689D
:10164000074615782DE70233E3602046FEF70EFFCC
:10165000071E9FDB2046FFF79FFE054600283FF44C
:101660006FAF0378452B3FF469AF472B3FF466AF6C
:1016700060E7002579E70233E3602046FFF760F872
:10168000002887D0D4E905239A4210DA2069174D43
:10169000110143180132626100225A6042540E2245
:1016A000C3E9025262E72046FEF7FAFE9DE70023F7
:1016B0005CE7C8F80070002F3FF46CAFB9F1000F81
:1016C00004D0019BC9F80830CDF804901378452B5D
:1016D0007FF460AF019D01322846E26003B0BDE8AF
:1016E000F08300BF445A0608FF030810345A060866
:1016F0002DE9F043C2681378722B83B004465FD0A3
:10170000562B5DD04B2B5BD0442B51D0A3F1300135
:101710004A2900F29E80DFE811F011011101110148
:1017200011011101110111011101110111019C009F
:101730009C009C009C009C009C009C001E029C0045
:101740003B019C009C00350149019C009C009C00D1
:101750009C009C0006021101570165019C00730169
:101760008101A501CC019C009C009C009C00110102
:101770009C009C009C009C009C009C00E401E401F7
:10178000E401E401E401E401E401E401E401E40131
:101790009C00E401E401E401E4019C009C009C0045
:1017A000E401E4012701E401E401E401E401E401CE
:1017B000537803F0DF014F2902D0773B012B4DD83E
:1017C000002201A9204600F045FC0546002840D033
:1017D000E3681B78462B204619D100F00FFD2860E6
:1017E000002836D00378019A1F3B012B13D9002A19
:1017F0002FD0D4E908318B422BDAE06940F823205E
:10180000591C019D2162284603B0BDE8F083FFF713
:101810006FFF2860E4E7836882602A6801922B608A
:10182000019AE4E70123456B4363FFF737FB6563E8
:101830000246002342212046FEF7DAFC05460190CD
:1018400038B1E3681A7822B15A1CE2601B78452B44
:101850007BD00025284603B0BDE8F083531CC3604D
:101860005378002BF5D0931CC3605378463B302B44
:10187000EFD801A151F823F0351D000853180008D6
:10188000531800085318000853180008531800088C
:10189000531800085318000853180008531800087C
:1018A000531800085318000853180008531800086C
:1018B000251800085318000853180008531800088A
:1018C000531800085318000853180008531800084C
:1018D000531800085318000853180008531800083C
:1018E00053180008111D000853180008ED1C0008CB
:1018F000C51C00089D1C0008751C00085318000832
:101900004D1C0008E91D0008531800085318000872
:1019100053180008531800089D1D000853180008AC
:10192000371C000853180008531800080F1C000843
:101930002518000853180008D51B00082046FFF79B
:101940002BFD05460190002D83D0D4E90832934247
:10195000BFF67FAFE16941F82350019D5A1C28462C
:10196000226203B0BDE8F0830132E2602046FEF758
:10197000B9FD0023024628212046FEF739FC054622
:101980000190E0E7204600F039FC05460190DAE7D7
:101990000132E2602046FFF7ABFE0023024625211C
:1019A0002046FEF725FC05460190CCE70132E260B7
:1019B0002046FFF79DFE0023024626212046FEF723
:1019C00017FC05460190BEE70132E2602046FFF7B2
:1019D0008FFE0023024624212046FEF709FC05461F
:1019E0000190B0E70132E2602046FFF781FE00235C
:1019F000024622212046FEF7FBFB05460190A2E7A6
:101A00000132E2602046FFF773FE002302462321E5
:101A10002046FEF7EDFB0546019094E75378A3F1CD
:101A20003002092A05D95F2B03D0413B192B00F264
:101A30000F8200212046FEF7CBFDE36801901A7863
:101A4000492A05467FF4DFAE0133E3602046FFF705
:101A500037FC03462A4604212046FEF7C9FB05460B
:101A6000019070E72046FEF71BFDE6680190337891
:101A7000492B05467FF467AFA36B002B40F0F5813F
:101A800000283FF4E6AED4E908218A42BFF6E1AE71
:101A9000E16941F82200013222623178019D493921
:101AA0000129D7D80136E6602046FFF709FC034636
:101AB000D0E70132E2602046FEF714FDE3680190B2
:101AC0001A78492A054600F0A8812046FFF710FE43
:101AD000019B024621212046FEF78AFB0546019024
:101AE00031E7D4E90510613BB64D03EB8303814236
:101AF00005EB830380F28B815868266BD4F810C005
:101B00000F010CEB070506443046013201314FF05E
:101B1000000E2726C5F804E061610CF80760AB6091
:101B2000E26020636FE60132E2602046FFF7E0FDED
:101B3000054600283FF48DAE2046FFF7D9FD034649
:101B400000283FF486AE2A462B212046FEF750FBA4
:101B500005460190F7E6551CE56053785F2B00F0D1
:101B60005A81303B092B00F26581284600E0084687
:101B7000411CE1604378303B092BF8D9D4E90532A8
:101B80009342A1EB0507BFF664AED4F810E04FEA2C
:101B9000031C0EEB0C060133002272606361002F00
:101BA0003FF457AE72600EF80C20C6E90257437836
:101BB0000D465F2B7FF44DAE0135E5602046FFF703
:101BC00097FD324603462A212046FEF711FB0546C3
:101BD0000190B8E693785F2B00F07881FEF72EFC39
:101BE0000546002D3FF435AEE3681A785F2A7FF48E
:101BF00030AE0133E3602046FFF77AFD2A46034604
:101C00002D212046FEF7F4FA054601909BE6D0E927
:101C10000532934280F2FB800069226B190145185E
:101C2000013300266E60083263612726664B4654F6
:101C3000AB602263E7E5FFF75BFD002302464A2124
:101C40002046FEF7D5FA054601907CE6D0E905323C
:101C5000934280F2DC800069226B19014518013340
:101C600000266E60043263612726584B4654AB60F1
:101C70002263C8E5D0E90532934280F2C88000694A
:101C8000226B19014518013300266E600932636129
:101C900027264F4B4654AB602263B4E5D0E90532AA
:101CA000934280F2B4800069226B19014518013318
:101CB00000266E600A3263612726464B4654AB60AD
:101CC0002263A0E5D0E90532934280F2A08000694A
:101CD000226B19014518013300266E6009326361D9
:101CE00027263D4B4654AB6022638CE5D0E9053294
:101CF0009342BFF6AEAD0169384E1A018D1801331B
:101D0000436100230E206B608B54C5E902607AE5C5
:101D1000D0E905329342BFF69CAD0169304E1A01FD
:101D20008D1801334361002304206B608B54C5E997
:101D3000026068E5D0E905318B4280F2AF80056929
:101D400018012918013300272C264F600191636187
:101D50002E549378303BDBB2092B94BF01233B46D2
:101D60008B8140F2AE802046019DFFF7C1FC019BB4
:101D7000A8609B68002B3FF46CAD04F10C00FEF7EB
:101D800031FBE268137813B1531CE3601378019DB3
:101D9000A3F1730253425341EB8134E5D0E905329C
:101DA000934234DA0069226B190145180133002689
:101DB0006E601132636127260A4B4654AB60226382
:101DC00021E500BFAC0E060804110608F010060855
:101DD000B4100608DC100608C8100608505A060899
:101DE000485A06082C110608D0E9053293420EDA4B
:101DF0000069226B19014518013300266E60083214
:101E000063612726364B4654AB602263FBE4002314
:101E100001939B68FFDE0026CEE60133E360204697
:101E2000FFF74EFA2A46034604212046FEF7E0F962
:101E300001904AE60123656B63632046FFF72EF8A5
:101E40006563064600283FF404ADE5682B78B0E6EC
:101E50002046FFF7A1FA0546019000283FF4F9ACAF
:101E60000378182B7FF471ADCDE4731CE36020463A
:101E7000D4F81490D4F82080A76A256BFFF720FAD5
:101E8000E2681278492A03460BD02563E660C4F85D
:101E90001490C4F82080A762019D54E500231B70B4
:101EA000FFDE019900293FF4D4ACD4E90820824236
:101EB000BFF6CFACE06940F8221001322262019AED
:101EC000C9E504F10C00FEF78DFA4CE7033201235B
:101ED000466BC2604363FEF7E1FF6663054680E63A
:101EE00018110608F8B5C3681E78864636B35A1C22
:101EF000C2605A781E78002A4AD09A1CC260762E98
:101F0000044693F801C045D1ACF13005EBB2092B82
:101F100015D8FEF7E7FAD4E905318B42024621DAFB
:101F20002669190170180133002747606361CAB13F
:101F3000322347607354C0E90252F8BDB446234CC3
:101F400043200022831A03EBD37302EB63031901CE
:101F5000671861580D78B54206D094BF5A1C1846D0
:101F60008242EFD10020F8BD49786145F5D1DEE924
:101F700005329342F6DADEF810101A0188180133A0
:101F8000002531244560CEF814308C548760F8BDAC
:101F90009446D4E7632ED2D1BCF1760FCFD1D0E9ED
:101FA0000D35B3FA83F35B098363FFF7A1FBA36BE2
:101FB00002462BB933212046FEF71AF9A563F8BD76
:101FC000002334212046FEF713F9F7E740110608F5
:101FD00030B5C26883B0002301931378002B36D04C
:101FE000452B34D02E2B32D0044601AD15E04F2BBB
:101FF00016D0FFF77DFB002302462E2138B3204682
:10200000FEF7F6F8286010B3E268137800F10C05CB
:102010004BB1452B07D02E2B05D0522B2046E6D1B5
:102020005378452BE5D1019888B1C3680BB103B053
:1020300030BD826811782729F9D19268117C09296D
:10204000F5D15168226B521A22638360EFE70020BA
:1020500003B030BD2DE9F04F894683B0C168131E2F
:10206000019304460B7815BF4FF01E084FF01B0874
:102070001D271A2714BF1C2619264D464FF0010AAA
:102080001CE0562B3FD04B2B43D04B78002B35D048
:102090008B1CE3604B78782B41D06F2B45D1236BA1
:1020A000093323634E21002300222046FEF7A0F8C7
:1020B000286018B3E1680B7800F10805722B0DD089
:1020C000562B0BD04B2B09D0442B46D14A7802F02B
:1020D000DF004F2802D0773A012A3ED84A1C722BE3
:1020E000E260CED1236B0933236331460023002203
:1020F0002046FEF77DF828600028DBD10025284621
:1021000003B0BDE8F08F236B093323633946002306
:10211000CAE7236B0633236341460023C4E7236BDE
:10212000113323634C210023BEE74F2B32D1D4E976
:102130000C3B09332363C4F834A02046FEF7AEFEFF
:10214000C4F834B003460028D8D0E2681178452995
:10215000D4D10132E2604E21A6E7019A002ACED105
:10216000462BCCD14D45CAD01D241E201C2108E091
:102170001B2A0DD0192A00D1197003F108094D4509
:10218000BDD0D9F800301A781A2AF1D11C70F4E7C2
:102190001870F2E7772BB1D1236B06332363204607
:1021A000FFF716FF03460028A8D0E26811784529FA
:1021B000A4D10132E2604F2176E700BF70B5C36859
:1021C0001A784A2A044613D081B12046FFF790FAC4
:1021D000054680B12046FFF7FBFE60B103462A4664
:1021E00020462921BDE87040FEF702B80D46F1E710
:1021F0000133C360E9E7002070BD00BFC3681A78EF
:10220000462A18D110B55A1CC2605A78592A04BF00
:102210000233C36001210446FFF7D0FF0146204688
:10222000FEF72EF8E3681A78452A02D10133E360FD
:1022300010BD002010BD0020704700BF2DE9F04107
:10224000C1680B78A3F13002092A04463CD9A3F1F6
:102250006102192A22D9A3F14302012A69D94C2B20
:1022600056D0552B5FD14B786C2B00F0E580742B4A
:1022700059D14B1CC3604B78742B58D10231C160CB
:10228000FEF7F4F80028C0F25581D4E905329342F4
:10229000E768C0F2F3803B78002510E06F2B04D193
:1022A0004B786E2B04BF0231C1602046FFF71AFE47
:1022B000054610B10378312B13D0E3681B78422B0D
:1022C00009D02846BDE8F081FEF70CF9E3681B78D9
:1022D000422B0546F5D129462046BDE8F041FEF7E0
:1022E0005BB98268236B96681068A1490733334451
:1022F000236304F03DFD0028DFD12046FEF7F2F80D
:102300002A46034636212046FDF772FF0546D4E7EC
:102310000131C160FEF7E6F8054620B12046FEF720
:102320000FFA0028C9D100252846BDE8F081002514
:10233000C5E7C26A32B11078E0B9236BD0680344B4
:1023400023630B78432B18D0442BF0D14B78303BD0
:10235000052BE8D801A050F823F000BFCD230008DA
:1023600097230008DF23000827230008D92300084B
:10237000D32300081828E5D1DFE74B78492B00F07C
:10238000B080313B042BCED8DFE813F0ED005100D4
:102390004C0047002C004FF0020CD4E905308D1C96
:1023A0008342E56080F2D080266918013518013338
:1023B00000276F606361002A00F0CF8008236F6000
:1023C000335485F808C0EA608B7878E74FF0010C49
:1023D000E3E74FF0050CE0E74FF0040CDDE74FF0CA
:1023E000030CDAE70231E1604FF00508D4E905306B
:1023F000834280F2AC80266918013518013300272A
:102400006F606361002A00F0AB8007236F60335474
:1024100085F80880EA600B7851E70231E1604FF0FF
:102420000408E3E70231E1604FF00308DEE7023120
:10243000E1604FF00208D9E74B1CC3604B786C2B6E
:102440007FF475AF0231C160FFF7C2FD0646002878
:1024500070D0E2681378452B7FF469AF0132E260F7
:102460002046FEF703F8B0F1000E63DBD4E9053235
:102470009342E0681BDB0378002520E72669226A87
:10248000D4F824E01901751801334FF0000CC5F899
:1024900004C0724563614FF047037354A8604DDA7E
:1024A000E36943F82250013222623B7807E727694B
:1024B000226AD4F8248019017D1801334FF0000CF2
:1024C000C5F804C0424563614FF045037B54C5E93C
:1024D000026E36DAE36943F8225001322262037851
:1024E000EDE64B1CE3608B78313B042B32D8DFE800
:1024F00003F0031C17120D000331E1604FF00108D7
:102500002046FFF7F5F8E26AE1686FE70331E16022
:102510004FF00508F4E70331E1604FF00408EFE7FE
:102520000331E1604FF00308EAE70331E1604FF067
:102530000208E5E7E36800251B78C0E63B786546BE
:10254000BDE603786546BAE68B780025B7E60B78DA
:102550000025B4E64B780025B1E68B781546AEE64B
:102560000B781546ABE60231E1604FF001083DE71C
:10257000605A06082DE9F047C3681A78472A0446CE
:1025800019D0542A17D00E46FEF706FF054600283C
:102590007DD0002E57D0A368DB0754D400E0AD688F
:1025A0002B78A3F11C02042AF9D9022B00F08681B2
:1025B0002846BDE8F087216B01F1140222631A78E6
:1025C000542A68D0472A62D15A1CE2605A78002AFD
:1025D0005DD09A1CE2605A78413A312A57D8DFE838
:1025E00012F03E01560056005600560056005600A6
:1025F000560056005600560056005600560056002B
:10260000560056004A01560059015600E000560097
:10261000560056005600560056005600560056000A
:1026200056005600560056005600560056005600FA
:1026300056005600560056005600560056005600EA
:1026400056005600EB00E3681B78002BB0D0452BFA
:10265000AED029460B78202B00F218821C2B80F07C
:102660001E82042B40F091808A686AB11378082B8F
:1026700003F1FF3100F28680072B80F0868001296C
:1026800002D8D268002AF1D101217FE0E76000255D
:102690002846BDE8F0875A1CE2605A78002AF6D036
:1026A0009A1CE2605B78433B332BF0D801A252F8CE
:1026B00023F000BF092A00088F2600088F26000893
:1026C000F32900088F260008DD290008C729000823
:1026D000B12900088F2600088F2600088F260008E1
:1026E0008F2600088F2600088F2600088F260008F6
:1026F0008F2600089B290008812900088F260008E2
:1027000067290008512900088F2600088F26000835
:102710008F2600088F2600088F2600088F260008C5
:102720008F2600088F2600088F2600088F260008B5
:102730008F2600081D2900088F2600088F26000814
:102740008F2600088F260008F72800088F2600082B
:102750008F2600088F2600088F2600088F26000885
:102760008F2600088F2600088F2600088F26000875
:102770008F2600088F2600088F2600088F26000865
:10278000D1280008342B7FF47FAF00212046FFF7CB
:1027900015FD2A46034603212046BDE8F047FDF714
:1027A00027BD2046FEF7F8FD0023024613212046F0
:1027B000BDE8F047FDF71CBD04F10C00FDF712FE6B
:1027C00001287FF764AFE3681A78002A3FF45FAF0F
:1027D0005F1CE7601B785F2B7FF459AF0022451E1A
:1027E00090464FF040093B78002B3FF450AF242B2C
:1027F00040F02A817B78532B00F056815F2B00F04C
:102800005581242B7FF443AF1946D4E90503E768CB
:10281000984207F10207BFF639AFD4F810C006019D
:102820000CEB06030130C3F80480023D60610CF834
:1028300006909960E760002A00F026813F2120463B
:10284000FDF7D6FC024600283FF421AF002DCADC7C
:10285000204600233E21BDE8F047FDF7C9BC00211A
:102860002046FFF787FE0023024617212046BDE8D9
:10287000F047FDF7BDBC2046FEF78EFD054620461D
:10288000FDF7DCFD2A46034616212046BDE8F04749
:10289000FDF7AEBC9A78002120462AB1DA1CE2602E
:1028A0009B786E2B00F00981FFF764FE002302463F
:1028B00048212046BDE8F047FDF79ABCEA6800E0F1
:1028C00092681078FDF780FD0028F9D1EA606FE684
:1028D00076212046FEF70AF800283FF4D8AE002102
:1028E0002046FFF747FE0023024610212046BDE8A0
:1028F000F047FDF77DBC68212046FDF7F7FF002873
:102900003FF4C5AE00212046FFF734FE0023024607
:102910000F212046BDE8F047FDF76ABC00212046A4
:10292000FDF7E4FF00283FF4B2AE00212046FDF79A
:10293000DDFF00283FF4ABAE00212046FFF71AFE72
:102940000023024611212046BDE8F047FDF750BCA8
:102950002046FEF721FD0023024615212046BDE852
:10296000F047FDF745BC0F3121632046FEF7C0FE5E
:102970000023024609212046BDE8F047FDF738BC98
:102980000A3121632046FEF7B3FE002302460A21E6
:102990002046BDE8F047FDF72BBC2046FEF7A8FE19
:1029A000002302460D212046BDE8F047FDF720BC7C
:1029B0002046FEF79DFE0023024612212046BDE878
:1029C000F047FDF715BC2046FEF792FE00230246B5
:1029D0000C212046BDE8F047FDF70ABC2046FEF773
:1029E000DBFC0023024614212046BDE8F047FDF73A
:1029F000FFBB2046FEF77CFE002302460E21204648
:102A0000BDE8F047FDF7F4BB2046FEF771FE054632
:102A100004F10C00FDF7E6FC0028FFF638AEE36891
:102A20001A785F2A7FF433AE0133E3602046FEF765
:102A30005FFE236B591D216302462B4620460B2166
:102A4000BDE8F047FDF7D4BB3E46002104E016F890
:102A5000013F23B1242B02D00131A942F7DBD4E995
:102A60000530834224DAD4E903C6180101336361D7
:102A700033186D1AC3F8048006F800809F600CEBD1
:102A80000107D960E760D6E61A46DFE64C2BA3F1D2
:102A90004E0204D0FFF479AE012A3FF676AE896883
:102AA00000297FF4D7AD71E62F21AEE62E21ACE6EA
:102AB000E3680B44E36000257AE5FFF75BFD002344
:102AC000024649212046BDE8F047FDF791BB00BF13
:102AD000F8B5C26813784C2B44D1531CC3605178AD
:102AE0005F29044640D05A290CD10133E36000210C
:102AF0002046FFF73FFDE3681A78452A32D10133BB
:102B0000E360F8BDFEF7F4FD60B30378272B32D005
:102B1000E66833786E2B37D03C21452B40D00BB381
:102B2000334600E0F5B10133E3601D78452DF9D15E
:102B30009D1BD4E905239A420BDAD4F810E04FEA42
:102B4000021C0EEB0C03013200275F60626106B1CC
:102B500005BB002302462046FDF74AFBE3681A78CE
:102B6000452ACCD00020F8BD931CC36092785A2A25
:102B7000BBD00020C1E783681A7C002AC8D05A68FD
:102B8000236B9B1A2363C3E7721CE26073783D21B9
:102B90001646C2E75F600EF80C70C3E90265D9E71C
:102BA0000025C6E712B15368012B03DD0123C0F8ED
:102BB000183170472DE9F04F15465A1C6A6099B0DC
:102BC000D0F8187104950E4604ABD0F82811059181
:102BD0000446C0F82831002F40F0D78028784F28CD
:102BE00001F2EF82DFE810F0870AB80AB80A4F0A4C
:102BF000C607940767075E0737070F07E706BF0694
:102C000097066F0647061F0647091F09F708CF08F2
:102C1000A7087F0857082F08D609BF09BF09BF09B1
:102C200099099909990999099909990999096F09BE
:102C30006F09990999091D0A140A06069205720579
:102C40001B057205D304D30488045C043404ED0A24
:102C50000C040404B0039C0397038D0388038803CA
:102C6000330333030B03FE02DC02AA0282025A0280
:102C70003202F801ED0AD001A801530105017B01E0
:102C80009909D80099099909AA6893681B68597825
:102C9000632909D11B78A3F16301012942F2198349
:102CA000723B012B42F2158305F10C03314620469D
:102CB00003F0D2FC8046002842F00084AB681A780A
:102CC000312A02F092859B68D749186804F050F8C1
:102CD000EB689A6818B91378032B02F0D485314653
:102CE000204603F067FCAF68D049BB68D3F800808A
:102CF000404604F03DF88146002842F0D083D4F8E5
:102D00000071FF2F10D184F8FF003946D4F8083144
:102D1000D4F80C2120469847D4F82431C4F8009107
:102D200001334F46C4F824317A1C5B23C4F80021D8
:102D3000E35584F80431EB683146DA682046FFF742
:102D400031FFD4F80071FF2F11D100263946D4F895
:102D5000083184F8FF60D4F80C2120469847D4F855
:102D60002431C4F8006101333746C4F824315D23AF
:102D70007A1CC4F80021E35584F80431AB681A7852
:102D8000312A02F0AD8305996A68C4F82811013A26
:102D90006A6019B0BDE8F08FA54FAA683146204699
:102DA000FFF700FF07F10808D4F800314FF00009E1
:102DB00016E0D4F80831D4F80C2184F8FF90984735
:102DC000D4F824310133C4F8243100220123B8455A
:102DD000C4F8003104F802A084F804A101F0F982DB
:102DE000FF2B1946204617F801AFE2D01A460133EF
:102DF000EDE7A9682046FDF7EFFC002802F0E1812D
:102E0000002302782F2A41F0DF858268002A01F032
:102E1000DB85C06801330028F3D11946AB68019304
:102E20004A1E02924FF0000A89460395C4F82071A9
:102E3000019A31462046FFF7B5FE029B9F4281F280
:102E4000C6817C4DD4F8003105F1020816E0D4F8B3
:102E50000831D4F80C2184F8FFA09847D4F8243125
:102E60000133C4F8243100220123A845C4F80031FD
:102E700004F802B084F804B101F0A981FF2B1946CF
:102E8000204615F801BBE2D01A460133EDE76A4F40
:102E9000D4F8003107F11A084FF0000916E0D4F811
:102EA0000831D4F80C2184F8FF909847D4F82431E5
:102EB0000133C4F8243100220123B845C4F800319D
:102EC00004F802A084F804A101F0F182FF2B194656
:102ED000204617F801AFE2D01A460133EDE7574F0D
:102EE000AA6831462046FFF75DFE07F10508D4F8D1
:102EF00000314FF0000916E0D4F80831D4F80C2165
:102F000084F8FF909847D4F824310133C4F8243171
:102F100000220123B845C4F8003104F802A084F867
:102F200004A101F07C82FF2B1946204617F801AB63
:102F3000E2D01A460133EDE7414FD4F8003107F1F2
:102F400016084FF0000916E0D4F80831D4F80C2127
:102F500084F8FF909847D4F824310133C4F8243121
:102F600000220123B845C4F8003104F802A084F817
:102F700004A101F0F481FF2B1946204617F801AF98
:102F8000E2D01A460133EDE72E4ED4F8003106F1B7
:102F90000E074FF0000816E0D4F80831D4F80C21E1
:102FA00084F8FF809847D4F824310133C4F82431E1
:102FB00000220123B742C4F8003104F8029084F8DB
:102FC000049101F0D581FF2B1946204616F8019F88
:102FD000E2D01A460133EDE71B4FD4F8003107F178
:102FE00008084FF0000916E0D4F80831D4F80C2195
:102FF00084F8FF909847D4F824310133C4F8243181
:1030000000220123B845C4F8003104F802A084F876
:1030100004A101F01481FF2B1946204617F801AFD7
:10302000E2D01A460133EDE7245A0608245C06086C
:10303000CF5C0608F85B0608C35B0608645A0608FE
:10304000C75B0608BF5C0608AF5C0608B94FD4F83A
:10305000003107F11C084FF0000916E0D4F80831E0
:10306000D4F80C2184F8FF909847D4F82431013328
:10307000C4F8243100220123B845C4F8003104F813
:1030800002A084F804A101F00F81FF2B194620460D
:1030900017F801AFE2D01A460133EDE7A64FD4F896
:1030A000003107F11D084FF0000916E0D4F808318F
:1030B000D4F80C2184F8FF909847D4F824310133D8
:1030C000C4F82431002201234745C4F8003104F834
:1030D00002A084F804A101F08380FF2B194620464A
:1030E00017F801AFE2D01A460133EDE7934FD4F859
:1030F000003107F10A084FF0000916E0D4F8083152
:10310000D4F80C2184F8FF909847D4F82431013387
:10311000C4F8243100220123B845C4F8003104F872
:1031200002A084F804A101F06480FF2B1946204618
:1031300017F801ABE2D01A460133EDE708A8AA68F8
:103140007F4952F065F908A803F01CFE002801F041
:10315000B78108AED4F8003137184FF0000816E0F8
:10316000D4F80831D4F80C2184F8FF809847D4F8BB
:1031700024310133C4F8243100220123BE42C4F8B3
:10318000003104F8029084F8049101F09981FF2B3A
:103190001946204616F8019BE2D01A460133EDE7A6
:1031A000D4F8007195F80880FF2F11D10026394618
:1031B000D4F8083184F8FF60D4F80C2120469847F1
:1031C000D4F82431C4F8006101333746C4F82431FF
:1031D0007B1CC4F8003104F8078084F804816A6815
:1031E0000599D2E5AA6831462046FFF7DBFC314657
:1031F000EA682046FFF7D6FC05996A68C5E5514F95
:10320000D4F8003107F10E084FF0000916E0D4F8A9
:103210000831D4F80C2184F8FF909847D4F8243171
:103220000133C4F8243100220123B845C4F8003129
:1032300004F802A084F804A101F04681FF2B19468E
:10324000204617F801AFE2D01A460133EDE7AB682C
:103250001A78272A01F072854FF00008D4F800711F
:10326000FF2F12D14FF000093946D4F8083184F805
:10327000FF90D4F80C2120469847D4F82431C4F8A4
:10328000009101334F46C4F8243128237A1CC4F836
:103290000021E35584F80431AA6831462046FFF73F
:1032A00081FCD4F80031FF2B41F0B885002219468B
:1032B00084F8FF20D4F80831D4F80C212046984730
:1032C0002923237084F804312A78D4F82431012189
:1032D00001333D2AC4F82431C4F8001101F0BB8544
:1032E000B8F1080F01F056853146EA682046FFF72D
:1032F00059FC05996A6848E50123C4F818316A68E1
:1033000043E5EB681A783A2A01F005840123C4F8F2
:1033100018316A6839E50123C4F818316A6834E560
:10332000EB681B78382B3FF4AFAC0123C4F818319D
:103330006A682AE58F5C06086F5C0608505C060820
:103340001C5A06083F5C0608D5E9029899F8003037
:10335000312B01F03A84332B42F09281D4F8007182
:10336000FF2F12D14FF0000A3946D4F8083184F803
:10337000FFA0D4F80C2120469847D4F82431C4F893
:1033800000A101335746C4F824317A1C2823C4F81D
:103390000021E35584F80431D9F80820314620464D
:1033A000FFF700FCD4F80071FF2F12D14FF0000995
:1033B0003946D4F8083184F8FF90D4F80C2120461F
:1033C0009847D4F82431C4F8009101334F46C4F82B
:1033D000243129237A1CC4F80021E35584F80431F0
:1033E00042463146204603F0E5F805996A68CCE488
:1033F0003146AA68204603F09DF805996A68C4E43E
:10340000D24FD4F8003107F109084FF0000916E057
:10341000D4F80831D4F80C2184F8FF909847D4F8F8
:1034200024310133C4F8243100220123B845C4F803
:10343000003104F802A084F804A101F05780FF2BAA
:103440001946204617F801AFE2D01A460133EDE7DE
:10345000BE4FD4F8003107F109084FF0000916E01B
:10346000D4F80831D4F80C2184F8FF909847D4F8A8
:1034700024310133C4F8243100220123B845C4F8B3
:10348000003104F802A084F804A101F02680FF2B8B
:103490001946204617F801AFE2D01A460133EDE78E
:1034A000D5F808A0AA4EDAF80870D4F8003106F171
:1034B00008084FF0000916E0D4F80831D4F80C21C0
:1034C00084F8FF909847D4F824310133C4F82431AC
:1034D000002201234645C4F8003104F802B084F804
:1034E00004B101F02180FF2B1946204616F801BFD8
:1034F000E2D01A460133EDE7D5E902281AB1314688
:103500002046FFF74FFBD4F80071FF2F12D14FF088
:1035100000093946D4F8083184F8FF90D4F80C211A
:1035200020469847D4F82431C4F8009101334F461F
:10353000C4F82431781C7B23C4F800014246E355CB
:103540003146204684F80431FFF72CFBD4F8007193
:10355000FF2F11D100263946D4F8083184F8FF60D6
:10356000D4F80C2120469847D4F82431C4F80061DF
:1035700001333746C4F824317A1C7D23C4F8002176
:10358000E35584F804316A680599FFF7FEBBAA6821
:103590001AB131462046FFF705FBEB68002B01F01E
:1035A0003D85D4F80071FD2F12D94FF0000804F8C2
:1035B00007803946D4F80831D4F80C2120469847C2
:1035C000D4F82431C4F8008101334746C4F82431CB
:1035D000DFF888814FF0000A08F1020B16E0D4F8FA
:1035E000083184F8FFA0D4F80C219847D4F824318E
:1035F0000133C4F8243101270023C345C4F8007106
:1036000004F8039084F8049101F0CF80FF2F39462D
:10361000204618F8019BE2D03B460137EDE7B5F9AB
:103620000E30002B41F0A084AA684A4B9168994261
:1036300020D031462046FFF7B5FAD4F80071FF2FAD
:1036400011D100263946D4F8083184F8FF60D4F847
:103650000C2120469847D4F82431C4F80061013386
:103660003746C4F8243120237A1CC4F80021E355DE
:1036700084F80431B5F90C20D4F80031002A01F0A7
:10368000A680354E4FF0000806F1060915E0D4F883
:103690000831D4F80C2184F8FF809847D4F82431FD
:1036A0000133C4F8243100220123B145C4F80031AC
:1036B000A75484F8047101F08381FF2B194620463A
:1036C00016F8017BE3D01A460133EEE718ABD4F8C5
:1036D000142143F8402D0020C4F814310A90D4F886
:1036E0001031EA680B93314620460995FFF75AFAE4
:1036F0000A9B23B931462A46204602F0E9F8089B86
:10370000C4F8143105996A68FFF73FBB0DF16009F1
:10371000D4F814C149F840CDD4F81031CDF804C024
:1037200000226746C4F814910995CDE90A23002FB9
:1037300001F02F857B681B78193B022B01F229854C
:1037400023464FF001084C469C460EE0075C0608F5
:10375000FB5B06084C0F0608E85B0608F85B0608EA
:103760007B681B78193B022B1DD8BB684FEA081EEB
:1037700018AA02EB0E0B9BB9B8F1030F01F21785E3
:1037800097E80F00ABF1400A8AE80F004BF8404C75
:10379000012309EB0E04CCF8144108F10108BB60C9
:1037A0003F68002FDCD1EA68314660466446FFF787
:1037B000F9F90A9B019AC4F81421BBB9B8F1010FB9
:1037C0000CD009EB08180CAF58F80C2C3146A8F1B6
:1037D0001008204602F07CF84745F5D13146D4F870
:1037E000143105F10802204602F0CAFD05996A6805
:1037F000FFF7CBBAB20626F06008D4F8143101F115
:103800005A82AA681AB116F0400601F0C3854146F3
:1038100005F10C02D4F81431204602F087FB05991B
:103820006A68FFF7B2BACB4FD4F8003107F1150838
:103830004FF0000916E0D4F80831D4F80C2184F8D0
:10384000FF909847D4F824310133C4F82431002282
:103850000123B845C4F8003104F802A084F804A19B
:1038600000F08987FF2B1946204617F801AFE2D0F8
:103870001A460133EDE7B84FD4F8003107F11008CC
:103880004FF0000916E0D4F80831D4F80C2184F880
:10389000FF909847D4F824310133C4F82431002232
:1038A0000123B845C4F8003104F802A084F804A14B
:1038B00000F06A87FF2B1946204617F801AFE2D0C7
:1038C0001A460133EDE7A54FD4F8003107F112088D
:1038D0004FF0000916E0D4F80831D4F80C2184F830
:1038E000FF909847D4F824310133C4F824310022E2
:1038F0000123B845C4F8003104F802A084F804A1FB
:1039000000F02787FF2B1946204617F801AFE2D0B9
:103910001A460133EDE7924FD4F8003107F10D0854
:103920004FF0000916E0D4F80831D4F80C2184F8DF
:10393000FF909847D4F824310133C4F82431002291
:103940000123B845C4F8003104F802A084F804A1AA
:1039500000F00887FF2B1946204617F801ABE2D08C
:103960001A460133EDE77F4FD4F8003107F118080C
:103970004FF0000916E0D4F80831D4F80C2184F88F
:10398000FF909847D4F824310133C4F82431002241
:103990000123B845C4F8003104F802A084F804A15A
:1039A00000F09986FF2B1946204617F801AFE2D0A8
:1039B0001A460133EDE76C4FD4F8003107F10808DF
:1039C0004FF0000916E0D4F80831D4F80C2184F83F
:1039D000FF909847D4F824310133C4F824310022F1
:1039E0000123B845C4F8003104F802A084F804A10A
:1039F00000F0A686FF2B1946204617F801AFE2D04B
:103A00001A460133EDE7594FD4F8003107F10B089E
:103A10004FF0000916E0D4F80831D4F80C2184F8EE
:103A2000FF909847D4F824310133C4F824310022A0
:103A30000123B845C4F8003104F802A084F804A1B9
:103A400000F0CC85FF2B1946204617F801ABE2D0D9
:103A50001A460133EDE7D4F80071FF2F12D14FF071
:103A600000083946D4F8083184F8FF80D4F80C21D6
:103A700020469847D4F82431C4F8008101334746E2
:103A8000C4F824317E237A1CC4F80021E35584F85D
:103A900004313146EA682046FFF784F805996A68E0
:103AA000FFF773B93146EA682046FFF77BF80599BE
:103AB0006A68FFF76AB9D5F80880D4F80031B8F120
:103AC000000F00F08B872A4E4FF0000906F1060A1E
:103AD00015E0D4F80831D4F80C2184F8FF90984709
:103AE000D4F824310133C4F8243100220123B24533
:103AF000C4F80031A75484F8047100F08F86FF2BBE
:103B00001946204616F8017BE3D01A460133EEE74A
:103B1000D4F81C31002B40F0D18605F10801204675
:103B2000FCF74AFE0246002801F0718203782F2B31
:103B300001F06282D4F810713B68C4F8103131464C
:103B40002046FFF72FF8C4F8107105996A68FFF74F
:103B50001CB900BF0B5B0608F75A0608E35A0608B3
:103B6000D45A0608AF5A0608A35A0608985A0608F7
:103B7000685C060800237107D4F81491D4F84481D6
:103B8000C4F81431C4F84451AF6805D53B781BB96B
:103B9000FA68062A01F033843A4631462046FFF798
:103BA00001F894F804313C2B01F00682D4F800713E
:103BB000FF2F12D14FF0000A3946D4F8083184F8AB
:103BC000FFA0D4F80C2120469847D4F82431C4F83B
:103BD00000A101335746C4F824313C237A1CC4F8B1
:103BE0000021E35584F804313146EA682046FEF7A7
:103BF000D9FF94F804313E2B01F06F80D4F80071A6
:103C0000FF2F11D100263946D4F8083184F8FF601F
:103C1000D4F80C2120469847D4F82431C4F8006128
:103C200001333746C4F824313E237A1CC4F80021FE
:103C3000E35584F80431C4F81491C4F8448105991B
:103C40006A68FFF7A2B8DA4FD4F8003107F111081B
:103C50004FF0000916E0D4F80831D4F80C2184F8AC
:103C6000FF909847D4F824310133C4F8243100225E
:103C70000123B845C4F8003104F802A084F804A177
:103C800000F0EB84FF2B1946204617F801AFE2D075
:103C90001A460133EDE7C74FD4F8003107F1150894
:103CA0004FF0000916E0D4F80831D4F80C2184F85C
:103CB000FF909847D4F824310133C4F8243100220E
:103CC0000123B845C4F8003104F802A084F804A127
:103CD00000F0CC84FF2B1946204617F801AFE2D044
:103CE0001A460133EDE7B44FD4F8003107F1190853
:103CF0004FF0000916E0D4F80831D4F80C2184F80C
:103D0000FF909847D4F824310133C4F824310022BD
:103D10000123B845C4F8003104F802A084F804A1D6
:103D200000F08984FF2B1946204617F801AFE2D036
:103D30001A460133EDE7A14FD4F8003107F1160818
:103D40004FF0000916E0D4F80831D4F80C2184F8BB
:103D5000FF909847D4F824310133C4F8243100226D
:103D60000123B845C4F8003104F802A084F804A186
:103D700000F06A84FF2B1946204617F801AFE2D005
:103D80001A460133EDE78E4FD4F8003107F11308DE
:103D90004FF0000916E0D4F80831D4F80C2184F86B
:103DA000FF909847D4F824310133C4F8243100221D
:103DB0000123B845C4F8003104F802A084F804A136
:103DC00000F02784FF2B1946204617F801AFE2D0F8
:103DD0001A460133EDE77B4FD4F8003107F10F08A5
:103DE0004FF0000916E0D4F80831D4F80C2184F81B
:103DF000FF909847D4F824310133C4F824310022CD
:103E00000123B845C4F8003104F802A084F804A1E5
:103E100000F00884FF2B1946204617F801AFE2D0C6
:103E20001A460133EDE7684FD4F8003107F11A085C
:103E30004FF0000916E0D4F80831D4F80C2184F8CA
:103E4000FF909847D4F824310133C4F8243100227C
:103E50000123B845C4F8003104F802A084F804A195
:103E600000F0C583FF2B1946204617F801AFE2D0BA
:103E70001A460133EDE7554FD4F8003107F1110828
:103E80004FF0000916E0D4F80831D4F80C2184F87A
:103E9000FF909847D4F824310133C4F8243100222C
:103EA0000123B845C4F8003104F802A084F804A145
:103EB00000F0A683FF2B1946204617F801AFE2D089
:103EC0001A460133EDE7D4F81C71D5F80890002F9D
:103ED00040F0AE8599F80020052A01F0808199F81C
:103EE0000030232B00F0A0852A789A4200F09C85B0
:103EF000242B01F06281D4F814C1A94618ABD4F880
:103F0000102143F840CD0021CDE90A12CDF82490CC
:103F1000C4F81431D9F8082010E0002218ABD4F806
:103F2000141143F8401DD4F8101109950020C4F86D
:103F30001431CDE90A01A946002AEBD031462046CA
:103F4000FEF730FE0A9B23B94A463146204601F06F
:103F5000BFFC089BC4F814310FB1C4F81081059957
:103F60006A68FEF712BFD4F814C16346BCF1000FB3
:103F7000C3D0996851B95A681278A2F1190EBEF1EE
:103F8000020F01F2FC80904201F0F0801B68002BD0
:103F9000EFD1B2E7D5E90267002F3EF4F6AE374421
:103FA000D4F80031013F013E4FF0000827E000BF88
:103FB000AF5B0608975B06087B5B0608635B060839
:103FC0004F5B06083F5B0608235B06080F5B06088D
:103FD000D4F80831D4F80C2184F8FF809847D4F83D
:103FE00024310133C4F8243100220123B742C4F83C
:103FF000003104F8029084F8049100F0CE83FF2B86
:104000001946204616F8019FE2D01A460133EDE723
:104010003146AA682046FEF7C5FD05996A68FEF795
:10402000B4BE16F00406A86840F00585D0E9007318
:10403000002B3EF4AAAE07EB030808F1FF38D4F8D2
:104040000031013FB14615E0D4F80831D4F80C2115
:1040500084F8FF909847D4F824310133C4F8243110
:1040600000220123B845C4F80031A65484F8046145
:1040700000F04585FF2B1946204617F8016FE3D065
:104080001A460133EEE7D5F80880D4F814310293CC
:104090000022C4F81421B8F1000F25D0D4F8103153
:1040A00001930DF12009234617464446924649469E
:1040B000AB4698462578019B0A602846C1E9014A2B
:1040C000CB6001370A46FCF77FF9002800F0C8876B
:1040D000A468002C01F05780042F01F11001E9D1F0
:1040E00044465D46C8F814210123C4F818310599E7
:1040F0006A68FEF74ABE16F00406AF6840F0058411
:10410000EB68002B3EF441AE07EB030808F1FF38E3
:10411000D4F80031013FB14615E0D4F80831D4F8A5
:104120000C2184F8FF909847D4F824310133C4F867
:10413000243100220123B845C4F80031A65484F884
:10414000046100F0E084FF2B1946204617F8016F48
:10415000E3D01A460133EEE7AA6831462046FEF75F
:1041600021FD16F0040900F08186D4F80071FF2FBC
:1041700012D14FF000083946D4F8083184F8FF8096
:10418000D4F80C2120469847D4F82431C4F8008193
:1041900001334746C4F824312E237A1CC4F8002189
:1041A000E35584F80431EF683B78462B00F03A87FA
:1041B0003A4631462046FEF7F5FC05996A68FEF757
:1041C000E4BD0123C4F818316A68FEF7DEBD01378B
:1041D0004F457EF42BAE039D05996A68FEF7D5BD69
:1041E0003146AA682046FEF7DDFC05996A68FEF7AD
:1041F000CCBD3146AA682046FEF7D4FCD4F8007145
:10420000FF2F11D100263946D4F8083184F8FF6019
:10421000D4F80C2120469847D4F82431C4F8006122
:1042200001333746C4F824317A1C2923C4F800210D
:10423000E35584F804316A680599FEF7A6BDD4F801
:104240001C31AA68D34F01333146C4F81C312046D3
:10425000FEF7A8FCD4F81C21D4F80031013AC4F8C8
:104260001C21BE1C4FF0000815E0D4F80831D4F82A
:104270000C2184F8FF809847D4F824310133C4F826
:10428000243100220123B742C4F8003104F802901F
:1042900084F8049111D0FF2B1946204617F8019B92
:1042A000E3D01A460133EEE73146AA682046FEF70E
:1042B00079FC05996A68FEF768BDEA68B64901327B
:1042C00008A851F0A5F808A802F05CFD28B308AED4
:1042D000D4F8003137184FF0000815E0D4F8083151
:1042E000D4F80C2184F8FF809847D4F824310133A6
:1042F000C4F8243100220123BE42C4F8003104F87E
:10430000029084F804910AD0FF2B1946204616F833
:10431000019BE3D01A460133EEE7D4F80031FF2BBE
:1043200010D10026194684F8FF60D4F80831D4F87B
:104330000C2120469847D4F82431C4F80061013399
:10434000C4F82431D4F800210599501C7D23C4F809
:104350000001A35484F804316A68FEF716BD3146A3
:10436000AA682046FEF71EFC05996A68FEF70DBD97
:10437000AA688949013208A851F04AF808A802F051
:1043800001FD002871D008AED4F8003137184FF085
:10439000000815E0D4F80831D4F80C2184F8FF8027
:1043A0009847D4F824310133C4F824310022012382
:1043B000B742C4F8003104F8029084F8049156D052
:1043C000FF2B1946204616F8019BE3D01A4601330D
:1043D000EEE73146EA682046FEF7E4FBD4F80071C8
:1043E000FF2F11D100263946D4F8083184F8FF6038
:1043F000D4F80C2120469847D4F82431C4F8006141
:1044000001333746C4F824317A1C5D23C4F80021F7
:10441000E35584F804316A680599FEF7B6BC314665
:10442000EA682046FEF7BEFBD4F80071FF2F11D1D9
:1044300000263946D4F8083184F8FF60D4F80C21FE
:1044400020469847D4F82431C4F800610133374638
:10445000C4F824317A1C5D23C4F80021E35584F8A4
:1044600004316A680599FEF790BCD4F80031FF2B3F
:1044700010D10026194684F8FF60D4F80831D4F82A
:104480000C2120469847D4F82431C4F80061013348
:10449000C4F82431D4F800210599501C7D23C4F8B8
:1044A0000001A35484F804316A68FEF76EBC3146FB
:1044B000AA682046FEF776FB05996A68FEF765BC98
:1044C00005996A68FEF761BC3146AA682046FEF786
:1044D00069FB05996A68FEF758BC3146EA682046D0
:1044E000FEF760FB05996A68FEF74FBCD4F84421DB
:1044F0003AB118ABD4F8101143F8401D0992C4F832
:104500001031AA681378042B00F0D6843146204677
:10451000FEF748FBD4F8443113B1089BC4F81031BE
:1045200005996A68FEF731BCDAF804603278613ABE
:10453000192A1DD8FF2B10D10026194684F8FF60D8
:10454000D4F80831D4F80C2120469847D4F8243107
:10455000C4F800610133C4F82431D4F800212023C9
:10456000511CC4F80011A35484F80431DAF8046033
:10457000F31913F8013C202B08BF07F1FF37002F78
:1045800000F0FB86013ED4F8003137444FF00008BC
:104590001BE000BFBC5C06081C5A0608D4F80831B2
:1045A000D4F80C2184F8FF809847D4F824310133E3
:1045B000C4F8243100220123BE42C4F8003104F8BB
:1045C000029084F8049100F0EC80FF2B19462046FD
:1045D00016F8019FE2D01A460133EDE73146AA688A
:1045E0002046FEF7DFFA05996A68FEF7CEBB314632
:1045F000AA682046FEF7D6FA05996A68FEF7C5BB99
:104600003146AA682046FEF7CDFA05996A68FEF79A
:10461000BCBB3146AA682046FEF7C4FA05996A6811
:10462000FEF7B3BB3146AA682046FEF7BBFA0599F0
:104630006A68FEF7AABB3146AA682046FEF7B2FABE
:1046400005996A68FEF7A1BB3146AA682046FEF7C5
:10465000A9FA05996A68FEF798BB3146AA68204610
:10466000FEF7A0FA05996A68FEF78FBBCF4FEA689C
:1046700031462046FEF796FA07F10508D4F80031D6
:104680004FF0000915E0D4F80831D4F80C2184F873
:10469000FF909847D4F824310133C4F82431002224
:1046A00001234745C4F8003104F802A084F804A1AE
:1046B00008D0FF2B1946204617F801ABE3D01A4665
:1046C0000133EEE73146AA682046FEF76BFA0599FA
:1046D0006A68FEF75ABBB64FAA6831462046FEF715
:1046E00061FA07F10408D4F800314FF0000915E031
:1046F000D4F80831D4F80C2184F8FF909847D4F806
:1047000024310133C4F8243100220123B845C4F810
:10471000003104F802A084F804A108D0FF2B194648
:10472000204617F801ABE3D01A460133EEE73146D5
:10473000EA682046FEF736FA05996A68FEF725BB57
:104740003146AA682046FEF72DFA05996A68FEF7F9
:104750001CBB3146AA682046FEF724FA05996A6810
:10476000FEF713BB3146AA682046FEF71BFA0599EF
:104770006A68FEF70ABB3146AA682046FEF712FABD
:1047800005996A68FEF701BB3146AA682046FEF724
:1047900009FA05996A68FEF7F8BA05996A68FEF79A
:1047A000F4BA05996A68FEF7F0BA3146EA680193EF
:1047B0002046D4F82461FEF7F5F9D4F82421019BB2
:1047C000964200F0418405996A68FEF7DEBA794E98
:1047D000904606F1060914E0D4F80831D4F80C210B
:1047E00084F8FF809847D4F824310133C4F8243189
:1047F00000220123B145C4F80031A75484F80471A4
:1048000008D0FF2B1946204616F8017BE4D01A4643
:104810000133EFE705996A68FEF7B7BA424608A880
:10482000654950F0F5FD08A802F0ACFA28B308AECF
:10483000D4F8003106EB00094FF0000814E0D4F87A
:104840000831D4F80C2184F8FF809847D4F824313B
:104850000133C4F8243100220123B145C4F80031EA
:10486000A75484F8047108D0FF2B1946204616F887
:10487000017BE4D01A460133EFE7D4F80071FF2F33
:1048800011D100263946D4F8083184F8FF60D4F8F5
:104890000C2120469847D4F82431C4F80061013334
:1048A0003746C4F824317A1C7D23C4F80021E3552F
:1048B00084F804316A680599FEF767BA3F4ED4F868
:1048C000003106F105094FF0000815E0D4F8083171
:1048D000D4F80C2184F8FF809847D4F824310133B0
:1048E000C4F8243100220123B145C4F80031A75493
:1048F00084F8047100F0CF80FF2B1946204616F88B
:10490000017BE3D01A460133EEE7EE683E44BE4237
:104910007EF63BAA4FF0000818E0D4F8083184F87E
:10492000FF80D4F80C2120469847D4F82431013375
:10493000C4F8243100210123C4F8003104F80190A7
:1049400084F804910137BE4240F2E180F31B032B4F
:1049500097F8009002DDB9F15F0F05D0D4F800118F
:10496000FF29DAD04B1CE7E77B785F2BF6D1BB78C9
:10497000552BF3D1F91C002002E0134603EB001085
:104980008E428A46EAD911F8013BA3F130025FFA60
:1049900082FEBEF1090FA3F1410CEED9BCF1050F67
:1049A000A3F1610200F2C785373BE7E7905B060899
:1049B000CC5A0608F05B06081C5A0608905A0608EE
:1049C00005996A68FEF7E1B9AA6801921946002BB9
:1049D0007EF426AA05996A68FEF7D7B9CE4E06F18D
:1049E000040914E0D4F80831D4F80C2184F8FF80CD
:1049F0009847D4F824310133C4F82431002201232C
:104A0000B145C4F80031A75484F8047108D0FF2BD5
:104A10001946204616F8017BE4D01A460133EFE729
:104A200005996A68FEF7B1B9D4F814C1FFF766BA00
:104A30000027FFF754BAD0E90267002F3EF4A5A97A
:104A40003744D4F80031013F013E4FF0000915E032
:104A5000D4F80831D4F80C2184F8FF909847D4F8A2
:104A600024310133C4F8243100220123B742C4F8B1
:104A7000003104F8028084F8048108D0FF2B194625
:104A8000204616F8018FE3D01A460133EEE7059968
:104A90006A68FEF77AB9AA68A049013208A850F0FE
:104AA000B7FC08A802F06EF928B308AED4F80031BC
:104AB00006EB00094FF0000814E0D4F80831D4F8F0
:104AC0000C2184F8FF809847D4F824310133C4F8CE
:104AD000243100220123B145C4F80031A75484F8E1
:104AE000047108D0FF2B1946204616F8017BE4D04C
:104AF0001A460133EFE705996A68FEF746B905994A
:104B00006A68FEF742B905996A68FEF73EB90599E9
:104B10006A68FEF73AB9DB681B783B2B7EF4F6AB8C
:104B200005F10C03AA683146204601F095FD804648
:104B3000002840F0A086D5E90272B968D3680868F9
:104B40007749D2F808B0D3E902A902F011F9002898
:104B500000F07486042273492046FBF7FFFBDBF864
:104B6000083003B35A463146204601F023FDD4F8FD
:104B70000071FF2F10D13946D4F8083184F8FF8036
:104B8000D4F80C2120469847D4F82431C4F8008189
:104B900001334746C4F8243120237A1CC4F800218D
:104BA000E35584F80431524631462046FDF7FAFFBA
:104BB000B9F1000F00F063864A463146204601F005
:104BC000F9FC05996A68FEF7E0B8D9F8083056494B
:104BD000D3F800A0504602F0CBF898F8003010B996
:104BE000032B00F02B85382B00F00C854F495046E5
:104BF00002F0BEF80746002800F013854C495046E5
:104C000002F0B6F8002800F03383314620464A46C9
:104C100001F090FC4749504602F0AAF8002800F045
:104C2000B0835046444902F0A3F8814600287EF440
:104C3000D7ABD4F80071FF2F10D184F8FF003946AC
:104C4000D4F80831D4F80C2120469847D4F8243100
:104C5000C4F8009101334F46C4F82431781C28234E
:104C6000C4F800014246E3553146204684F8043139
:104C7000FDF798FFD4F80071FF2F11D100263946B7
:104C8000D4F8083184F8FF60D4F80C212046984706
:104C9000D4F82431C4F8006101333746C4F8243114
:104CA0007A1C2923C4F80021E35584F804316A688A
:104CB0000599FEF76AB805F10C024146204601F05D
:104CC00035F9AA68002A00F0FD8341462046FDF729
:104CD00069FF05996A68FEF758B8D4F80071FF2F8C
:104CE00011D100263946D4F8083184F8FF60D4F891
:104CF0000C2120469847D4F82431C4F800610133D0
:104D00003746C4F8243120237A1CC4F80021E35527
:104D100084F80431FEF772BF605C06081C5A06086E
:104D2000305A06082C5C0608145C0608185C060855
:104D3000205A06081C5C06082C5F06089B6893F83E
:104D40001080B8F1000F3EF489AAB8F1060F40F2C6
:104D50003F84B8F1070F7EF481AAEB681A78002A25
:104D60007EF47CAADA68012A7EF478AA3C287EF4D4
:104D700075AA9B681B78302B00F0B684312B7EF42B
:104D80006DAA0422C3492046FBF7E8FA05996A6830
:104D9000FDF7FBBFD4F80071FF2F12D14FF00008D0
:104DA0003946D4F8083184F8FF80D4F80C21204625
:104DB0009847D4F82431C4F8008101334746C4F839
:104DC00024317A1C5B23C4F80021E35584F80431B4
:104DD0003146EA682046FDF7E5FED4F80071FF2F62
:104DE00011D100263946D4F8083184F8FF60D4F890
:104DF0000C2120469847D4F82431C4F800610133CF
:104E00003746C4F824317A1C5D23C4F80021E355E9
:104E100084F804316A680599FDF7B7BF591C292247
:104E2000C4F80011E25484F804212B783D2B7EF461
:104E300057AAFF290FD10027D4F8083184F8FF7052
:104E4000D4F80C2120469847D4F82431C4F80071D6
:104E50000133C4F82431D4F800212D23511CC4F8A7
:104E60000011A35484F80431FEF73ABA8A4FD4F8FB
:104E7000003107F1020A16E0D4F80831D4F80C2109
:104E800084F8FF909847D4F824310133C4F82431D2
:104E900000220123BA45C4F8003104F8028084F8E6
:104EA00004813FF480A9FF2B1946204617F8018B97
:104EB000E2D01A460133EDE7926831462046FDF70D
:104EC00071FED4F8443113B1089BC4F8103194F842
:104ED00004313C2B00F0C482D4F80071FF2F12D1B2
:104EE0004FF000083946D4F8083184F8FF80D4F830
:104EF0000C2120469847D4F82431C4F800810133AE
:104F00004746C4F824313C237A1CC4F80021E355F9
:104F100084F80431AB683146DA682046FDF742FE7A
:104F200094F804313E2B00F07D82D4F80071FF2FFD
:104F300011D100263946D4F8083184F8FF60D4F83E
:104F40000C2120469847D4F82431C4F8006101337D
:104F50003746C4F824313E237A1CC4F80021E355B7
:104F600084F80431FFF7DCBA4C4FD4F8003107F174
:104F700005094FF0000A16E0D4F80831D4F80C21E6
:104F800084F8FFA09847D4F824310133C4F82431C1
:104F900000220123B945C4F8003104F8028084F8E6
:104FA00004813EF441ABFF2B1946204617F8018BD4
:104FB000E2D01A460133EDE7D4F80071FF2F12D189
:104FC0004FF0000A3946D4F8083184F8FFA0D4F82D
:104FD0000C2120469847D4F82431C4F800A10133AD
:104FE0005746C4F8243120237A1CC4F80021E35525
:104FF00084F80431FEF7DABDD4F820110029FEF65A
:1050000099ADFBF7C3FB024600287EF493AD012364
:10501000C4F818316A680599FDF7B7BE05996A6842
:10502000FDF7B3BE0D221E492046FBF797F9F9683C
:1050300020460131FBF784FC03221A492046FBF786
:105040008DF9BF68FFF7B4B8D4F8000105996A6814
:10505000B8427DF49AAE013BC4F80031FDF795BE2D
:1050600042465B46AB46BBF1040FA0461D461446C4
:10507000C2F8141100F0A382BBF1020F37D1D8F8A7
:105080000CA09AF80030462B00F0278309EB07129A
:105090000C3A20E09C3F06086C5A0608E05B0608C4
:1050A000705A0608805A0608042F3FF41DA89BE892
:1050B0000F008CE80F0000234EF80C3C4EF810ACAB
:1050C000019BDAF808A0C4F814C101374EF804BCFB
:1050D0004EF8083C72469AF80000FBF775F9A2F109
:1050E000040B02F1100E02F10C0C0028DCD1EA686E
:1050F00031462046FDF756FD98F80030042B04BFDA
:10510000069BC4F810313F014FF0200AA84609EB76
:10511000070B5BF8085C0DBBD4F80031FF2B204671
:1051200019460ED1D4F80831D4F80C2184F8FF5078
:105130009847D4F82431C4F800515A1CC4F82421EB
:105140002B46591CC4F800115BF80C2C04F803A082
:105150003146204684F804A100F0BAFB103FD6D1B6
:10516000029BC4F814314546FEF7C1BF3146AA6818
:105170002046FDF717FD05996A68FDF706BE0F4644
:10518000A946FEF7BBBE44465D46C8F81411FEF7BB
:10519000ABBFEA6831462046FDF704FD0A9B019A41
:1051A000C4F81421002B3EF419ABFEF71FBB0123FA
:1051B0006446CCF81831FEF719BBD9F80820FEF781
:1051C000ADBE3146AA68204601F0F4F90322BF497A
:1051D0002046FBF7C3F805996A68FDF7D6BDD4F8F9
:1051E00030E1D4F82C21BEF1000F17DD10688145A5
:1051F00000F0A78102F1080BBC460191704604E063
:1052000052F83C10894500F09D810CF1010C60457D
:10521000DA460BF1080BF3D101998646D4F8343104
:105220009E4580F244830EF1010302EBCE0CC4F8DC
:105230003031D4F8100142F83E900CF1040C0028F3
:1052400000F05B82D4F83C21D4F840319A4202F15C
:10525000010E80F22C83D4F83831C4F83CE103EB22
:10526000C20342685A60CCF8003000689C46E6E70A
:105270000646474601E0FF681FB33B782F2B20D13D
:10528000BB68F3B11A784A2A18BF0136F3D199687E
:105290002046FBF7A1FA002800F0EF8103782F2BBE
:1052A00040F0EB81836853B1002304E002782F2A99
:1052B00005D182681AB1C06801330028F6D11E44B6
:1052C000D9E731462046FBF73BFB05996A68FDF7B5
:1052D0005CBD3146204601F02DF9D4F80071FF2F56
:1052E00012D14FF000083946D4F8083184F8FF8015
:1052F000D4F80C2120469847D4F82431C4F8008112
:1053000001334746C4F824317A1C3C23C4F80021F9
:10531000E35584F80431EB6831469A682046FDF77E
:1053200041FC02226A492046FBF718F8EB68314637
:10533000DA682046FDF736FCD4F80071FF2F11D152
:1053400000263946D4F8083184F8FF60D4F80C21DF
:1053500020469847D4F82431C4F800610133374619
:10536000C4F824317A1C2923C4F80021E35584F8B9
:1053700004316A680599FDF708BD05996A68FDF76B
:1053800004BD424631462046FDF70CFC05996A688B
:10539000FDF7FBBC18A9204641F8403DD4F8103178
:1053A000C4F8141141460A960B930995FDF7FAFBD0
:1053B0000A9E089BC4F81431EEB9D4F80071FF2F8F
:1053C00010D13946D4F8083184F8FF60D4F80C21A4
:1053D00020469847D4F82431C4F800610133374699
:1053E000C4F8243120237A1CC4F80021E35584F842
:1053F0000431FEF70CBA05996A68FDF7C6BC354959
:10540000B86851F007F800287EF4C6AB3146EA6868
:105410002046FDF7C7FB02222F492046FAF79EFFE0
:10542000FEF709BCD4F80071FF2F11D100263946D0
:10543000D4F8083184F8FF60D4F80C21204698474E
:10544000D4F82431C4F8006101333746C4F824315C
:1054500020237A1CC4F80021E35584F8043164E564
:10546000D4F80071FF2F12D14FF000083946D4F85C
:10547000083184F8FF80D4F80C2120469847D4F8EE
:105480002431C4F8008101334746C4F82431202375
:105490007A1CC4F80021E35584F804311CE5404629
:1054A0000E4901F065FC002840F0FB81EB683146B5
:1054B000DA68204601F07EF8FDF760BC05996A685D
:1054C000FDF763BC05996A68FDF75FBC5C5C060884
:1054D000205C0608845A06088C5A0608245A0608D6
:1054E0009B689A68012A7DF44EAC5B681B783E2B62
:1054F0007DF449ACD4F80071FF2F11D10026394654
:10550000D4F8083184F8FF60D4F80C21204698477D
:10551000D4F82431C4F8006101333746C4F824318B
:105520007A1C2923C4F80021E35584F804316A6801
:105530000599FDF72ABC052A00F2A980573BFFF721
:105540001DBA92461A4601E0526842B31168894575
:1055500003D08D42F8D19A42F6D009F108012046D5
:10556000FBF72AF9814698B199F800302F2B7EF489
:10557000B6ACD4F820110029FEF6B6AC4846FBF7CD
:1055800005F9814600287EF4AAAC0FB1C4F8108159
:105590000123C4F818316A680599FDF7F6BBDAF8FB
:1055A0000430D4F81081C4F8103109F10801204604
:1055B000FBF702F9012781460028D5D1E6E718ABB1
:1055C000019A43F8482DCDF81C80C4F810318EE5BF
:1055D000EB6893F80090B9F1000F7DF43FAE3D28E1
:1055E00000F0E6803146EA682046A8F10208FDF79F
:1055F000D9FAB8F1040F00F2D780DFE808F0B493CD
:105600008A813500D8F808203146204600F0D2FFC4
:105610004A463146204600F08DFF05996A68FDF73D
:10562000B4BB41462046FBF7D7F8A8B103782F2B2F
:1056300012D1836883B1C0680137F6E7D8F8083023
:105640001A78012A7FF4D2AAD8F80C201278292AD5
:1056500008BF9846FFF7CABA39462046FBF770F9EB
:1056600005996A68FDF791BB032294492046FAF731
:1056700075FE05996A68FDF788BB00231E44FAE5AC
:105680004A463146204600F055FFFDF7A9BE5F2B84
:10569000D4F800117FF464A9FF283FF661A9FF291F
:1056A0005FFA80F90FD1D4F8083184F8FF80D4F87C
:1056B0000C2120469847D4F82431C4F800810133E6
:1056C000C4F8243100214B1CC4F80031574604F8BB
:1056D000019084F80491FFF735B9DAF808A0BAF11F
:1056E000000F3EF401ADD1E4052275492046FAF7DA
:1056F00035FE05996A68FDF748BBCCF800002CE739
:10570000022270492046FAF729FE05996A68FDF7DA
:105710003CBB02226C492046FAF720FE05996A68D4
:10572000FDF733BBD4F80071FF2F11D100263946A5
:10573000D4F8083184F8FF60D4F80C21204698474B
:10574000D4F82431C4F8006101333746C4F8243159
:105750007A1C6C23C4F80021E35584F804316A688C
:105760000599FDF712BBD4F80071FF2F11D1002667
:105770003946D4F8083184F8FF60D4F80C2120466B
:105780009847D4F82431C4F8006101333746C4F88F
:1057900024317A1C7523C4F80021E35584F80431C0
:1057A0006A680599FDF7F1BA05996A68FDF7EDBADF
:1057B000D4F80071FF2F10D13946D4F8083184F89D
:1057C000FF90D4F80C2120469847D4F82431C4F82F
:1057D000009101334F46C4F824312D237A1CC4F8BC
:1057E0000021E35584F80431FCE69A6891680129A8
:1057F0007DF469AA526812783E2A7DF464AAD4F82E
:105800000071FF2F10D184F8FF003946D4F8083119
:10581000D4F80C2120469847D4F82431C4F80081EC
:1058200001334746C4F8243128237A1CC4F80021E8
:10583000E35584F80431AB68FDF745BA5A46314662
:10584000204600F0B7FE3A463146204600F072FE90
:1058500052463146204600F0ADFE03221B49204649
:10586000FAF77CFD4A463146204600F0A3FE059932
:105870006A68FDF78ABA05996A68FDF786BA0599DC
:105880006A68FDF782BAD3681B78292B1CBF0123F5
:10589000C4F8183192683146204600F08BFEFDF7BF
:1058A00022BA3A463146204600F044FEFEE5012386
:1058B000C4F818316A68FDF768BA00BF3C5C060896
:1058C000A43F0608385C0608345C0608285C060815
:1058D0001378033B2DE9F047154604460E464C2B42
:1058E00000F2C882DFE813F07500C602C602C602E5
:1058F000C602C602C602C602C602C602C602C60268
:10590000C602C602C602C602C602C602C602C60257
:10591000C602C6027A00A100C8007A00A100C80031
:10592000EE000A01260148016601790252029F0237
:10593000C602C602C602C6028401C602CC01C60265
:10594000C602C602C602C602C602C602C602C60217
:10595000C602C602C602C602C602C602C602C60207
:10596000C602C602C602C602C602C602C602C602F7
:10597000C602C602C602C602C602F401C6022A0256
:105980004D00D74FD0F8003107F106084FF000095D
:1059900016E0D4F80831D4F80C2184F8FF90984729
:1059A000D4F824310133C4F82431002201234745BF
:1059B000C4F8003104F802A084F804A100F05F826A
:1059C000FF2B1946204617F801ABE2D01A460133E7
:1059D000EDE7AA68BDE8F047FDF7E4B8C14DD0F89F
:1059E000003105F10906002716E0D4F80831D4F893
:1059F0000C2184F8FF709847D4F824310133C4F89F
:105A0000243100220123AE42C4F8003104F80280A0
:105A100084F8048100F0EA80FF2B1946204615F82F
:105A2000018FE2D01A460133EDE7AF4DD0F80031D7
:105A300005F10906002716E0D4F80831D4F80C2146
:105A400084F8FF709847D4F824310133C4F8243126
:105A500000220123AE42C4F8003104F8028084F829
:105A6000048100F0C380FF2B1946204615F8018FF2
:105A7000E2D01A460133EDE79C4DD0F80031AE1D5F
:105A8000002716E0D4F80831D4F80C2184F8FF7010
:105A90009847D4F824310133C4F82431002201237B
:105AA000B542C4F8003104F8028084F8048100F0A3
:105AB0009D80FF2B1946204615F8018BE2D01A462F
:105AC0000133EDE7D0F80011FF290FD10025D0F800
:105AD000083180F8FF50D0F80C219847D4F82431D1
:105AE000C4F8005101332946C4F8243120224B1C4C
:105AF000C4F80031625484F804215DE0D0F800114C
:105B0000FF290FD10025D0F8083180F8FF50D0F8D8
:105B10000C219847D4F82431C4F8005101332946A8
:105B2000C4F8243120224B1CC4F80031625484F89C
:105B3000042154E1D0F80011FF290FD10027D0F83B
:105B4000083180F8FF70D0F80C219847D4F8243140
:105B5000C4F8007101333946C4F824314A1C2023AB
:105B6000C4F80021635484F804313146EA682046C1
:105B7000BDE8F047FDF716B811F0040636D1D0F8AD
:105B80000011FF290ED1D0F8083180F8FF60D0F85D
:105B90000C219847D4F82431C4F800610133314610
:105BA000C4F824312A234A1CC4F80021635484F821
:105BB00004311BE0D0F80031FF2B40F0A981002513
:105BC0001946D4F80C21D4F8083184F8FF50204647
:105BD0009847D4F824315A1CC4F824212B460121BB
:105BE0002622C4F80011E25484F80421BDE8F087AD
:105BF00090F80431282B19D0D0F80011FF2940F07B
:105C00008B810027D0F80831D0F80C2180F8FF7084
:105C10009847D4F8243101333946C4F8243101229D
:105C20002023C4F80021635484F80431AA68304D5D
:105C300031462046FCF7B6FFEE1CD4F800310027B1
:105C400015E0D4F80831D4F80C2184F8FF70984797
:105C5000D4F824310133C4F8243100220123AE42A8
:105C6000C4F8003104F8028084F80481BED0FF2B10
:105C70001946204615F8018BE3D01A460133EEE7AA
:105C80001C4FD0F8003107F10A084FF0000916E068
:105C9000D4F80831D4F80C2184F8FF909847D4F850
:105CA00024310133C4F8243100220123B845C4F85B
:105CB000003104F802A084F804A100F01E81FF2B3B
:105CC0001946204617F801ABE2D01A460133EDE73A
:105CD000094DD0F8003105F11106002725E000BF7D
:105CE0001C5D0608DB5C0608E75C0608F45C060839
:105CF000405D0608445D0608FB5C0608D4F80831E0
:105D0000D4F80C2184F8FF709847D4F8243101337B
:105D1000C4F8243100220123AE42C4F8003104F853
:105D2000028084F804813FF461AFFF2B19462046BE
:105D300015F8018FE2D01A460133EDE7774FD0F81E
:105D4000003107F109084FF0000916E0D4F80831D6
:105D5000D4F80C2184F8FF909847D4F8243101330B
:105D6000C4F82431002201234745C4F8003104F867
:105D700002A084F804A100F08280FF2B194620467F
:105D800017F801AFE2D01A460133EDE7644DD0F8C1
:105D9000003105F10806002716E0D4F80831D4F8E0
:105DA0000C2184F8FF709847D4F824310133C4F8EB
:105DB000243100220123AE42C4F8003104F80280ED
:105DC00084F804813FF412AFFF2B1946204615F8E2
:105DD000018FE2D01A460133EDE7D0F80031514D82
:105DE0000027AE1C16E0D4F80831D4F80C2184F852
:105DF000FF709847D4F824310133C4F824310022CD
:105E00000123B542C4F8003104F8028084F804810B
:105E10003FF4ECAEFF2B1946204615F8018BE2D07B
:105E20001A460133EDE7404DD0F8003105F10A067E
:105E3000002716E0D4F80831D4F80C2184F8FF705C
:105E40009847D4F824310133C4F8243100220123C7
:105E5000B542C4F8003104F8028084F804813FF4AC
:105E6000C5AEFF2B1946204615F8018BE2D01A4625
:105E70000133EDE72A46BDE8F047FCF793BEEA6838
:105E8000002A3FF4B3AEFF2B44D100271946D4F8C3
:105E90000C21D4F8083184F8FF7020469847D4F8D4
:105EA0002431EA68591CC4F824113B4601212825F5
:105EB000C4F8001120463146E55484F80451FCF73B
:105EC00071FED4F80011FF2920D10025D4F8083143
:105ED000D4F80C2184F8FF5020469847D4F8243198
:105EE00001332946C4F8243101222923C4F80021B2
:105EF000635484F80431BDE8F0873146AA6820462F
:105F0000FCF750FED4F80011FF29DED04A1CECE764
:105F1000591C65E6591CCAE74A1C81E60F5D060854
:105F2000275D0608245D0608345D06082DE9F84360
:105F300004460E4617461D46D3B19B68C3B92A4690
:105F40000120DFF8C8C101E093688BB953681B7862
:105F5000193BDBB2122B00FA03F106D811EA0C0F41
:105F600040F0C78011F4606F54D11268002AEBD161
:105F70000023D4F81481C4F8143131462A4620464F
:105F800000F0C6F8D4F80011FF2940F0A4800023E7
:105F900084F8FF30D4F80C21D4F808312046984713
:105FA0002823237084F80431D4F824313A68591C2A
:105FB0000123C4F82411C4F80031002A00F09780AE
:105FC00031462046FCF7EEFDD4F80031FF2B40F0BF
:105FD0008E8000271946D4F80C21D4F8083184F8B3
:105FE000FF7020469847D4F824315A1CC4F8242165
:105FF0003B4601222920C4F800213146E0542A46BC
:1060000084F804010123204600F082F8C4F81481CA
:10601000BDE8F88394F80431D4F8001103F0FD02D0
:10602000282A1ED0202B1CD0FF2912D1002384F84F
:10603000FF30D4F80C21D4F8083120469847D4F822
:10604000243120220133C4F82431227001214A1C5A
:106050001AE04B1C2022C4F80031625484F8042159
:106060001946FF29F3D14FF00008D4F80831D4F8CD
:106070000C2184F8FF8020469847D4F8243101335E
:106080004146C4F8243101222823C4F80021635476
:106090004FF0000984F80431D4F81481C4F8149145
:1060A0004B462A463146204600F032F8D4F80031FB
:1060B000FF2B23D11946D4F80C21D4F8083184F8E9
:1060C000FF9020469847D4F8243129220133C4F8A0
:1060D00024312270012128224B1CC4F80031625463
:1060E00084F804213A68002A3FF470AF68E75A1C2C
:1060F00080E794F80431D4F8001193E72922591C61
:10610000C4F80011E25484F804213DE7073104008B
:10611000002A00F0AC802DE9F04F1F46D0F818316E
:1061200089B005464BBB884614464FF0010902E092
:10613000D5F818310BBBA368E3B9D4F804A09AF8DA
:106140000060304617B9FAF73FF998B9E368C4F828
:106150000890292ED5F810B1C5F8103152464146A5
:1061600028460DD02A2E15D0022E1DD0FFF7B0FBE9
:10617000C5F810B12468002CDAD109B0BDE8F08F61
:1061800023680AF10C02FFF7D1FEC5F810B109B07F
:10619000BDE8F08F23680AF1080200F0F1F8C5F8B5
:1061A00010B109B0BDE8F08F0026D5F81471DAF807
:1061B0000820C5F81461FCF7F5FCC5F8147118F057
:1061C00004072FD0D5F80011FF2940F0CF80D5F873
:1061D0000831D5F80C2185F8FF6028469847D5F896
:1061E000243101333146C5F8243101222E23C5F86C
:1061F00000216B5485F804316368DC6820784628F8
:1062000002D135E0A4682078FAF7DEF80028F9D149
:10621000224641462846FCF7C5FCC5F810B109B036
:10622000BDE8F08F524ED5F8003106F1020915E0B5
:10623000D5F80831D5F80C2185F8FF709847D5F8C6
:1062400024310133C5F8243100220123B145C5F8BA
:10625000003105F802A085F804A1CDD0FF2B194626
:10626000284616F801ABE3D01A460133EEE7704733
:10627000404ED5F8003106F10D074FF0000915E04A
:10628000D5F80831D5F80C2185F8FF909847D5F856
:1062900024310133C5F8243100220123B742C5F867
:1062A000003105F802A085F804A108D0FF2B19469B
:1062B000284616F801ABE3D01A460133EEE7E26850
:1062C0002D49013201A84FF0A3F801A800F05AFDB2
:1062D00028B301AED5F8003137184FF0000915E0AA
:1062E000D5F80831D5F80C2185F8FF909847D5F8F6
:1062F00024310133C5F8243100220123BE42C5F800
:10630000003105F802A085F804A10AD0FF2B194638
:10631000284616F801ABE3D01A460133EEE7D5F86C
:106320000031164E4FF00009F71C16E0D5F8083181
:10633000D5F80C2185F8FF909847D5F82431013322
:10634000C5F8243100220123B742C5F8003105F811
:1063500002A085F804A13FF455AFFF2B194628464B
:1063600016F801ABE2D01A460133EDE74A1C3DE7CF
:106370006C5A0608705A06081C5A0608805A060805
:106380002DE9F84F04460F4690465BB11E469D68C6
:10639000002D42D01B68002BF9D1324639462046E9
:1063A000FFF7B6FED4F80011FF2940F0B1800023BA
:1063B00084F8FF30D4F80C21D4F8083120469847EF
:1063C000D4F8243120220133C4F82431227001236F
:1063D0005B22591CC4F80011E25484F80421D8F857
:1063E0000020002A40D1FF2945D10025D4F80831EA
:1063F000D4F80C2184F8FF5020469847D4F8243173
:1064000001332946C4F8243101225D23C4F8002158
:10641000635484F80431BDE8F88F5B681B782A2B3D
:106420002BD12B46324639462046FFF771FED4F871
:106430000031FF2BCCD10022194684F8FF20D4F87C
:106440000831D4F80C21204698475B23237084F848
:106450000431D4F82431D8F8002001330121C4F8E4
:106460002431C4F8001132B139462046FCF79AFBBA
:10647000D4F80011B7E74A1CC7E7DFF8B490D4F8A6
:10648000003109F1020A16E0D4F80831D4F80C21E1
:1064900084F8FF509847D4F8243100220133C4F81F
:1064A0002431CA454FF00103C4F8003104F802B0AA
:1064B00084F804B110D0FF2B1946204619F801BB0F
:1064C000E2D01A46CA4503F10103C4F8003104F8CA
:1064D00002B084F804B1EED100233246394620469A
:1064E000FFF716FED4F80031FF2B19D10022194610
:1064F00084F8FF20D4F80831D4F80C2120469847BE
:10650000D4F8243129220133C4F824312270012126
:1065100020224B1CC4F80031625484F8042188E71F
:106520002922591CC4F80011E25484F804213BE7E5
:10653000585C06082DE9F0411578312D03D0BDE8EF
:10654000F041FCF72FBB9368D3E901567EB32E448C
:106550000446D0F80031013E013D002716E0D4F892
:106560000831D4F80C2184F8FF709847D4F824310E
:1065700000220133C4F82431B5424FF00103C4F8BE
:10658000003104F8028084F8048110D0FF2B1946F2
:10659000204615F8018FE2D01A46B54203F10103F7
:1065A000C4F8003104F8028084F80481EED1BDE81B
:1065B000F08100BF1378012B2DE9F041044641D949
:1065C000302B3FD0062B3DD0D0F80071FF2F0E4668
:1065D00015463ED14FF000083946D0F80831D0F8C2
:1065E0000C2180F8FF809847D4F8243101334746C6
:1065F000C4F8243101222823C4F800213146E35590
:106600002A46204684F80431FCF7CCFAD4F800116D
:10661000FF291CD10025D4F80831D4F80C2184F8C6
:10662000FF5020469847D4F8243101332946C4F856
:10663000243101222923C4F80021635484F8043151
:10664000BDE8F0812046BDE8F041FCF7ABBA4A1C3A
:10665000F0E77A1CCFE700BF2DE9F04F926812688F
:106660001678662E83B003D0002003B0BDE8F08F0B
:106670001B68D3E9028999F800303B2B00F01081A8
:10668000002301934FF0FF33D0F82071C0F8203180
:1066900053784C3B0D460446262B3AD8DFE803F0EE
:1066A000B03939393939B03939393939393939396C
:1066B000393939393939393939393939393939394A
:1066C0008939393939393F00424629462046FFF792
:1066D00031FF019A29462046FFF76CFFD4F80011DC
:1066E000FF2940F0EA800025D4F80831D4F80C21C5
:1066F00084F8FF5020469847D4F8243101332946C6
:10670000C4F8243101222923C4F80021635484F8F9
:1067100004310120C4F8207103B0BDE8F08FD0F837
:106720000011FF2940F0CB800026D0F80831D0F8C6
:106730000C2180F8FF609847D4F8243101333146AA
:10674000C4F8243101222823C4F8002120466354D0
:106750004A46294684F80431FFF72CFF2946594D53
:1067600042462046FFF7E6FE2E1DD4F800314FF0DA
:10677000000815E0D4F80831D4F80C2184F8FF8023
:106780009847D4F824310133C4F82431002201237E
:10679000AE42C4F8003104F8029084F80491B8D0F5
:1067A000FF2B1946204615F8019BE3D01A4601330A
:1067B000EEE7454ED0F8003106F1040A17E04FF03D
:1067C000000384F8FF30D4F80C21D4F8083198473E
:1067D000D4F824310133C4F8243100220123B24516
:1067E000C4F8003104F802B084F804B15ED0FF2B85
:1067F0001946204616F801BBE1D01A460133EEE7F0
:10680000D0F80031FF2B10D100261946D0F80C210A
:10681000D0F8083180F8FF609847D4F82431C4F8E4
:1068200000615A1CC4F824213346591C4FF0280C2F
:106830004A46C4F80011204604F803C0294684F8EB
:1068400004C1DFF88890FFF7B5FE4246294620468E
:10685000FFF770FE09F1030AD4F80031002616E0B4
:10686000D4F80831D4F80C2184F8FF609847D4F8A4
:1068700024310133C4F8243100220123D145C4F866
:10688000003104F802B084F804B13FF41DAFFF2BCF
:106890001946204619F801BBE2D01A460133EDE74C
:1068A000D9F80C300193D9F80890EBE64246294616
:1068B0002046FFF73FFE4A460CE74A1C23E74A1CE6
:1068C00041E700BF585D0608505D06085C5C06089D
:1068D0002DE9F04FE5B090F800A0BAF15F0F00AFDE
:1068E00005468846164600F0F3800822BB49284634
:1068F0004FF090FD48B92B7A2E2B00F0D8805F2BFB
:1069000000F0D580242B00F0D2804FF000092846FB
:1069100000F038FA4201830008320A33ADEB020D71
:1069200023F007030024EB462918ADEB030D1122D9
:106930004300B9F1010FC7F81CB0C7F828D0FD60BB
:10694000BD61386339617B627A613C62FC62C7E990
:106950000D44C7E90F447C6400F0A080C0F0BF8004
:10696000EA7AB9F1020F05F10B0A14BF4FF044099E
:106970004FF043095F2AC7F818A000F0B9805046CD
:106980007B6000F0FFF97B68002B40F3238100233C
:106990000122CBF804303A62002800F01B81CBE9D9
:1069A00002A08BF80030494600235A4607F10C003C
:1069B000F9F71EFCBC690546204600F0E3F92318F0
:1069C000BB6114F80090B9F1000F6AD1002D68D0B6
:1069D00007F148042A4607F5BE7107F5C470C4F8EC
:1069E0000881C4F80C61C4F8009184F80491C4F8DB
:1069F0001091C4F81491C4F82091C4F82491C4F8FB
:106A00001891C4F81C91C4F82891C4F82C91C4F8CA
:106A10003091C4F83491C4F83891C4F83C91C4F86A
:106A20004091F9F749FCD4F83431D4F84061C4F806
:106A30004491012B06FB03F61A46B8BF0122D2008F
:106A4000012E334602F10802B8BF0123E846DB00FD
:106A5000ADEB020D083369462A46ADEB030D204627
:106A6000C4F82C111121C4F838D1C4F84061FCF7E6
:106A700099F8D4F80011D4F8083104F801902046B0
:106A8000C546D4F80C219847D4F81801B0FA80F024
:106A9000400907F5CA77BD46BDE8F08FBAF15F0F30
:106AA00033D0002007F5CA77BD46BDE8F08F6B7A7A
:106AB000442B02D0492B7FF428AFAA7A5F2A7FF4B7
:106AC00024AF492B14BF4FF003094FF002091EE712
:106AD00043785A2B7FF409AF4FF0010917E707F10C
:106AE0000C00FAF705FEBB69054693F800906AE7CB
:106AF0002A7B5A2A7FF443AF0D35214607F10C005B
:106B0000BD61FBF737FD83464DE76B785A2BC8D143
:106B10000235494607F10C00BD61FBF72BFD7B698F
:106B2000DB07054652D5B86990F80090B9F12E0FF1
:106B30007FF449AF4378A3F16102192A3AD95F2B58
:106B400038D0303B092B41D8037802462E2B12D186
:106B50005378303B092B0ED89378A3F130010929E3
:106B600002F10202F2D812F8013FA3F13001092923
:106B7000F9D92E2BECD0D7E908139942BA6117DA6C
:106B8000D7F81CE04FEA011C0EEB0C030131121A7E
:106B90005C6039620CD05C600EF80C40C3E9020204
:106BA0002A464D2107F10C00F9F722FB0546BAE70A
:106BB0000023F5E7811C0A4611F8013BA3F1610CA3
:106BC000BCF1190FF7D95F2BF5D0BFE7BB6993F87C
:106BD0000090F8E64FF0000BE5E600BFF859060814
:106BE0002DE9F04184B080B301B172B3002417469F
:106BF0000E466A462B491D46CDE90044CDE90244C4
:106C0000FFF766FE002847D0039B009CABB9DDF878
:106C100008806CB3B6B1204600F0B4F83B689842E7
:106C20001CD330464DF01EFEC7F8008095B10023FE
:106C300020462B6004B0BDE8F08134B34FF001086A
:106C4000002EE8D1002FEFD1F0E713B16FF0020270
:106C50001A600024204604B0BDE8F081421C2146A1
:106C600030464EF096F820464DF0FCFD3446DDE708
:106C7000002DEED0B8F1010F09D000246FF0010310
:106C800020462B6004B0BDE8F081002DE1D04FF02C
:106C9000FF332B600024DDE700984DF0E3FD002D6D
:106CA000EBD1D6E76908000860B108B539B1FFF744
:106CB0000FFE00280CBF6FF00100002008BD6FF030
:106CC000020008BD6FF00200704700BF0000000026
:106CD00001F0FF01102A2BDB10F0070F08D010F88D
:106CE000013B013A8B422DD010F0070F42B3F6D191
:106CF000F0B441EA012141EA014122F007047FF0AA
:106D000000070023F0E80256083C85EA010586EA00
:106D1000010685FA47F5A3FA87F586FA47F6A5FA3C
:106D200087F68EB9EED1F0BC01F0FF0102F0070248
:106D300032B110F8013B013A83EA010313B1F8D1F3
:106D40000020704701387047002D06BF35460338D4
:106D5000073815F0010F07D1013015F4807F02BF0D
:106D6000013015F4C03F0130F0BC0138704700BF5E
:106D700010F8012B11F8013B012A28BF9A42F7D0E5
:106D8000D01A7047034613F8012B002AFBD1181ABA
:106D90000138704781F0004102E000BF83F00043FA
:106DA00030B54FEA41044FEA430594EA050F08BFA6
:106DB00090EA020F1FBF54EA000C55EA020C7FEA6A
:106DC000645C7FEA655C00F0E2804FEA5454D4EBE7
:106DD0005555B8BF6D420CDD2C4480EA020281EAB1
:106DE000030382EA000083EA010180EA020281EAE9
:106DF0000303362D88BF30BD11F0004F4FEA01313B
:106E00004FF4801C4CEA113102D0404261EB410149
:106E100013F0004F4FEA03334CEA133302D05242CF
:106E200063EB430394EA050F00F0A780A4F101048B
:106E3000D5F1200E0DDB02FA0EFC22FA05F28018C5
:106E400041F1000103FA0EF2801843FA05F35941AB
:106E50000EE0A5F120050EF1200E012A03FA0EFC2A
:106E600028BF4CF0020C43FA05F3C01851EBE37154
:106E700001F0004507D54FF0000EDCF1000C7EEB71
:106E800000006EEB0101B1F5801F1BD3B1F5001FAF
:106E90000CD349085FEA30004FEA3C0C04F10104CE
:106EA0004FEA445212F5800F80F09A80BCF1004FF7
:106EB00008BF5FEA500C50F1000041EB045141EA79
:106EC000050130BD5FEA4C0C404141EB010111F47A
:106ED000801FA4F10104E9D191F0000F04BF014625
:106EE0000020B1FA81F308BF2033A3F10B03B3F103
:106EF00020020CDA0C3208DD02F1140CC2F10C0293
:106F000001FA0CF021FA02F10CE002F11402D8BFF0
:106F1000C2F1200C01FA02F120FA0CFCDCBF41EABC
:106F20000C019040E41AA2BF01EB0451294330BD8B
:106F30006FEA04041F3C1CDA0C340EDC04F1140468
:106F4000C4F1200220FA04F001FA02F340EA03003F
:106F500021FA04F345EA030130BDC4F10C04C4F185
:106F6000200220FA02F001FA04F340EA0300294665
:106F700030BD21FA04F0294630BD94F0000F83F4AF
:106F8000801306BF81F480110134013D4EE77FEA92
:106F9000645C18BF7FEA655C29D094EA050F08BFDE
:106FA00090EA020F05D054EA000C04BF19461046BF
:106FB00030BD91EA030F1EBF0021002030BD5FEA03
:106FC000545C05D14000494128BF41F0004130BD2B
:106FD00014F580043CBF01F5801130BD01F000457F
:106FE00045F0FE4141F470014FF0000030BD7FEAF2
:106FF000645C1ABF194610467FEA655C1CBF0B46ED
:10700000024650EA013406BF52EA033591EA030F03
:1070100041F4002130BD00BF90F0000F04BF0021FB
:10702000704730B54FF4806404F132044FF000052E
:107030004FF0000150E700BF90F0000F04BF0021A7
:10704000704730B54FF4806404F1320410F000450D
:1070500048BF40424FF000013EE700BF42004FEA08
:10706000E2014FEA31014FEA02701FBF12F07F4385
:1070700093F07F4F81F06051704732F07F4208BF3C
:10708000704793F07F4F04BF41F40021704730B543
:107090004FF4607401F0004521F000411CE700BF8F
:1070A00050EA010208BF704730B54FF000050AE012
:1070B00050EA010208BF704730B511F0004502D513
:1070C000404261EB41014FF4806404F132045FEA15
:1070D000915C3FF4D8AE4FF003025FEADC0C18BFBE
:1070E00003325FEADC0C18BF033202EBDC02C2F1B0
:1070F000200300FA03FC20FA02F001FA03FE40EA42
:107100000E0021FA02F11444BDE600BF70B54FF045
:10711000FF0C4CF4E06C1CEA11541DBF1CEA135523
:1071200094EA0C0F95EA0C0F00F0DEF82C4481EA8B
:10713000030621EA4C5123EA4C5350EA013518BFAB
:1071400052EA033541F4801143F4801338D0A0FB98
:1071500002CE4FF00005E1FB02E506F00042E0FB45
:1071600003E54FF00006E1FB03569CF0000F18BF4B
:107170004EF0010EA4F1FF04B6F5007F64F54074F3
:1071800004D25FEA4E0E6D4146EB060642EAC62186
:1071900041EA55514FEAC52040EA5E504FEACE2EF3
:1071A000B4F1FD0C88BFBCF5E06F1ED8BEF1004FF6
:1071B00008BF5FEA500E50F1000041EB045170BD72
:1071C00006F0004646EA010140EA020081EA0301B6
:1071D000B4EB5C04C2BFD4EB0C0541EA045170BDB2
:1071E00041F480114FF0000E013C00F3AB8014F12C
:1071F000360FDEBF002001F0004170BDC4F1000475
:10720000203C35DA0C341BDC04F11404C4F12005F5
:1072100000FA05F320FA04F001FA05F240EA020050
:1072200001F0004221F0004110EBD37021FA04F686
:1072300042EB06015EEA430E08BF20EAD37070BD40
:10724000C4F10C04C4F1200500FA04F320FA05F09F
:1072500001FA04F240EA020001F0004110EBD370A1
:1072600041F100015EEA430E08BF20EAD37070BD11
:10727000C4F1200500FA05F24EEA020E20FA04F3EA
:1072800001FA05F243EA020321FA04F001F0004199
:1072900021FA04F220EA020000EBD3705EEA430E0A
:1072A00008BF20EAD37070BD94F0000F0FD101F039
:1072B0000046400041EB010111F4801F08BF013C72
:1072C000F7D041EA060195F0000F18BF704703F0B0
:1072D0000046520043EB030313F4801F08BF013D37
:1072E000F7D043EA0603704794EA0C0F0CEA1355F3
:1072F00018BF95EA0C0F0CD050EA410618BF52EAAD
:107300004306D1D181EA030101F000414FF00000B2
:1073100070BD50EA410606BF1046194652EA4306C0
:1073200019D094EA0C0F02D150EA013613D195EA34
:107330000C0F05D152EA03361CBF104619460AD17C
:1073400081EA030101F0004141F0FE4141F4700186
:107350004FF0000070BD41F0FE4141F4780170BD76
:1073600070B54FF0FF0C4CF4E06C1CEA11541DBFDB
:107370001CEA135594EA0C0F95EA0C0F00F0A7F8DD
:10738000A4EB050481EA030E52EA03354FEA01310A
:1073900000F088804FEA03334FF0805545EA13131D
:1073A00043EA12634FEA022245EA111545EA1065E5
:1073B0004FEA00260EF000419D4208BF964244F17C
:1073C000FD0404F5407402D25B084FEA3202B61A9B
:1073D00065EB03055B084FEA32024FF480104FF46F
:1073E000002CB6EB020E75EB030E22BFB61A7546E3
:1073F00040EA0C005B084FEA3202B6EB020E75EB76
:10740000030E22BFB61A754640EA5C005B084FEADD
:107410003202B6EB020E75EB030E22BFB61A7546AA
:1074200040EA9C005B084FEA3202B6EB020E75EBB5
:10743000030E22BFB61A754640EADC0055EA060E76
:1074400018D04FEA051545EA16754FEA06164FEAB9
:10745000C30343EA52734FEAC2025FEA1C1CC0D165
:1074600011F4801F0BD141EA00014FF000004FF0F2
:10747000004CB6E711F4801F04BF01430020B4F1B3
:10748000FD0C88BFBCF5E06F3FF6AFAEB5EB030C6B
:1074900004BFB6EB020C5FEA500C50F1000041EB68
:1074A000045170BD0EF0004E4EEA113114EB5C0435
:1074B000C2BFD4EB0C0541EA045170BD41F4801108
:1074C0004FF0000E013C90E645EA060E8DE60CEA10
:1074D000135594EA0C0F08BF95EA0C0F3FF43BAF2D
:1074E00094EA0C0F0AD150EA01347FF434AF95EAE4
:1074F0000C0F7FF425AF104619462CE795EA0C0FC8
:1075000006D152EA03353FF4FDAE1046194622E794
:1075100050EA410618BF52EA43067FF4C5AE50EA6E
:1075200041047FF40DAF52EA43057FF4EBAE12E75E
:107530004FF0FF3C06E000BF4FF0010C02E000BF3F
:107540004FF0010C4DF804CD4FEA410C7FEA6C5C22
:107550004FEA430C18BF7FEA6C5C1BD001B050EAC5
:10756000410C0CBF52EA430C91EA030F02BF90EAB0
:10757000020F0020704710F1000F91EA030F58BF6F
:10758000994208BF90422CBFD8176FEAE37040F0D1
:10759000010070474FEA410C7FEA6C5C02D150EA6F
:1075A000013C07D14FEA430C7FEA6C5CD6D152EA2A
:1075B000033CD3D05DF8040B704700BF84461046EF
:1075C00062468C461946634600E000BF01B5FFF7EE
:1075D000B7FF002848BF10F1000F01BD4DF808EDBE
:1075E000FFF7F4FF0CBF012000205DF808FB00BF8F
:1075F0004DF808EDFFF7EAFF34BF012000205DF8E9
:1076000008FB00BF4DF808EDFFF7E0FF94BF012035
:1076100000205DF808FB00BF4DF808EDFFF7CEFF36
:1076200094BF012000205DF808FB00BF4DF808ED75
:10763000FFF7C4FF34BF012000205DF808FB00BF46
:107640004FEA410C7FEA6C5C02D150EA013C0AD15E
:107650004FEA430C7FEA6C5C02D152EA033C02D150
:107660004FF0000070474FF0010070474FEA4102B1
:1076700012F5001215D211D56FF47873B3EB625284
:1076800012D94FEAC12343F0004343EA505311F0AB
:10769000004F23FA02F018BF404270474FF000003D
:1076A000704750EA013005D111F0004008BF6FF07B
:1076B000004070474FF00000704700BF4A0011D2F1
:1076C00012F5001211D20DD56FF47873B3EB62523C
:1076D0000ED44FEAC12343F0004343EA505323FA48
:1076E00002F070474FF00000704750EA013002D1BD
:1076F0004FF0FF3070474FF0000070474FEA4102F3
:10770000B2F1E04324BFB3F5001CDCF1FE5C0DD9FF
:1077100001F0004C4FEAC0024CEA5070B2F1004F49
:1077200040EB830008BF20F00100704711F0804F4C
:1077300021D113F13872BCBF01F00040704741F411
:1077400080114FEA5252C2F11802C2F1200C10FA15
:107750000CF320FA02F018BF40F001004FEAC123F9
:107760004FEAD32303FA0CFC40EA0C0023FA02F39D
:107770004FEA4303CCE77FEA625307D150EA013373
:107780001EBF4FF0FE4040F44000704701F0004043
:1077900040F0FE4040F40000704700BF53B94AB9C2
:1077A000002908BF00281CBF4FF0FF314FF0FF3009
:1077B00001F0F8B8ADF1080C6DE904CE00F006F860
:1077C000DDF804E0DDE9022304B070472DE9F0475D
:1077D000089E04468846002B4BD18A42154667D93D
:1077E000B2FA82F24AB1C2F1200701FA02F320FA9A
:1077F00007F7954047EA030894404FEA154E230CDB
:10780000B8FBFEF71FFA85FC0EFB178843EA084316
:1078100007FB0CF1994209D9EB1807F1FF3080F012
:107820001B81994240F21881023F2B445B1AA4B29B
:10783000B3FBFEF00EFB103344EA034400FB0CFCE8
:10784000A44509D92C1900F1FF3380F00781A44524
:1078500040F2048102382C4440EA0740A4EB0C04B7
:1078600000271EB1D4400023C6E900433946BDE8D5
:10787000F0878B4209D9002E00F0EB800027C6E983
:10788000000138463946BDE8F087B3FA83F7002F88
:1078900047D18B4202D3824200F2FA80841A61EB14
:1078A000030301209846002EE0D0C6E90048DDE73A
:1078B00002B9FFDEB2FA82F2002A40F08F80491B43
:1078C0004FEA154E1FFA85F80127B1FBFEFC230C89
:1078D0000EFB1C1143EA014308FB0CF1994207D946
:1078E000EB180CF1FF3002D2994200F2CD808446B1
:1078F000591AA3B2B1FBFEF00EFB101443EA044484
:1079000008FB00F8A04507D92C1900F1FF3302D27B
:10791000A04500F2B6801846A4EB080440EA0C40EB
:107920009FE7C7F1200CBB4022FA0CFE4EEA030E83
:1079300001FA07F420FA0CF521FA0CF34FEA1E487D
:107940002543B3FBF8F92C0C08FB19331FFA8EFA08
:1079500044EA034309FB0AF49C4202FA07F200FAE4
:1079600007F10BD91EEB030309F1FF3080F087808C
:107970009C4240F28480A9F1020973441B1BADB202
:10798000B3FBF8F008FB103345EA034400FB0AFAA6
:10799000A24508D91EEB040400F1FF336BD2A245C7
:1079A00069D90238744440EA0940A0FB0289A4EB7B
:1079B0000A044C45C2464B4654D351D0002E69D0E0
:1079C000B1EB0A0564EB030404FA0CFCFD40FC4037
:1079D0004CEA0505C6E90054002747E7C2F1200339
:1079E00020FA03F7954001FA02F021FA03F34FEA77
:1079F000154E3843010CB3FBFEF71FFA85F80EFB5A
:107A0000173341EA034107FB08F38B4204FA02F4FF
:107A100007D9691807F1FF3C2FD28B422DD9023FBD
:107A20002944CB1A81B2B3FBFEF00EFB103341EABE
:107A3000034100FB08F38B4207D9691800F1FF3CB2
:107A400017D28B4215D902382944C91A40EA074790
:107A50003BE73746304609E70746E7E61846FBE6C8
:107A60004145ABD2B8EB020A69EB0E02013813466E
:107A7000A4E76046E9E7184695E76746D1E78146FF
:107A80007CE702382C4447E7ACF1020C2B442FE78B
:107A9000384608E73746E9E603685A004CBF43F02A
:107AA000004323F000431844704700BF61B32DE941
:107AB000F84F01F1FF3A90460646D146002707EB02
:107AC000090404EBD4746410E50071190846FFF74B
:107AD000E3FFA245834605F10800304409D0FFF7D3
:107AE000DBFFC34500F1FF3005D8404509D2671CD4
:107AF000E5E7C34505D9A74202D004F1FF39DEE727
:107B000000210846BDE8F88F08467047012807D0D5
:107B1000022807D0044B00280CBF184600207047ED
:107B20000248704702487047F9810008FD8100084B
:107B30000182000830B5254B83B004468D1E4BB33F
:107B400001A92846AFF30080F0B101992A46FFF75A
:107B5000ADFF0146C0B1FFF79FFF4B68A064012B4A
:107B60002ED0002B01F1040026DBFFF795FF002348
:107B7000C4E913030368002B12DBFFF78DFF00231A
:107B80002061184603B030BD002323610923184645
:107B900003B030BD0E490F48091AC9100191D5E74D
:107BA000C3F30360FFF7B2FF002814BF00230923CB
:107BB0002061184603B030BD0123C4E91303D9E79F
:107BC000002323610523184603B030BD00000000E8
:107BD000C8AA0608A09706080368DA0710B5044685
:107BE00006D49B0700F1480009D500F05FFC23682C
:107BF000590709D51A070ED5DB0613D510BD00F0BD
:107C00004DFC23685907F5D404F1D00000F056FC70
:107C100023681A07F0D404F5A87000F057FC236815
:107C2000DB06EBD404F5E870BDE8104000F092BC30
:107C3000036803B103441846704700BF092070472A
:107C4000704700BF70B504460D4608E02B6C6361B9
:107C50002A462369214601209847082808D1296C23
:107C60002046FFF767FF06460028EFD04BF0F5FCF3
:107C70000728FBD13046296CFFF7E2FF281D00F0F2
:107C800001FC00BF2DE9F0470C1D054617460FCC3F
:107C9000ADF5727D03AE0FC60FCC0FC60FCC0FC66D
:107CA00094E80F0002ACD5F80C80D5F8189086E85F
:107CB0000F000023236021E0236C6B614FF4F0720E
:107CC00021467AA84DF065F82B697AAA29463046F4
:107CD0009847889BCDE900498246636431462B462C
:107CE0002A460120C0470746F8B94FF4F0727AA936
:107CF00020464DF04EF8BAF1080F1CD1216C2846F1
:107D0000FFF718FF002F08BF0926074618BF0A26ED
:107D10000028D1D0A36B46F01001CDE900492A46D6
:107D2000636401202B46C04700B1092738460DF592
:107D3000727DBDE8F087BAF1070FF6D13846216CA5
:107D4000FFF77EFF03A800F09DFB00BF406C70476B
:107D5000F0B5CB6B0B640D1D0F4606460FCDF9B089
:107D600001AC0FC40FCD0FC40FCD0FC495E80F00A9
:107D70004FF0FF3584E80F00009506E033696A464E
:107D8000314698470828044608D110993046FFF735
:107D9000D1FE0028F2D0092079B0F0BD6846FFF787
:107DA0001BFF062CF7D139463046FFF74BFF00BFCB
:107DB00030B4DD6BC160826119461D64002230BCA5
:107DC00060E700BF70B5C66843690B64BEB903695C
:107DD0000A4604460D46014602209847072807D068
:107DE000082803D129462046FFF72CFF4BF035FC2D
:107DF0003046296CFFF724FF281D00F043FB0122C9
:107E0000FFF740FF4BF029FCC2681AB1CA6B0A6445
:107E1000002237E79CE700BF704700BF836813B1BB
:107E20000146012018477047042907D8DFE801F010
:107E30000308060808000BB90F2A03D9022070476F
:107E40000120704700EB820218465368009A1360C5
:107E5000704700BF10B584B0002303AC0A460094FD
:107E60001946FFF7E1FF039804B010BD042907D8B5
:107E7000DFE801F00308060808000BB90F2A03D950
:107E8000022070470120704700EB8200009A1268C0
:107E900042601846704700BF10B584B004AC0023A0
:107EA00044F8042D0A4600941946FFF7DFFF04B09A
:107EB00010BD00BFF0B5D36B1364151D07460E4609
:107EC0000FCDADF50F7D17AC0FC40FCD0FC40FCD87
:107ED0000FC495E80F004FF0FF3584E80F001695AA
:107EE00010E016A8FFF7D8FF314616A8B84716AA23
:107EF000694678B9049B08209847052804460AD0AB
:107F0000092807D026996846FFF714FE6A460C2117
:107F10000028E6D0092416A8FFF75EFE20460DF5DE
:107F20000F7DF0BD2DE9F04F0D46C96C89B00C1DD9
:107F3000164600F0030B0A6806941F46002B68D013
:107F4000130CD9B212048DF81D30022304EB810406
:107F500005928DF81C302B6DBBF1020F08BFAC6B86
:107F600013F0010346D1019300F008030093D4F805
:107F70000090B9F1000F00F0F380022F45D0B4F863
:107F80000090B4F802800434AB6C28F0010A0F2191
:107F900030469A44FFF75EFF824534D829F001034A
:107FA0005344834294BF002001204FEA480808F060
:107FB000020809F0010948EA0908B8F1010F3AD0AE
:107FC00031D3B8F1020F1AD1236823F0004ABBF174
:107FD000000F66D130B1009A002A6CD0BAF1000FC0
:107FE00000F09080002B00DA04340AF1010304EB66
:107FF0008304BCE7304605A900F046FB78B10920B0
:1080000009B0BDE8F08F0020CFE7D4F80480083431
:10801000BAE7120203230592ADF81C309BE7082053
:1080200009B0BDE8F08FBBF1000F02D0002840F08E
:10803000B48004349BE7BBF1000F18D1A8B1D4E998
:108040000023991C4FEAD272D9D005F158010133AF
:10805000049100F0B580201DFFF7EAFD04AB014656
:10806000284641F09DFA002867D108347FE70D21AA
:108070003046D5F82080FFF7EDFE8045F5D1AB6A9C
:108080009C42F2D12046FFF707FD0F210246304601
:10809000FFF702FF30462A460021FFF7FDFE0720CA
:1080A000AEE70D213046D5F82080FFF7D3FE80459E
:1080B00032D0236896E7BAF1000F23D005F15803B8
:1080C00004F10408CDF808B0DDF800900397A3464A
:1080D0001C4602E05745B94640D040460494FFF79D
:1080E000A7FD04AB01460022284641F059FA09F1E8
:1080F000010708F104080028ECD0D1455C46DDE911
:1081000002B7D6D130460D21FFF7A4FE049B2862AA
:10811000C5E90934062073E7AB6A9C42C9D1042241
:108120004FF00008A318C5E90AA8C5E90C23236885
:1081300043454DDB0123019357E780460D2130462F
:10814000FFF788FEB8F1020F28623ED12B46049A51
:1081500043F82C2F6B62AC62062051E75C46D1E7F6
:1081600005A9304600F090FA00287FF448AF019B43
:10817000002B3FF454AF0F213046FFF76BFE0E216A
:1081800002463046FFF788FE30461A4A0F21FFF7B5
:1081900083FE072009B0BDE8F08F2046FFF77CFC86
:1081A00004340746AC63284641F052FA00283FF4F5
:1081B00026AF30463A460F21FFF76EFE07201FE735
:1081C00030460D21FFF746FE2862049B6B62C2E732
:1081D0000AF1010004EB8000FFF75EFC0F2102466C
:1081E0003046FFF759FE30462A464146FFF754FE17
:1081F000072005E7A9940408002393E6012391E6EC
:1082000002238FE62DE9F0410546C4B0042906D8C3
:10821000DFE801F04D2B05030900032B5FD002209E
:1082200044B0BDE8F081002BF9D1102AF7D82B68B3
:10823000DC0600F1F48022AC2046019200F094F9B3
:10824000A86B019A0023012606FA03F1114203D01C
:10825000016844F8231004300133042BF4D1A863DF
:10826000204600F077F90020DAE7012B4FEA1246AA
:1082700097B252D0052BD2D106EB0708B8F1200FE8
:10828000CDD80F2E40F29980B846002F40F0DB8009
:10829000AA6BAA630F2E40F2BE80B8F1000F02D085
:1082A00002A800F00BF9002044B0BDE8F081002BDB
:1082B000B5D1AC6B97B2281D012606FA03F13942FD
:1082C00003F1010302D0216801600434102B00F196
:1082D0000400F2D112F40050E5D1AC63A0E7160C13
:1082E00097B2F319102B9AD82B681A075DD422ACD9
:1082F000204600F00DF904EBC601AB6B3FB103EB78
:10830000C702186841F8040B04339342F9D12046A0
:10831000AB6300F0DBF8002082E7F219102A3FF689
:108320007EAF0F2E3FF67BAF2A68D10708D52846CF
:1083300022F0030240F8482B019300F0B3F8019BB0
:10834000019322AC204600F0ADF8A96B019B002FF1
:1083500000F095807F0004EBC6044FF00008043C59
:1083600001EB870251F8040B44F8040F9142F9D154
:10837000B8F1000F0FD002AC102E314638BF1021DB
:1083800004EBC101843902EBC80452F8040B41F834
:10839000040F9442F9D1012B7FF47BAF22AC04325D
:1083A000AA63204600F07AF87DE723F008032B60EB
:1083B00005F5A87000F0ACF899E7B8F1100F2A683D
:1083C00043D9D007A8F110080BD5284622F00102A6
:1083D00042F0020240F8482B019300F06BF82A6843
:1083E000019B510725D40F2E04D822A8019300F039
:1083F00061F8019B019302AC204600F063F8C6F1DE
:1084000010010029AA6B019BB6DD22AC4F0004EBE2
:10841000C6041146A3E722A800F048F83DE723F080
:1084200010032B6005F5E870019200F09DF8019AA9
:1084300001E7284622F0040240F8D02B019300F017
:1084400041F8019BCFE72A68CBE7D0070AD5284639
:1084500022F0010242F0020240F8482B019300F0A2
:1084600029F8019B019322AC204600F023F8B8467E
:10847000A96B019B002F7FF46DAF0A4609E70A46FE
:108480008DE700BF00F1340191E838009C46A64614
:108490004CF8045D90E8FF0FE54600BD90EC210B21
:1084A000704700BF80EC210B704700BF90EC200BA1
:1084B000704700BF80EC200B704700BFD0EC200B52
:1084C000704700BFC0EC200B704700BFF0EC02010A
:1084D000F0EC0211F0EC0221F0EC0231F0EC024180
:1084E000F0EC0251F0EC0261F0EC0271F0EC028170
:1084F000F0EC0291F0EC02A1F0EC02B1F0EC02C160
:10850000F0EC02D1F0EC02E1F0EC02F1704700BFB8
:10851000E0EC0201E0EC0211E0EC0221E0EC0231BF
:10852000E0EC0241E0EC0251E0EC0261E0EC0271AF
:10853000E0EC0281E0EC0291E0EC02A1E0EC02B19F
:10854000E0EC02C1E0EC02D1E0EC02E1E0EC02F18F
:10855000704700BFB0FC0181B0FC0191B0FC01A1EB
:10856000B0FC01B1704700BFA0FC0181A0FC0191EB
:10857000A0FC01A1A0FC01B1704700BFEC4600B512
:108580002DE900502DE9FF1F4FF000032DE90C00ED
:1085900001A9FFF7DDFBDDF840E012B0704700BF36
:1085A000EC4600B52DE900502DE9FF1F4FF0000308
:1085B0002DE90C0001A9FFF705FCDDF840E012B041
:1085C000704700BFEC4600B52DE900502DE9FF1FB4
:1085D0004FF000032DE90C0001A9FFF715FCDDF8B1
:1085E00040E012B0704700BFEC4600B52DE90050E6
:1085F0002DE9FF1F4FF000032DE90C0001ABFFF741
:10860000D7FBDDF840E012B0704700BFEC4600B584
:108610002DE900502DE9FF1F4FF000032DE90C005C
:1086200001AAFFF747FCDDF840E012B0704700BF39
:10863000027A82B9437AABB14268013B10B443720B
:1086400013680321141D01721A02446002605DF870
:10865000044B180E70470368013A02721A02026056
:10866000180E7047B020704700B585B003AA0023EC
:10867000009219460C22FFF7D7FB039805B05DF86E
:1086800004FB00BFF0E700BF2DE9F043054685B0CD
:108690000E464FF000083046FFF7CAFFB0280446E8
:1086A00000F0B180070620D500F0F003802B65D0E4
:1086B000902B36D0A02B78D0B02B47D0C02B00F019
:1086C0008A8000F0F803D02B0BD100F007020132B2
:1086D00042F40022052301212846FFF793FD0028DC
:1086E000D9D0092005B0BDE8F0830DF10C090023B5
:1086F00019468700CDF800900D222846FFF794FB1D
:10870000FFB2039BCDF80090043760064CBFDF1B1F
:10871000FF18002319460D2228460397FFF7A6FBF2
:10872000B9E700F00D030D2BDBD003AF002300F001
:108730000F02194600972846FFF776FB00230097A3
:1087400019460D222846FFF791FBA4E7B1285FD018
:10875000B22800F0CC80B3287ED000F0FC03B42B0C
:10876000BFD000F007020132012342F40022194673
:108770002846FFF747FD00288DD0B2E73046FFF7C7
:1087800057FF24020443B4F5004FAAD0240100236C
:10879000A2B219462846FFF735FD0028A1D114F4EE
:1087A000004F18BF4FF0010875E7C24302F00703FE
:1087B0004FF47F621A41010702F47F624FF0000319
:1087C00048BF42F4804219462846FFF71BFD0028A7
:1087D0003FF461AF85E7C62851D0C7285AD000F0D2
:1087E000F803C02B69D0C82875D0C9287FF479AFA9
:1087F0003046FFF71DFF020300F00F0002F4702265
:108800000130024366E7B8F1000F14D0002069E799
:108810003046FFF70DFF00283FF463AF10F0F00380
:108820007FF45FAF024619462846FFF7EBFC0028AD
:108830003FF431AF55E703AC43460E224146009466
:108840002846FFF7F1FA0094284643460F22414696
:10885000FFF70CFB404645E73046FFF7E9FE010312
:1088600000F00F0001F47021421C01230A43284646
:108870001946FFF7C7FC00283FF40DAF31E730463B
:10888000FFF7D6FE010300F00F0001F47021421C37
:108890000323EBE73046FFF7CBFE024600283FF408
:1088A00020AF10F0F0037FF41CAF04212846FFF73F
:1088B000A9FC00283FF4EFAE13E700F00F020132ED
:1088C000032342F4202219462846FFF79BFC002888
:1088D0003FF4E1AE05E73046FFF7AAFE00F0F002F4
:1088E00000F00F031032013343EA0232F2E60023B4
:1088F0000DF10C090D221946CDF800902846FFF71E
:1089000093FA3046FFF794FE02064FF002070CD5AB
:10891000039B00F07F00B840034430460393FFF709
:1089200087FE030607F10707F2D4039BCDF80090FA
:1089300000F07F0403F50172BC4000231444194683
:108940000D2228460394FFF791FAA4E610B5C36CF4
:1089500084B05A6803208DF80C00DC798DF80D4046
:1089600012020833084601A901920293FFF78CFE18
:1089700004B010BD08B5FFF785FE806C08BD00BFD0
:1089800008B5FFF77FFEC06CC37900EB83000830A9
:1089900008BD00BF08B54AF060FE00BF08B5FFF78C
:1089A000F9FF00BF704700BF80B582B000AF002361
:1089B000FB71032000F05AF9002000F00DF8034687
:1089C000002B02D00123FB7101E021F027FFFB798E
:1089D00018460837BD4680BD80B584B000AF7860CA
:1089E0000023FB73164B1B68002B22D0154B1A6813
:1089F000134B1B684FF47A71B1FBF3F3B2FBF3F343
:108A0000184600F068F90346002B0FD17B680F2B46
:108A100009D8002279684FF0FF3000F032F90A4A95
:108A20007B68136007E00123FB7304E00123FB7301
:108A300001E00123FB73FB7B18461037BD4680BD68
:108A400008000020140000200400002080B400AFC3
:108A5000054B1A68054B1B681344034A136000BF9B
:108A6000BD465DF8047B7047DC4D00200800002007
:108A700080B400AF034B1B681846BD465DF8047B0D
:108A8000704700BFDC4D002080B584B000AF786037
:108A9000FFF7EEFFB8607B68FB60FB68B3F1FF3F58
:108AA00004D0094B1B68FA681344FB6000BFFFF752
:108AB000DFFF0246BB68D31AFA689A42F7D800BFB4
:108AC0001037BD4680BD00BF0800002080B485B0CF
:108AD00000AF78607B6803F00703FB600C4BDB683A
:108AE000BB60BA684FF6FF031340BB60FB681A0215
:108AF000BB68134343F0BF6343F40033BB60044AD5
:108B0000BB68D36000BF1437BD465DF8047B704777
:108B100000ED00E080B400AF044BDB681B0A03F0FB
:108B200007031846BD465DF8047B704700ED00E082
:108B300080B483B000AF0346FB7197F90730002B78
:108B40000BDBFB7903F01F02074997F907305B093C
:108B5000012000FA02F241F8232000BF0C37BD4685
:108B60005DF8047B704700BF00E100E080B483B093
:108B700000AF03463960FB7197F90730002B0ADB21
:108B80003B68DAB20C4997F907301201D2B20B44B4
:108B900083F800230AE03B68DAB20849FB7903F066
:108BA0000F03043B1201D2B20B441A7600BF0C37FC
:108BB000BD465DF8047B704700E100E000ED00E099
:108BC00080B489B000AFF860B9607A60FB6803F0E8
:108BD0000703FB61FB69C3F10703042B28BF0423D0
:108BE000BB61FB690433062B02D9FB69033B00E040
:108BF00000237B614FF0FF32BB6902FA03F3DA43D3
:108C0000BB681A407B699A404FF0FF317B6901FADB
:108C100003F3D9437B680B40134318462437BD4602
:108C20005DF8047B7047000080B582B000AF7860CB
:108C30007B68013BB3F1807F01D301230FE00A4A37
:108C40007B68013B53600F214FF0FF30FFF78EFF31
:108C5000054B00229A60044B07221A600023184635
:108C60000837BD4680BD00BF10E000E080B582B08F
:108C700000AF78607868FFF729FF00BF0837BD466E
:108C800080BD80B586B000AF0346B9607A60FB73E3
:108C900000237B61FFF73EFF78617A68B9687869E5
:108CA000FFF78EFF024697F90F3011461846FFF77F
:108CB0005DFF00BF1837BD4680BD80B582B000AFF4
:108CC0000346FB7197F907301846FFF731FF00BFE5
:108CD0000837BD4680BD80B582B000AF7860786847
:108CE000FFF7A2FF034618460837BD4680BD80B592
:108CF00084B000AF78600023FB737B6893F8253065
:108D0000DBB2022B05D07B680422DA630123FB73FC
:108D100029E07B681B681A687B681B6822F00E02DA
:108D20001A607B681B681A687B681B6822F0010266
:108D30001A607B685B6C03F01C027B681B6C012172
:108D400001FA02F25A607B68012283F825207B68D1
:108D5000002283F824207B689B6B002B03D07B6868
:108D60009B6B78689847FB7B18461037BD4680BDE3
:108D700080B487B000AF7860396000237B6166E122
:108D80003B681A6801217B6901FA03F31340FB6019
:108D9000FB68002B00F058813B685B68022B03D016
:108DA0003B685B68122B23D17B69DA087B68083249
:108DB00053F822303B617B6903F007039B000F22CD
:108DC00002FA03F3DB433A6913403B613B681A69DB
:108DD0007B6903F007039B0002FA03F33A6913432C
:108DE0003B617B69DA087B680832396943F82210F5
:108DF0007B681B683B617B695B00032202FA03F31B
:108E0000DB433A6913403B613B685B6803F0030254
:108E10007B695B0002FA03F33A6913433B617B68A9
:108E20003A691A603B685B68012B0BD03B685B6852
:108E3000022B07D03B685B68112B03D03B685B6853
:108E4000122B30D17B689B683B617B695B000322FE
:108E500002FA03F3DB433A6913403B613B68DA688B
:108E60007B695B0002FA03F33A6913433B617B6859
:108E70003A699A607B685B683B6101227B6902FA10
:108E800003F3DB433A6913403B613B685B681B09B2
:108E900003F001027B6902FA03F33A6913433B6171
:108EA0007B683A695A607B68DB683B617B695B0081
:108EB000032202FA03F3DB433A6913403B613B6848
:108EC0009A687B695B0002FA03F33A6913433B61DA
:108ED0007B683A69DA603B685B6803F08053002B7B
:108EE00000F0B280614B1B6E604A43F001031366D1
:108EF0005E4B1B6E03F00103BB60BB685C4A7B6981
:108F00009B08023352F823303B617B6903F0030373
:108F10009B000F2202FA03F3DB433A6913403B61E3
:108F20007B68B3F1904F2BD07B68524A934225D097
:108F30007B68514A93421FD07B68504A934219D0B4
:108F40007B684F4A934213D07B684E4A93420DD0C0
:108F50007B684D4A934207D07B684C4A934201D1CB
:108F600007230EE008230CE006230AE0052308E0AF
:108F7000042306E0032304E0022302E0012300E0CF
:108F800000237A6902F00302920093403A69134386
:108F90003B6137497B699B0802333A6941F82320DA
:108FA0003B4B1B683B61FB68DB433A6913403B6109
:108FB0003B685B6803F48033002B03D03A69FB689D
:108FC00013433B61324A3B691360314B5B683B6141
:108FD000FB68DB433A6913403B613B685B6803F421
:108FE0000033002B03D03A69FB6813433B61284AE6
:108FF0003B695360264B9B683B61FB68DB433A69E6
:1090000013403B613B685B6803F48013002B03D083
:109010003A69FB6813433B611D4A3B6993601C4BF3
:10902000DB683B61FB68DB433A6913403B613B68AB
:109030005B6803F40013002B03D03A69FB68134309
:109040003B61134A3B69D3607B6901337B613B68B9
:109050001A687B6922FA03F3002B7FF491AE00BFFC
:109060001C37BD465DF8047B704700BF001002400E
:10907000000001400004004800080048000C0048BF
:10908000001000480014004800180048001C004868
:109090000004014080B483B000AF78600B467B8051
:1090A00013467B707B78002B03D07A887B689A61AB
:1090B00002E07A887B689A6200BF0C37BD465DF893
:1090C000047B704780B582B000AF78607B68002B6E
:1090D00001D1012381E07B6893F84130DBB2002BA2
:1090E00006D17B68002283F84020786821F0BAFB23
:1090F0007B68242283F841207B681B681A687B68A0
:109100001B6822F001021A607B685A687B681B6842
:1091100022F070621A617B681B689A687B681B6822
:1091200022F400429A607B68DB68012B07D17B68E0
:109130009A687B681B6842F400429A6006E07B688C
:109140009A687B681B6842F404429A607B68DB681B
:10915000022B04D17B681B684FF400625A607B6865
:109160001B685B687A68126843F0007343F400433D
:1091700053607B681B68DA687B681B6822F40042D6
:10918000DA607B681A697B685B6942EA03017B6885
:109190009B691A027B681B680A43DA607B68D9699D
:1091A0007B681A6A7B681B680A431A607B681B68C5
:1091B0001A687B681B6842F001021A607B68002213
:1091C0005A647B68202283F841207B6800221A635E
:1091D0007B68002283F84220002318460837BD46EA
:1091E00080BD000080B588B002AFF8607A601A4692
:1091F0000B467B8113463B81FB6893F84130DBB221
:10920000202B40F0DA80FB6893F84030012B01D12D
:109210000223D3E0FB68012283F84020FFF728FCFB
:1092200078617B690093192301224FF40041F868AB
:1092300000F0E6F90346002B01D00123BEE0FB68F5
:10924000212283F84120FB68102283F84220FB682A
:1092500000225A64FB687A685A62FB683A895A8528
:10926000FB6800225A63FB685B8D9BB2FF2B0ED913
:10927000FB68FF221A85FB681B8DDAB27989514B96
:1092800000934FF08073F86800F048FB6CE0FB68D7
:109290005B8D9AB2FB681A85FB681B8DDAB27989FF
:1092A000484B00934FF00073F86800F037FB5BE029
:1092B0007A69396AF86800F0E3F90346002B01D0B7
:1092C00001237BE0FB685B6A1A78FB681B689A6283
:1092D000FB685B6A5A1CFB685A62FB685B8D9BB239
:1092E000013B9AB2FB685A85FB681B8D013B9AB221
:1092F000FB681A85FB685B8D9BB2002B34D0FB6842
:109300001B8D002B30D17B6900933B6A00228021AA
:10931000F86800F075F90346002B01D001234DE0F9
:10932000FB685B8D9BB2FF2B0ED9FB68FF221A8571
:10933000FB681B8DDAB27989002300934FF08073AC
:10934000F86800F0EBFA0FE0FB685B8D9AB2FB68FF
:109350001A85FB681B8DDAB27989002300934FF0E0
:109360000073F86800F0DAFAFB685B8D9BB2002BA3
:109370009ED17A69396AF86800F0C2F90346002B79
:1093800001D001231AE0FB681B682022DA61FB6828
:109390001B685968FB681A680B4B0B405360FB68ED
:1093A000202283F84120FB68002283F84220FB68DA
:1093B000002283F84020002300E0022318461837DB
:1093C000BD4680BD0020008000E800FE80B588B06A
:1093D00002AFF8607A601A460B467B8113463B81E8
:1093E000FB6893F84130DBB2202B40F0DB80FB6858
:1093F00093F84030012B01D10223D4E0FB68012215
:1094000083F84020FFF734FB78617B6900931923D0
:1094100001224FF40041F86800F0F2F80346002BF7
:1094200001D00123BFE0FB68222283F84120FB68C2
:10943000102283F84220FB6800225A64FB687A6895
:109440005A62FB683A895A85FB6800225A63FB68B6
:109450005B8D9BB2FF2B0ED9FB68FF221A85FB6840
:109460001B8DDAB27989524B00934FF08073F86804
:1094700000F054FA6DE0FB685B8D9AB2FB681A85C8
:10948000FB681B8DDAB27989494B00934FF000736A
:10949000F86800F043FA5CE07A69396AF86800F02D
:1094A0006BF90346002B01D001237CE0FB681B68AD
:1094B0005A6AFB685B6AD2B21A70FB685B6A5A1C14
:1094C000FB685A62FB681B8D013B9AB2FB681A85E8
:1094D000FB685B8D9BB2013B9AB2FB685A85FB68C7
:1094E0005B8D9BB2002B34D0FB681B8D002B30D1E1
:1094F0007B6900933B6A00228021F86800F080F8C5
:109500000346002B01D001234DE0FB685B8D9BB22D
:10951000FF2B0ED9FB68FF221A85FB681B8DDAB280
:109520007989002300934FF08073F86800F0F6F912
:109530000FE0FB685B8D9AB2FB681A85FB681B8D98
:10954000DAB27989002300934FF00073F86800F0D5
:10955000E5F9FB685B8D9BB2002B9DD17A69396A76
:10956000F86800F0CDF80346002B01D001231AE083
:10957000FB681B682022DA61FB681B685968FB687E
:109580001A680C4B0B405360FB68202283F8412083
:10959000FB68002283F84220FB68002283F8402009
:1095A000002300E0022318461837BD4680BD00BFE7
:1095B0000024008000E800FE80B483B000AF786033
:1095C0007B681B689B6903F00203022B03D17B6855
:1095D0001B6800229A627B681B689B6903F0010389
:1095E000012B07D07B681B689A697B681B6842F077
:1095F00001029A6100BF0C37BD465DF8047B7047DD
:1096000080B584B000AFF860B9603B601346FB7171
:1096100022E03B68B3F1FF3F1ED0FFF729FA024674
:10962000BB69D31A3A689A4202D33B68002B13D124
:10963000FB685B6C43F02002FB685A64FB682022E5
:1096400083F84120FB68002283F84220FB68002257
:1096500083F8402001230FE0FB681B689A69BB6810
:109660001340BA689A420CBF01230023DBB21A46AA
:10967000FB799A42CDD0002318461037BD4680BDF5
:1096800080B584B000AFF860B9607A602CE07A6889
:10969000B968F86800F0DCF80346002B01D001231C
:1096A0002AE0BB68B3F1FF3F1ED0FFF7E1F90246A5
:1096B0007B68D31ABA689A4202D3BB68002B13D1D5
:1096C000FB685B6C43F02002FB685A64FB68202255
:1096D00083F84120FB68002283F84220FB680022C7
:1096E00083F84020012307E0FB681B689B6903F0B7
:1096F0000203022BCBD1002318461037BD4680BD94
:1097000080B584B000AFF860B9607A6028E07A680C
:10971000B968F86800F09CF80346002B01D00123DB
:1097200026E0FFF7A5F902467B68D31ABA689A4289
:1097300002D3BB68002B13D1FB685B6C43F02002A3
:10974000FB685A64FB68202283F84120FB680022F2
:1097500083F84220FB68002283F84020012307E0C1
:10976000FB681B689B6903F02003202BCFD10023EB
:1097700018461037BD4680BD80B584B000AFF86094
:10978000B9607A6055E07A68B968F86800F060F806
:109790000346002B01D0012353E0FB681B689B6943
:1097A00003F02003202B29D1FB681B689B6903F081
:1097B0000403042B05D1FB681B8D002B01D0002373
:1097C0003FE0FB681B682022DA61FB681B68596870
:1097D000FB681A681D4B0B405360FB6800225A64FB
:1097E000FB68202283F84120FB68002283F8422096
:1097F000FB68002283F84020012322E0FFF738F9BC
:1098000002467B68D31ABA689A4202D3BB68002B1F
:109810000FD1FB685B6C43F02002FB685A64FB6865
:10982000202283F84120FB68002283F84020012396
:1098300007E0FB681B689B6903F00403042BA2D1BB
:10984000002318461037BD4680BD00BF00E800FE6B
:1098500080B584B000AFF860B9607A60FB681B68BF
:109860009B6903F01003102B51D122E0BB68B3F1C8
:10987000FF3F1ED0FFF7FCF802467B68D31ABA6898
:109880009A4202D3BB68002B13D1FB685B6C43F098
:109890002002FB685A64FB68202283F84120FB68A1
:1098A000002283F84220FB68002283F84020012335
:1098B0002EE0FB681B689B6903F02003202BD5D1A9
:1098C000FB681B681022DA61FB681B682022DA61E2
:1098D000F868FFF771FEFB681B685968FB681A6837
:1098E0000D4B0B405360FB685B6C43F00402FB685C
:1098F0005A64FB68202283F84120FB68002283F829
:109900004220FB68002283F84020012300E000236E
:1099100018461037BD4680BD00E800FE80B485B013
:1099200000AFF8607B600B467B8113467B72FB685F
:109930001B685A68BB695B0D03F480610D4B0B43D8
:10994000DB4302EA03017B89C3F309027B7A1B0430
:1099500003F47F031A437B681A43BB691A43FB680D
:109960001B680A435A6000BF1437BD465DF8047B8C
:10997000704700BFFF63FF0380B483B000AF78601F
:1099800039607B6893F84130DBB2202B38D17B689B
:1099900093F84030012B01D1022332E07B68012291
:1099A00083F840207B68242283F841207B681B6871
:1099B0001A687B681B6822F001021A607B681B68CA
:1099C0001A687B681B6822F480521A607B681B68E7
:1099D00019687B681B683A680A431A607B681B68D1
:1099E0001A687B681B6842F001021A607B682022BB
:1099F00083F841207B68002283F84020002300E0A8
:109A0000022318460C37BD465DF8047B704780B4CE
:109A100085B000AF786039607B6893F84130DBB285
:109A2000202B39D17B6893F84030012B01D10223E0
:109A300033E07B68012283F840207B68242283F88E
:109A400041207B681B681A687B681B6822F0010252
:109A50001A607B681B681B68FB60FB6823F47063FB
:109A6000FB603B681B02FA681343FB607B681B6862
:109A7000FA681A607B681B681A687B681B6842F08A
:109A800001021A607B68202283F841207B68002253
:109A900083F84020002300E0022318461437BD4617
:109AA0005DF8047B7047000080B400AF044B1B6876
:109AB00003F4C0631846BD465DF8047B704700BFE1
:109AC0000070004080B485B000AF78607B68B3F56B
:109AD000007F30D1234B1B6803F4C063B3F5007FD4
:109AE00038D0204B1B6823F4C0631E4A43F4007334
:109AF00013601D4B1B68322202FB03F31B4AA2FBBF
:109B000003239B0C0133FB6002E0FB68013BFB601D
:109B1000144B5B6903F48063B3F5806F02D1FB687B
:109B2000002BF2D10F4B5B6903F48063B3F5806FB8
:109B300010D103230FE00B4B1B6803F4C063B3F594
:109B4000806F07D0074B1B6823F4C063054A43F4BA
:109B500080631360002318461437BD465DF8047B0C
:109B6000704700BF007000401400002083DE1B43DC
:109B700080B400AF054B5B68044A43F40073536044
:109B800000BFBD465DF8047B704700BF0070004019
:109B900080B588B000AF78607B68002B01D10123CD
:109BA000DBE3A44B9B6803F00C03BB61A14BDB68B8
:109BB00003F003037B617B681B6803F01003002B39
:109BC00000F0E180BB69002B07D0BB690C2B40F093
:109BD00088807B69012B40F08480964B1B6803F0E2
:109BE0000203002B05D07B689B69002B01D1012368
:109BF000B3E37B681A6A8F4B1B6803F00803002BE2
:109C000004D08C4B1B6803F0F00305E0894BD3F8BC
:109C100094301B0903F0F003934223D27B681B6A44
:109C2000184600F047FD0346002B01D0012394E3C2
:109C3000804B1B687F4A43F0080313607D4B1B6811
:109C400023F0F0027B681B6A7A4913430B60794B5F
:109C50005B6823F47F427B68DB691B027549134311
:109C60004B6022E0734B1B68724A43F00803136099
:109C7000704B1B6823F0F0027B681B6A6D4913432D
:109C80000B606C4B5B6823F47F427B68DB691B02D3
:109C9000684913434B607B681B6A184600F00AFD55
:109CA0000346002B01D0012357E300F041FC01469D
:109CB000604B9B681B0903F00F035F4AD35C03F002
:109CC0001F0321FA03F35D4A13605D4B1B681846BE
:109CD000FEF782FE0346FB73FB7B002B52D0FB7B1F
:109CE0003BE37B689B69002B32D0524B1B68514A87
:109CF00043F001031360FEF7BBFE386108E0FEF796
:109D0000B7FE02463B69D31A022B01D9032324E391
:109D1000484B1B6803F00203002BF0D0454B1B6837
:109D2000444A43F008031360424B1B6823F0F002DF
:109D30007B681B6A3F4913430B603E4B5B6823F40F
:109D40007F427B68DB691B023A4913434B601AE090
:109D5000384B1B68374A23F001031360FEF788FE77
:109D6000386108E0FEF784FE02463B69D31A022BF5
:109D700001D90323F1E22F4B1B6803F00203002BF0
:109D8000F0D100E000BF7B681B6803F00103002BEB
:109D900074D0BB69082B05D0BB690C2B0ED17B6935
:109DA000032B0BD1234B1B6803F40033002B64D02F
:109DB0007B685B68002B60D10123CEE27B685B6827
:109DC000B3F5803F06D11B4B1B681A4A43F480331E
:109DD00013601DE07B685B68B3F5A02F0CD1154BB9
:109DE0001B68144A43F480231360124B1B68114A0A
:109DF00043F4803313600BE00E4B1B680D4A23F4D1
:109E0000803313600B4B1B680A4A23F480231360D2
:109E10007B685B68002B1CD0FEF72AFE386111E0DE
:109E2000FEF726FE02463B69D31A642B0AD90323A8
:109E300093E200BF00100240A00D060814000020AD
:109E400004000020AE4B1B6803F40033002BE7D066
:109E500014E0FEF70DFE386108E0FEF709FE024649
:109E60003B69D31A642B01D9032376E2A44B1B6808
:109E700003F40033002BF0D100E000BF7B681B68C7
:109E800003F00203002B60D0BB69042B05D0BB6933
:109E90000C2B19D17B69022B16D1994B1B6803F44B
:109EA0008063002B05D07B68DB68002B01D1012388
:109EB00053E2934B5B6823F0FE427B681B691B06F1
:109EC0008F4913434B6040E07B68DB68002B23D055
:109ED0008B4B1B688A4A43F480731360FEF7C8FDFE
:109EE000386108E0FEF7C4FD02463B69D31A022B35
:109EF00001D9032331E2824B1B6803F48063002BFA
:109F0000F0D07F4B5B6823F0FE427B681B691B0629
:109F10007B4913434B6018E0794B1B68784A23F464
:109F200080731360FEF7A4FD386108E0FEF7A0FD22
:109F300002463B69D31A022B01D903230DE2704B71
:109F40001B6803F48063002BF0D17B681B6803F06F
:109F50000803002B3CD07B685B69002B1CD0684B4E
:109F6000D3F89430664A43F00103C2F89430FEF708
:109F70007FFD386108E0FEF77BFD02463B69D31A9E
:109F8000022B01D90323E8E15D4BD3F8943003F0B1
:109F90000203002BEFD01BE0594BD3F89430584A02
:109FA00023F00103C2F89430FEF762FD386108E047
:109FB000FEF75EFD02463B69D31A022B01D903234B
:109FC000CBE14F4BD3F8943003F00203002BEFD1D9
:109FD0007B681B6803F00403002B00F0A5800023BE
:109FE000FB77474B9B6D03F08053002B0DD1444B07
:109FF0009B6D434A43F080539365414B9B6D03F047
:10A000008053BB60BB680123FB773E4B1B6803F4A6
:10A010008073002B18D13B4B1B683A4A43F4807382
:10A020001360FEF725FD386108E0FEF721FD0246CA
:10A030003B69D31A022B01D903238EE1314B1B68F4
:10A0400003F48073002BF0D07B689B68012B08D150
:10A050002B4BD3F890302A4A43F00103C2F89030DA
:10A0600024E07B689B68052B10D1254BD3F89030FA
:10A07000234A43F00403C2F89030214BD3F89030C8
:10A080001F4A43F00103C2F890300FE01C4BD3F895
:10A0900090301B4A23F00103C2F89030184BD3F8DC
:10A0A0009030174A23F00403C2F890307B689B6815
:10A0B000002B16D0FEF7DCFC38610AE0FEF7D8FC76
:10A0C00002463B69D31A41F28832934201D90323F5
:10A0D00043E10B4BD3F8903003F00203002BEDD09B
:10A0E00019E0FEF7C5FC38610EE0FEF7C1FC024640
:10A0F0003B69D31A41F28832934205D903232CE1FC
:10A100000010024000700040964BD3F8903003F0EE
:10A110000203002BE9D1FB7F012B05D1914B9B6DF5
:10A12000904A23F0805393657B681B6803F02003FB
:10A13000002B3CD07B685B6A002B1CD0894BD3F88A
:10A140009830884A43F00103C2F89830FEF790FC3B
:10A15000386108E0FEF78CFC02463B69D31A022BFB
:10A1600001D90323F9E07F4BD3F8983003F00203C1
:10A17000002BEFD01BE07B4BD3F89830794A23F0CB
:10A180000103C2F89830FEF773FC386108E0FEF76F
:10A190006FFC02463B69D31A022B01D90323DCE092
:10A1A000704BD3F8983003F00203002BEFD17B689B
:10A1B0009B6A002B00F0D080BB690C2B00F08D80D7
:10A1C0007B689B6A022B5AD1664B1B68654A23F059
:10A1D00080731360FEF74CFC386108E0FEF748FC22
:10A1E00002463B69D31A022B01D90323B5E05D4B2C
:10A1F0001B6803F00073002BF0D15A4BDA685A4BFE
:10A2000013407A68D16A7A68126B013A12011143DD
:10A210007A68526B120211437A68D26B5208013A83
:10A22000520511437A68126C5208013A52061143E2
:10A230007A68926BD2060A434A491343CB60494B72
:10A240001B68484A43F080731360464BDB68454AFD
:10A2500043F08073D360FEF70BFC386108E0FEF733
:10A2600007FC02463B69D31A022B01D9032374E091
:10A270003C4B1B6803F00073002BF0D06CE0394BB3
:10A280001B68384A23F080731360364B1B6803F059
:10A290002053002B05D1334BDB68324A23F00303F4
:10A2A000D360304BDB682F4A23F0887323F480336C
:10A2B000D360FEF7DDFB386108E0FEF7D9FB02460C
:10A2C0003B69D31A022B01D9032346E0254B1B68B7
:10A2D00003F00073002BF0D13EE07B689B6A012BFA
:10A2E00001D1012339E01F4BDB687B617B6903F0FF
:10A2F00003027B68DB6A9A422CD17B6903F070020F
:10A300007B681B6B013B1B019A4223D17B6903F4E1
:10A31000FE427B685B6B1B029A421BD17B6903F098
:10A3200078427B689B6BDB069A4213D17B6903F40E
:10A33000C0027B68DB6B5B08013B5B059A4209D17D
:10A340007B6903F0C0627B681B6C5B08013B5B06AA
:10A350009A4201D0012300E0002318462037BD4671
:10A3600080BD00BF001002408C809D0180B584B08C
:10A3700000AF786039607B68002B01D10123C8E011
:10A38000664B1B6803F007033A689A4210D9634B87
:10A390001B6823F0070261493B6813430B605F4B66
:10A3A0001B6803F007033A689A4201D00123B0E02A
:10A3B0007B681B6803F00103002B4CD07B685B6853
:10A3C000032B07D1564B1B6803F00073002B21D1E0
:10A3D00001239EE07B685B68022B07D1504B1B6812
:10A3E00003F40033002B15D1012392E07B685B68F6
:10A3F000002B07D14A4B1B6803F00203002B09D145
:10A40000012386E0464B1B6803F48063002B01D1D7
:10A4100001237EE0424B9B6823F003027B685B686C
:10A420003F4913438B60FEF723FBF8600AE0FEF719
:10A430001FFB0246FB68D31A41F28832934201D9CE
:10A44000032366E0364B9B6803F00C027B685B6875
:10A450009B009A42EBD17B681B6803F00203002B40
:10A4600008D02F4B9B6823F0F0027B689B682C4937
:10A4700013438B60294B1B6803F007033A689A4229
:10A4800010D2264B1B6823F0070224493B68134374
:10A490000B60224B1B6803F007033A689A4201D015
:10A4A000012336E07B681B6803F00403002B08D00F
:10A4B0001B4B9B6823F4E0627B68DB6818491343FD
:10A4C0008B607B681B6803F00803002B09D0144BDA
:10A4D0009B6823F460527B681B69DB0010491343BF
:10A4E0008B6000F025F801460D4B9B681B0903F0BB
:10A4F0000F030C4AD35C03F01F0321FA03F30A4A4B
:10A5000013600A4B1B681846FEF766FA0346FB7297
:10A51000FB7A18461037BD4680BD00BF00200240C0
:10A5200000100240A00D06081400002004000020C6
:10A5300080B489B000AF0023FB610023BB613D4BB9
:10A540009B6803F00C033B613A4BDB6803F00303A9
:10A55000FB603B69002B05D03B690C2B21D1FB68CC
:10A56000012B1ED1334B1B6803F00803002B07D1CE
:10A57000304BD3F894301B0A03F00F03FB6105E066
:10A580002C4B1B681B0903F00F03FB612A4AFB6974
:10A5900052F82330FB613B69002B0DD1FB69BB6195
:10A5A0000AE03B69042B02D1244BBB6104E03B6908
:10A5B000082B01D1224BBB613B690C2B33D11D4BC6
:10A5C000DB6803F00303BB60BB68022B02D0032BE4
:10A5D00003D005E0194B7B6105E0194B7B6102E07C
:10A5E000FB697B6100BF134BDB681B0903F00703AA
:10A5F00001337B600F4BDB681B0A03F07F037A6932
:10A6000002FB03F27B68B2FBF3F37B61094BDB686F
:10A610005B0E03F0030301335B003B607A693B6828
:10A62000B2FBF3F3BB61BB6918462437BD465DF846
:10A63000047B704700100240B80D06080024F400A7
:10A6400000127A0080B400AF034B1B681846BD4669
:10A650005DF8047B704700BF1400002080B500AF98
:10A66000FFF7F0FF0146064B9B681B0A03F0070348
:10A67000044AD35C03F01F0321FA03F3184680BD9C
:10A6800000100240B00D060880B500AFFFF7DAFFFA
:10A690000146064B9B68DB0A03F00703044AD35CC0
:10A6A00003F01F0321FA03F3184680BD0010024097
:10A6B000B00D060880B586B000AF786000233B611E
:10A6C0002A4B9B6D03F08053002B03D0FFF7ECF96E
:10A6D000786114E0254B9B6D244A43F080539365C9
:10A6E000224B9B6D03F08053FB60FB68FFF7DCF9A6
:10A6F00078611E4B9B6D1D4A23F0805393657B69E7
:10A70000B3F5007F0BD17B68802B19D97B68A02B18
:10A7100002D902233B6113E001233B6110E07B6817
:10A72000802B02D903233B610AE07B68802B02D196
:10A7300002233B6104E07B68702B01D101233B6164
:10A740000B4B1B6823F0070209493B6913430B605D
:10A75000074B1B6803F007033A699A4201D00123B3
:10A7600000E0002318461837BD4680BD00100240A7
:10A770000020024080B586B000AF78600023FB74F3
:10A780000023BB747B681B6803F40063002B3FD07D
:10A790007B689B6EB3F5800F1CD0B3F5800F02D899
:10A7A000002B0ED01FE0B3F5000F03D0B3F5400F20
:10A7B0001CD018E0854BDB68844A43F48033D360B7
:10A7C00015E07B6804330021184600F0CBFA0346FD
:10A7D000FB740CE07B6820330021184600F0B2FBCC
:10A7E0000346FB7403E00123FB7400E000BFFB7C25
:10A7F000002B0BD1754BD3F8883023F440027B68D3
:10A800009B6E72491343C1F8883001E0FB7CBB7436
:10A810007B681B6803F48053002B3FD07B68DB6EA2
:10A82000B3F1807F1CD0B3F1807F02D8002B0ED013
:10A830001FE0B3F1007F03D0B3F1407F1CD018E0DC
:10A84000624BDB68614A43F48033D36015E07B6878
:10A8500004330021184600F085FA0346FB740CE02F
:10A860007B6820330021184600F06CFB0346FB7424
:10A8700003E00123FB7400E000BFFB7C002B0BD145
:10A88000524BD3F8883023F040727B68DB6E4F491F
:10A890001343C1F8883001E0FB7CBB747B681B6804
:10A8A00003F40033002B00F0A08000237B74474B9F
:10A8B0009B6D03F08053002B01D1012300E00023A6
:10A8C000002B0DD0414B9B6D404A43F08053936564
:10A8D0003E4B9B6D03F08053BB60BB6801237B74D0
:10A8E0003B4B1B683A4A43F480731360FEF7C0F891
:10A8F000F86009E0FEF7BCF80246FB68D31A022BA9
:10A9000002D90323FB7405E0314B1B6803F4807309
:10A91000002BEFD0FB7C002B5CD12C4BD3F890307C
:10A9200003F440737B617B69002B1FD07B68D3F8F5
:10A9300088307A699A4219D0244BD3F8903023F4A6
:10A9400040737B61214BD3F89030204A43F480332D
:10A95000C2F890301D4BD3F890301C4A23F480335A
:10A96000C2F89030194A7B69C2F890307B6903F0D5
:10A970000103002B16D0FEF77BF8F8600BE0FEF722
:10A9800077F80246FB68D31A41F28832934202D923
:10A990000323FB7406E00D4BD3F8903003F0020361
:10A9A000002BECD0FB7C002B0CD1084BD3F8903063
:10A9B00023F440727B68D3F8883004491343C1F80C
:10A9C000903009E0FB7CBB7406E000BF0010024041
:10A9D00000700040FB7CBB747B7C012B05D1A64B37
:10A9E0009B6DA54A23F0805393657B681B6803F039
:10A9F0000103002B0AD0A04BD3F8883023F00302C8
:10AA00007B689B6B9C491343C1F888307B681B684B
:10AA100003F00203002B0AD0974BD3F8883023F0C1
:10AA20000C027B68DB6B94491343C1F888307B6868
:10AA30001B6803F00403002B0AD08F4BD3F8883037
:10AA400023F030027B681B6C8B491343C1F88830BC
:10AA50007B681B6803F00803002B0AD0864BD3F8F1
:10AA6000883023F0C0027B685B6C83491343C1F8D4
:10AA700088307B681B6803F01003002B0AD07E4BE4
:10AA8000D3F8883023F440727B689B6C7A49134377
:10AA9000C1F888307B681B6803F02003002B0AD0C4
:10AAA000754BD3F8883023F440627B68DB6C7249C5
:10AAB0001343C1F888307B681B6803F40073002BD4
:10AAC0000AD06D4BD3F8883023F440227B681B6E8C
:10AAD00069491343C1F888307B681B6803F48063BD
:10AAE000002B0AD0644BD3F8883023F440127B68E3
:10AAF0005B6E61491343C1F888307B681B6803F0C3
:10AB00004003002B0AD05C4BD3F8883023F440522A
:10AB10007B681B6D58491343C1F888307B681B68FC
:10AB200003F08003002B0AD0534BD3F8883023F472
:10AB300040427B685B6D50491343C1F888307B68A5
:10AB40001B6803F48073002B0AD04B4BD3F888307A
:10AB500023F440327B689B6D47491343C1F888302A
:10AB60007B681B6803F48013002B0AD0424BD3F898
:10AB70009C3023F003027B68DB6D3F491343C1F82F
:10AB80009C307B681B6803F40053002B28D03A4BA1
:10AB9000D3F8883023F040627B681B6F364913433B
:10ABA000C1F888307B681B6FB3F1006F06D1324B60
:10ABB000DB68314A43F48013D36011E07B681B6F7C
:10ABC000B3F1806F0CD17B6804330121184600F08B
:10ABD000C9F80346FB74FB7C002B01D0FB7CBB74E3
:10ABE0007B681B6803F40023002B28D0224BD3F88A
:10ABF000883023F040627B685B6F1F491343C1F8C4
:10AC000088307B685B6FB3F1006F06D11A4BDB684D
:10AC1000194A43F48013D36011E07B685B6FB3F192
:10AC2000806F0CD17B6804330121184600F09AF83C
:10AC30000346FB74FB7C002B01D0FB7CBB747B6860
:10AC40001B6803F48023002B2AD00B4BD3F88830E9
:10AC500023F040627B689B6F07491343C1F888303B
:10AC60007B689B6FB3F1006F08D1034BDB68024A2E
:10AC700043F48013D36013E0001002407B689B6FA5
:10AC8000B3F1806F0CD17B6804330121184600F0CA
:10AC900069F80346FB74FB7C002B01D0FB7CBB7482
:10ACA0007B681B6803F48043002B2FD02C4BD3F818
:10ACB000883023F040527B68DB6F29491343C1F889
:10ACC00088307B68DB6FB3F1805F0DD17B68043324
:10ACD0000221184600F046F80346FB74FB7C002B6B
:10ACE00014D0FB7CBB7411E07B68DB6FB3F1005FB9
:10ACF0000CD17B6820330221184600F023F903466B
:10AD0000FB74FB7C002B01D0FB7CBB747B681B6855
:10AD100003F40043002B0BD0114BD3F8883023F001
:10AD200080427B68D3F880300D491343C1F88830E6
:10AD30007B681B6803F48033002B0BD0084BD3F8DF
:10AD4000883023F000427B68D3F8843004491343F1
:10AD5000C1F88830BB7C18461837BD4680BD00BF9F
:10AD60000010024080B584B000AF786039600023E5
:10AD7000FB73734BDB6803F00303002B18D0704B9D
:10AD8000DB6803F003027B681B689A420DD17B6885
:10AD90001B68002B09D06A4BDB681B0903F0070313
:10ADA0005A1C7B685B689A4244D00123FB7341E0E4
:10ADB0007B681B68022B0CD0032B13D0012B20D1F6
:10ADC0005F4B1B6803F00203002B1DD10123FB73B3
:10ADD0001AE05B4B1B6803F48063002B16D1012340
:10ADE000FB7313E0564B1B6803F40033002B0FD1A9
:10ADF000534B1B6803F48023002B09D10123FB7301
:10AE000006E00123FB7304E000BF02E000BF00E0A6
:10AE100000BFFB7B002B0DD1494BDB6823F0730295
:10AE20007B6819687B685B68013B1B010B434449E5
:10AE30001343CB60FB7B002B7CD1414B1B68404A0A
:10AE400023F080631360FDF713FEB86009E0FDF79F
:10AE50000FFE0246BB68D31A022B02D90323FB73F1
:10AE600005E0374B1B6803F00063002BEFD1FB7B41
:10AE7000002B5FD13B68002B10D1314B1B6923F0B5
:10AE8000784323F4FE437A68926811027A68D268A4
:10AE9000D2060A432A4913430B6127E03B68012B82
:10AEA00012D1274B1B6923F4C00323F4FE437A68B5
:10AEB000926811027A6812695208013A52050A43EF
:10AEC0001F4913430B6111E01D4B1B6923F0C06345
:10AED00023F4FE437A68926811027A685269520834
:10AEE000013A52060A43164913430B61144B1B687F
:10AEF000134A43F080631360FDF7BAFDB86009E0C0
:10AF0000FDF7B6FD0246BB68D31A022B02D9032314
:10AF1000FB7305E00A4B1B6803F00063002BEFD0C6
:10AF2000FB7B002B06D1064B1A697B689B690449A1
:10AF300013430B61FB7B18461037BD4680BD00BF35
:10AF40000010024080B584B000AF78603960002303
:10AF5000FB73684BDB6803F00303002B18D0654BD1
:10AF6000DB6803F003027B681B689A420DD17B68A3
:10AF70001B68002B09D05F4BDB681B0903F007033C
:10AF80005A1C7B685B689A4244D00123FB7341E002
:10AF90007B681B68022B0CD0032B13D0012B20D114
:10AFA000544B1B6803F00203002B1DD10123FB73DC
:10AFB0001AE0504B1B6803F48063002B16D1012369
:10AFC000FB7313E04B4B1B6803F40033002B0FD1D2
:10AFD000484B1B6803F48023002B09D10123FB732A
:10AFE00006E00123FB7304E000BF02E000BF00E0C5
:10AFF00000BFFB7B002B0DD13E4BDB6823F07302BF
:10B000007B6819687B685B68013B1B010B4339490E
:10B010001343CB60FB7B002B66D1364B1B68354A54
:10B0200023F080531360FDF723FDB86009E0FDF7BE
:10B030001FFD0246BB68D31A022B02D90323FB7300
:10B0400005E02C4B1B6803F00053002BEFD1FB7B7A
:10B05000002B49D13B68002B10D1264B5B6923F0B4
:10B06000784323F4FE437A68926811027A68D268C2
:10B07000D2060A431F4913434B6111E01D4B5B6924
:10B0800023F0C06323F4FE437A68926811027A6861
:10B0900012695208013A52060A43164913434B619A
:10B0A000144B1B68134A43F080531360FDF7E0FC18
:10B0B000B86009E0FDF7DCFC0246BB68D31A022B3E
:10B0C00002D90323FB7305E00A4B1B6803F000530E
:10B0D000002BEFD0FB7B002B06D1064B5A697B6817
:10B0E0005B69044913434B61FB7B18461037BD462F
:10B0F00080BD00BF0010024080B584B000AF786012
:10B100007B68002B01D101237CE07B6800229A62DE
:10B110007B6893F85D30DBB2002B06D17B680022A0
:10B1200083F85C2078681FF0E3FB7B68022283F8D9
:10B130005D207B681B681A687B681B6822F04002F0
:10B140001A607B68DB68B3F5E06F02D90023FB600F
:10B1500002E04FF48053FB607B68DB68B3F5706FEF
:10B1600007D07B68DB68B3F5E06F02D07B68002214
:10B170009A627B681B6B002B0BD17B68DB68B3F595
:10B18000E06F03D97B6802221A6302E07B68012228
:10B190001A637B685A687B689B681A437B681B69E3
:10B1A0001A437B685B691A437B689B6903F40073ED
:10B1B0001A437B68DB691A437B681B6A42EA030116
:10B1C0007B689A6A7B681B680A431A607B689B6984
:10B1D0001B0C03F004027B685B6A1A437B685B6BA1
:10B1E0001A437B68DB6842EA03017B681B68FA68E4
:10B1F0000A435A607B6800221A667B68012283F842
:10B200005D20002318461037BD4680BD80B58AB04A
:10B2100000AFF860B9607A607B8001237B62002315
:10B2200087F82330FB6893F85C30012B01D10223AF
:10B23000FBE1FB68012283F85C20FDF719FCF86153
:10B24000FB6893F85D30FB76FB685B687B617B880D
:10B250007B827B883B82FB7E012B0ED07B69B3F522
:10B26000827F06D1FB689B68002B02D1FB7E042BFA
:10B2700003D0022387F82330CDE1BB68002B05D033
:10B280007B68002B02D07B88002B03D1012387F839
:10B290002330C0E1FB6893F85D30DBB2042B03D0B0
:10B2A000FB68052283F85D20FB6800221A66FB68B4
:10B2B0007A681A64FB687A88A3F84620FB687A8863
:10B2C000A3F84420FB68BA689A63FB687A88DA8737
:10B2D000FB687A889A87FB680022DA64FB680022A0
:10B2E0001A65FB68DB68B3F5E06F02D83B8A012B77
:10B2F00008D9FB681B685A68FB681B6822F48052F7
:10B300005A6007E0FB681B685A68FB681B6842F4D8
:10B3100080525A60FB681B681B6803F04003402B97
:10B3200007D0FB681B681A68FB681B6842F0400284
:10B330001A60FB68DB68B3F5E06F7CD9FB685B687B
:10B34000002B02D07B8A012B69D1FB689B6B1A888A
:10B35000FB681B68DA60FB689B6B9A1CFB689A634E
:10B36000FB68DB8F9BB2013B9AB2FB68DA8756E041
:10B37000FB681B689B6803F00203022B1BD1FB6870
:10B38000DB8F9BB2002B16D07B6A012B13D1FB689D
:10B390009B6B1A88FB681B68DA60FB689B6B9A1CC6
:10B3A000FB689A63FB68DB8F9BB2013B9AB2FB6838
:10B3B000DA8700237B62FB681B689B6803F001034C
:10B3C000012B1CD1FB68B3F846309BB2002B16D082
:10B3D000FB681B68DA68FB681B6C92B21A80FB681A
:10B3E0001B6C9A1CFB681A64FB68B3F846309BB26E
:10B3F000013B9AB2FB68A3F8462001237B62FDF76C
:10B4000037FB0246FB69D31A3A6B9A4207D83B6B6B
:10B41000B3F1FF3F03D0032387F82330FBE0FB6841
:10B42000DB8F9BB2002BA3D1FB68B3F846309BB2F5
:10B43000002B9DD1DFE0FB685B68002B03D07B8A8B
:10B44000012B40F0CB80FB68DB8F9BB2012B12D924
:10B45000FB689B6B1A88FB681B68DA60FB689B6B58
:10B460009A1CFB689A63FB68DB8F9BB2023B9AB223
:10B47000FB68DA87B2E0FB689A6BFB681B680C33E9
:10B4800012781A70FB689B6B5A1CFB689A63FB6806
:10B49000DB8F9BB2013B9AB2FB68DA879EE0FB68C8
:10B4A0001B689B6803F00203022B34D1FB68DB8F1F
:10B4B0009BB2002B2FD07B6A012B2CD1FB68DB8F3A
:10B4C0009BB2012B12D9FB689B6B1A88FB681B6827
:10B4D000DA60FB689B6B9A1CFB689A63FB68DB8FE6
:10B4E0009BB2023B9AB2FB68DA8712E0FB689A6B68
:10B4F000FB681B680C3312781A70FB689B6B5A1C34
:10B50000FB689A63FB68DB8F9BB2013B9AB2FB68D6
:10B51000DA8700237B62FB681B689B6803F00103EA
:10B52000012B48D1FB68B3F846309BB2002B42D0C8
:10B53000FB68B3F846309BB2012B23D9FB681B682C
:10B54000DA68FB681B6C92B21A80FB681B6C9A1C51
:10B55000FB681A64FB68B3F846309BB2023B9AB2B0
:10B56000FB68A3F84620FB68B3F846309BB2012B7A
:10B570001FD8FB681B685A68FB681B6842F480523E
:10B580005A6016E0FB681B6803F10C02FB681B6C39
:10B590001278D2B21A70FB681B6C5A1CFB681A64D2
:10B5A000FB68B3F846309BB2013B9AB2FB68A3F844
:10B5B000462001237B62FDF75BFA0246FB69D31A42
:10B5C0003A6B9A4203D83B6BB3F1FF3F02D13B6B1E
:10B5D000002B03D1032387F823301CE0FB68DB8FAB
:10B5E0009BB2002B7FF45BAFFB68B3F846309BB295
:10B5F000002B7FF454AFFA69396BF86800F0F0F86B
:10B600000346002B06D0012387F82330FB68202255
:10B610001A6600E000BFFB68012283F85D20FB682A
:10B62000002283F85C2097F8233018462837BD465F
:10B6300080BD80B584B000AFF860B9603B60134650
:10B64000FB714CE03B68B3F1FF3F48D0FDF710FAC7
:10B650000246BB69D31A3A689A4202D93B68002B6A
:10B660003DD1FB681B685A68FB681B6822F0E0024A
:10B670005A60FB685B68B3F5827F11D1FB689B68F9
:10B68000B3F5004F04D0FB689B68B3F5806F07D11A
:10B69000FB681B681A68FB681B6822F040021A608E
:10B6A000FB689B6AB3F5005F0FD1FB681B681A68E3
:10B6B000FB681B6822F400521A60FB681B681A685A
:10B6C000FB681B6842F400521A60FB68012283F891
:10B6D0005D20FB68002283F85C2003230FE0FB68F9
:10B6E0001B689A68BB681340BA689A420CBF012372
:10B6F0000023DBB21A46FB799A42A3D100231846F5
:10B700001037BD4680BD80B584B000AFF860B96029
:10B710007A603B6057E0BB68B3F5C06F06D17B68C9
:10B72000002B03D1FB681B680C331B783B68B3F11B
:10B73000FF3F48D0FDF79CF90246BB69D31A3A682F
:10B740009A4202D93B68002B3DD1FB681B685A68BE
:10B75000FB681B6822F0E0025A60FB685B68B3F587
:10B76000827F11D1FB689B68B3F5004F04D0FB6862
:10B770009B68B3F5806F07D1FB681B681A68FB688C
:10B780001B6822F040021A60FB689B6AB3F5005FF9
:10B790000FD1FB681B681A68FB681B6822F4005213
:10B7A0001A60FB681B681A68FB681B6842F4005249
:10B7B0001A60FB68012283F85D20FB68002283F891
:10B7C0005C20032308E0FB681B689A68BB68134091
:10B7D0007A689A429FD1002318461037BD4680BD33
:10B7E00080B586B002AFF860B9607A607B6800937C
:10B7F000BB6800224FF4C051F868FFF784FF03468E
:10B80000002B07D0FB681B6E43F02002FB681A6612
:10B81000032327E07B680093BB6800228021F8683F
:10B82000FFF707FF0346002B07D0FB681B6E43F0B2
:10B830002002FB681A66032314E07B680093BB6850
:10B8400000224FF4C061F868FFF75DFF0346002B4C
:10B8500007D0FB681B6E43F02002FB681A660323C7
:10B8600000E0002318461037BD4680BD80B582B089
:10B8700000AF78607B68002B01D101231DE07B685D
:10B8800093F83D30DBB2002B06D17B68002283F8B1
:10B890003C2078681FF06EF87B68022283F83D2018
:10B8A0007B681A687B6804331946104600F07AF901
:10B8B0007B68012283F83D20002318460837BD46E7
:10B8C00080BD000080B584B000AF786039607B68CF
:10B8D0001B6801223968184600F0D4FC7B681B689D
:10B8E0001E4A934213D07B681B681D4A93420ED0B8
:10B8F0007B681B681B4A934209D07B681B681A4A05
:10B90000934204D07B681B68184A934201D10123FB
:10B9100000E00023002B07D07B681B685A6C7B6813
:10B920001B6842F400425A647B681B689A68104B9B
:10B930001340FB60FB68062B0BD0FB68B3F5803F20
:10B9400007D07B681B681A687B681B6842F001029D
:10B950001A60002318461037BD4680BD002C0140F8
:10B9600000340140004001400044014000480140D3
:10B970000700010080B584B000AFF860B9607A605C
:10B98000FB6893F83C30012B01D1022305E1FB68F1
:10B99000012283F83C20FB68022283F83D207B686B
:10B9A000142B00F2F08001A252F823F001BA000833
:10B9B00087BB000887BB000887BB000841BA0008A6
:10B9C00087BB000887BB000887BB000883BA000854
:10B9D00087BB000887BB000887BB0008C3BA000804
:10B9E00087BB000887BB000887BB000805BB0008B1
:10B9F00087BB000887BB000887BB000845BB000861
:10BA0000FB681B68B968184600F066F9FB681B689C
:10BA10009A69FB681B6842F008029A61FB681B6820
:10BA20009A69FB681B6822F004029A61FB681B6834
:10BA30009969BB681A69FB681B680A439A61A3E0AD
:10BA4000FB681B68B968184600F0D6F9FB681B68EC
:10BA50009A69FB681B6842F400629A61FB681B6884
:10BA60009A69FB681B6822F480629A61FB681B6814
:10BA70009969BB681B691A02FB681B680A439A61D3
:10BA800082E0FB681B68B968184600F03FFAFB6863
:10BA90001B68DA69FB681B6842F00802DA61FB6820
:10BAA0001B68DA69FB681B6822F00402DA61FB6834
:10BAB0001B68D969BB681A69FB681B680A43DA61AD
:10BAC00062E0FB681B68B968184600F0A7FAFB68DB
:10BAD0001B68DA69FB681B6842F40062DA61FB6884
:10BAE0001B68DA69FB681B6822F48062DA61FB6814
:10BAF0001B68D969BB681B691A02FB681B680A438B
:10BB0000DA6141E0FB681B68B968184600F0F0FA9A
:10BB1000FB681B685A6DFB681B6842F008025A6597
:10BB2000FB681B685A6DFB681B6822F004025A65AB
:10BB3000FB681B68596DBB681A69FB681B680A4380
:10BB40005A6521E0FB681B68B968184600F034FBB1
:10BB5000FB681B685A6DFB681B6842F400625A65FB
:10BB6000FB681B685A6DFB681B6822F480625A658B
:10BB7000FB681B68596DBB681B691A02FB681B6870
:10BB80000A435A6500E000BFFB68012283F83D20AC
:10BB9000FB68002283F83C20002318461037BD467E
:10BBA00080BD00BF80B485B000AF786039607B682D
:10BBB0001B68FB607B68404A934213D07B68B3F1FB
:10BBC000804F0FD07B683D4A93420BD07B683C4A44
:10BBD000934207D07B683B4A934203D07B683A4A42
:10BBE000934208D1FB6823F07003FB603B685B68FD
:10BBF000FA681343FB607B682F4A93421FD07B682F
:10BC0000B3F1804F1BD07B682C4A934217D07B68DE
:10BC10002B4A934213D07B682A4A93420FD07B6809
:10BC2000294A93420BD07B68284A934207D07B680D
:10BC3000274A934203D07B68264A934208D1FB6887
:10BC400023F44073FB603B68DB68FA681343FB60D6
:10BC5000FB6823F080023B685B691343FB607B68F1
:10BC6000FA681A603B689A687B68DA623B681A680F
:10BC70007B689A627B68104A93420FD07B68124AB5
:10BC800093420BD07B68114A934207D07B68104ADD
:10BC9000934203D07B680F4A934203D13B681A69F1
:10BCA0007B681A637B6801225A6100BF1437BD4666
:10BCB0005DF8047B704700BF002C01400004004089
:10BCC00000080040000C00400034014000400140EA
:10BCD000004401400048014080B487B000AF786064
:10BCE00039607B681B6A23F001027B681A627B68FB
:10BCF0001B6A7B617B685B683B617B689B69FB605F
:10BD0000FB6823F4803323F07003FB60FB6823F0AF
:10BD10000303FB603B681B68FA681343FB607B69A5
:10BD200023F002037B613B689B687A6913437B6164
:10BD30007B682C4A93420FD07B682B4A93420BD0EE
:10BD40007B682A4A934207D07B68294A934203D0F2
:10BD50007B68284A93420CD17B6923F008037B61FE
:10BD60003B68DB687A6913437B617B6923F00403DA
:10BD70007B617B681B4A93420FD07B681A4A9342CF
:10BD80000BD07B68194A934207D07B68184A9342CC
:10BD900003D07B68174A934211D13B6923F4807327
:10BDA0003B613B6923F400733B613B685B693A6923
:10BDB00013433B613B689B693A6913433B617B6872
:10BDC0003A695A607B68FA689A613B685A687B688E
:10BDD0005A637B687A691A6200BF1C37BD465DF8FA
:10BDE000047B7047002C01400034014000400140BA
:10BDF000004401400048014080B487B000AF786043
:10BE000039607B681B6A23F010027B681A627B68CA
:10BE10001B6A7B617B685B683B617B689B69FB603D
:10BE2000FB6823F0807323F4E043FB60FB6823F49A
:10BE30004073FB603B681B681B02FA681343FB609E
:10BE40007B6923F020037B613B689B681B017A6957
:10BE500013437B617B68284A934203D07B68274A5F
:10BE600093420DD17B6923F080037B613B68DB68E3
:10BE70001B017A6913437B617B6923F040037B617B
:10BE80007B681D4A93420FD07B681C4A93420BD0BB
:10BE90007B681B4A934207D07B681A4A934203D0BF
:10BEA0007B68194A934213D13B6923F480633B6159
:10BEB0003B6923F400633B613B685B699B003A6923
:10BEC00013433B613B689B699B003A6913433B61A9
:10BED0007B683A695A607B68FA689A613B685A687D
:10BEE0007B689A637B687A691A6200BF1C37BD461B
:10BEF0005DF8047B704700BF002C01400034014016
:10BF000000400140004401400048014080B487B037
:10BF100000AF786039607B681B6A23F480727B68AD
:10BF20001A627B681B6A7B617B685B683B617B682C
:10BF3000DB69FB60FB6823F4803323F07003FB6054
:10BF4000FB6823F00303FB603B681B68FA6813433C
:10BF5000FB607B6923F400737B613B689B681B0279
:10BF60007A6913437B617B68274A934203D07B68DD
:10BF7000264A93420DD17B6923F400637B613B68C1
:10BF8000DB681B027A6913437B617B6923F480635E
:10BF90007B617B681C4A93420FD07B681B4A9342AB
:10BFA0000BD07B681A4A934207D07B68194A9342A8
:10BFB00003D07B68184A934213D13B6923F4805322
:10BFC0003B613B6923F400533B613B685B691B01A8
:10BFD0003A6913433B613B689B691B013A69134310
:10BFE0003B617B683A695A607B68FA68DA613B6852
:10BFF0005A687B68DA637B687A691A6200BF1C370B
:10C00000BD465DF8047B7047002C014000340140C0
:10C0100000400140004401400048014080B487B026
:10C0200000AF786039607B681B6A23F480527B68BC
:10C030001A627B681B6A3B617B685B687B617B681B
:10C04000DB69FB60FB6823F0807323F4E043FB6053
:10C05000FB6823F44073FB603B681B681B02FA68B3
:10C060001343FB603B6923F400533B613B689B68CF
:10C070001B033A6913433B617B68184A93420FD014
:10C080007B68174A93420BD07B68164A934207D0CD
:10C090007B68154A934203D07B68144A934209D1C6
:10C0A0007B6923F480437B613B685B699B017A6910
:10C0B00013437B617B687A695A607B68FA68DA614E
:10C0C0003B685A687B681A647B683A691A6200BFE9
:10C0D0001C37BD465DF8047B704700BF002C014053
:10C0E000003401400040014000440140004801404C
:10C0F00080B487B000AF786039607B681B6A23F436
:10C1000080327B681A627B681B6A3B617B685B6874
:10C110007B617B685B6DFB60FB6823F4803323F0FD
:10C120007003FB603B681B68FA681343FB603B6964
:10C1300023F400333B613B689B681B043A6913435B
:10C140003B617B68174A93420FD07B68164A934243
:10C150000BD07B68154A934207D07B68144A934200
:10C1600003D07B68134A934209D17B6923F480335F
:10C170007B613B685B691B027A6913437B617B6867
:10C180007A695A607B68FA685A653B685A687B68C6
:10C190009A657B683A691A6200BF1C37BD465DF834
:10C1A000047B7047002C01400034014000400140F6
:10C1B000004401400048014080B487B000AF78607F
:10C1C00039607B681B6A23F480127B681A627B6883
:10C1D0001B6A3B617B685B687B617B685B6DFB60B6
:10C1E000FB6823F0807323F4E043FB603B681B682B
:10C1F0001B02FA681343FB603B6923F400133B61A5
:10C200003B689B681B053A6913433B617B68184A8E
:10C2100093420FD07B68174A93420BD07B68164A33
:10C22000934207D07B68154A934203D07B68144A37
:10C23000934209D17B6923F480237B613B685B696E
:10C240009B027A6913437B617B687A695A607B68D9
:10C25000FA685A653B685A687B68DA657B683A69B0
:10C260001A6200BF1C37BD465DF8047B704700BFF3
:10C27000002C0140003401400040014000440140D6
:10C280000048014080B487B000AFF860B9607A60C0
:10C29000BB6803F01F03012202FA03F37B61FB6812
:10C2A0001A6A7B69DB431A40FB681A62FB681A6AE8
:10C2B000BB6803F01F03796801FA03F31A43FB68B4
:10C2C0001A6200BF1C37BD465DF8047B7047000052
:10C2D00080B485B000AF786039607B6893F83C30FB
:10C2E000012B01D1022345E07B68012283F83C2029
:10C2F0007B68022283F83D207B681B685B68FB60DB
:10C300007B681B689B68BB607B681B681C4A934208
:10C3100004D07B681B681B4A934208D1FB6823F456
:10C320007003FB603B685B68FA681343FB60FB6863
:10C3300023F07003FB603B681B68FA681343FB60E3
:10C34000BB6823F08003BB603B689B68BA681343FB
:10C35000BB607B681B68FA685A607B681B68BA68B8
:10C360009A607B68012283F83D207B68002283F875
:10C370003C20002318461437BD465DF8047B704707
:10C38000002C01400034014080B582B000AF7860DD
:10C390007B68002B01D1012340E07B685B6F002BA1
:10C3A00006D17B68002283F8702078681EF03AFB83
:10C3B0007B6824225A677B681B681A687B681B6845
:10C3C00022F001021A60786800F060FA0346012B3F
:10C3D00001D1012322E07B685B6A002B02D07868E0
:10C3E00000F09CFD7B681B685A687B681B6822F420
:10C3F00090425A607B681B689A687B681B6822F0D1
:10C400002A029A607B681B681A687B681B6842F086
:10C4100001021A60786800F023FE034618460837C8
:10C42000BD4680BD80B58AB002AFF860B9603B60A0
:10C430001346FB80FB685B6F202B40F08180BB685C
:10C44000002B02D0FB88002B01D1012379E0FB688F
:10C4500093F87030012B01D1022372E0FB680122B6
:10C4600083F87020FB680022DA67FB6821225A6794
:10C47000FCF7FEFA7861FB68FA88A3F85020FB68A5
:10C48000FA88A3F85220FB689B68B3F5805F08D157
:10C49000FB681B69002B04D10023FB61BB68BB61F7
:10C4A00003E0BB68FB610023BB612DE03B680093A8
:10C4B0007B6900228021F86800F017FE0346002BFC
:10C4C00001D003233DE0FB69002B0BD1BB691A8827
:10C4D000FB681B68C2F3080292B21A85BB6902337B
:10C4E000BB6108E0FB691A78FB681B6892B21A8589
:10C4F000FB690133FB61FB68B3F852309BB2013B2F
:10C500009AB2FB68A3F85220FB68B3F852309BB292
:10C51000002BCBD13B6800937B6900224021F86857
:10C5200000F0E3FD0346002B01D0032309E0FB6884
:10C5300020225A67FB68002283F87020002300E065
:10C54000022318462037BD4680BD000080B485B068
:10C5500000AFF860B9601346FB80FB685B6F202B6F
:10C5600044D1BB68002B02D0FB88002B01D10123F2
:10C570003DE0FB6893F87030012B01D1022336E0D7
:10C58000FB68012283F87020FB68BA68DA64FB68F4
:10C59000FA88A3F85020FB68FA88A3F85220FB68B9
:10C5A00000225A66FB680022DA67FB6821225A677C
:10C5B000FB689B68B3F5805F07D1FB681B69002BA4
:10C5C00003D1FB680D4A5A6602E0FB680C4A5A66C2
:10C5D000FB68002283F87020FB681B681A68FB6800
:10C5E0001B6842F080021A60002300E00223184614
:10C5F0001437BD465DF8047B704700BF5BD200086E
:10C60000E7D1000880B588B000AF78607B681B6810
:10C61000DB69FB617B681B681B68BB617B681B680F
:10C620009B687B61FB6903F00F033B613B69002B57
:10C6300013D1FB6903F02003002B0ED0BB6903F07C
:10C640002003002B09D07B681B6E002B00F0FF80BD
:10C650007B681B6E78689847F9E03B69002B00F017
:10C66000C1807B6903F00103002B05D1BB6903F492
:10C670009073002B00F0B680FB6903F00103002BE0
:10C680000ED0BB6903F48073002B09D07B681B6854
:10C6900001221A627B68DB6F43F001027B68DA6774
:10C6A000FB6903F00203002B0ED07B6903F001034A
:10C6B000002B09D07B681B6802221A627B68DB6F43
:10C6C00043F004027B68DA67FB6903F00403002B84
:10C6D0000ED07B6903F00103002B09D07B681B6837
:10C6E00004221A627B68DB6F43F002027B68DA6720
:10C6F000FB6903F00803002B13D0BB6903F0200390
:10C70000002B04D17B6903F00103002B09D07B6867
:10C710001B6808221A627B68DB6F43F008027B68A3
:10C72000DA677B68DB6F002B00F09380FB6903F016
:10C730002003002B0CD0BB6903F02003002B07D093
:10C740007B681B6E002B03D07B681B6E7868984754
:10C750007B68DB6FFB607B681B689B6803F04003B2
:10C76000402B04D0FB6803F00803002B31D078681D
:10C7700000F003FD7B681B689B6803F04003402BBF
:10C7800023D17B681B689A687B681B6822F0400293
:10C790009A607B68DB6E002B13D07B68DB6E304ABF
:10C7A0009A637B68DB6E1846FCF7A1FA0346002B00
:10C7B00016D07B68DB6E9B6B7A68D26E104698470A
:10C7C0000EE0786800F058F80AE0786800F054F855
:10C7D00006E0786800F050F87B680022DA6738E0FD
:10C7E00000BF36E0FB6903F48013002B0DD07B699A
:10C7F00003F48003002B08D07B681B684FF4801281
:10C800001A62786800F080FD26E0FB6903F080037F
:10C81000002B0DD0BB6903F08003002B08D07B6890
:10C820005B6E002B17D07B685B6E7868984712E0D0
:10C83000FB6903F04003002B0ED0BB6903F04003FB
:10C84000002B09D0786800F046FD00BF04E000BF6F
:10C8500002E000BF00E000BF2037BD4680BD00BF42
:10C86000BBD1000880B483B000AF786000BF0C3744
:10C87000BD465DF8047B704780B483B000AF78603C
:10C8800000BF0C37BD465DF8047B70472DE990482A
:10C8900088B000AF786000237B610023FB74002325
:10C8A000FB607B689A687B681B691A437B685B69DD
:10C8B0001A437B68DB691343FB617B681B681A685A
:10C8C000AC4B13407A681268F9690B4313607B68BC
:10C8D0001B685B6823F440517B68DA687B681B68DF
:10C8E0000A435A607B689B69FB617B681B68A24AAC
:10C8F000934204D07B681B6AFA691343FB617B682F
:10C900001B689B6823F430617B681B68FA690A43E3
:10C910009A607B681B68994A934221D1984BD3F85F
:10C92000883003F00303032B16D801A252F823F03A
:10C9300041C900084DC9000847C9000853C900088B
:10C940000123FB76E8E00223FB76E5E00423FB7697
:10C95000E2E00823FB76DFE01023FB7600BFDBE09C
:10C960007B681B68874A934234D1854BD3F8883063
:10C9700003F00C030C2B29D801A252F823F000BFBE
:10C98000B5C90008CDC90008CDC90008CDC9000847
:10C99000C1C90008CDC90008CDC90008CDC900082B
:10C9A000BBC90008CDC90008CDC90008CDC9000821
:10C9B000C7C900080023FB76AEE00223FB76ABE09C
:10C9C0000423FB76A8E00823FB76A5E01023FB7682
:10C9D00000BFA1E07B681B686B4A934220D1684B83
:10C9E000D3F8883003F03003102B0FD0102B02D86F
:10C9F000002B05D010E0202B05D0302B09D00BE008
:10CA00000023FB7688E00223FB7685E00423FB7697
:10CA100082E00823FB767FE01023FB7600BF7BE0FB
:10CA20007B681B68594A934220D1554BD3F8883014
:10CA300003F0C003402B0FD0402B02D8002B05D0B1
:10CA400010E0802B05D0C02B09D00BE00023FB7633
:10CA500062E00223FB765FE00423FB765CE00823C0
:10CA6000FB7659E01023FB7600BF55E07B681B681E
:10CA7000474A934224D1424BD3F8883003F44073A1
:10CA8000B3F5807F12D0B3F5807F02D8002B07D09A
:10CA900012E0B3F5007F06D0B3F5407F09D00BE07C
:10CAA0000023FB7638E00223FB7635E00423FB7697
:10CAB00032E00823FB762FE01023FB7600BF2BE04B
:10CAC0007B681B682C4A934224D12D4BD3F88830C5
:10CAD00003F44063B3F5806F12D0B3F5806F02D8D2
:10CAE000002B07D012E0B3F5006F06D0B3F5406F0E
:10CAF00009D00BE00023FB760EE00223FB760BE06F
:10CB00000423FB7608E00823FB7605E01023FB7680
:10CB100000BF01E01023FB767B681B68164A934236
:10CB200040F0FA80FB7E082B36D801A252F823F0A1
:10CB300055CB000899CB00085DCB000899CB0008C5
:10CB400063CB000899CB000899CB000899CB00086B
:10CB50006BCB0008FDF782FDF86020E00D4BFB6019
:10CB60001DE0FDF7E5FCF86019E04FF40043FB60C1
:10CB700015E000BFF369FFEF00800040003801407E
:10CB8000001002400044004000480040004C0040BB
:10CB9000005000400024F4000123FB7400BFFB6838
:10CBA000002B00F0AC817B685A6813465B0013448D
:10CBB000FA689A4205D37B685B681B03FA689A425D
:10CBC00002D90123FB749AE1FB7E082B00F29180CD
:10CBD00001A252F823F000BFFDCB0008F3CC0008FF
:10CBE00049CC0008F3CC00087DCC0008F3CC000849
:10CBF000F3CC0008F3CC0008C9CC0008FDF72EFDEB
:10CC0000034619464FF000024FF000034FF00004B6
:10CC1000140244EA11640B027A6852685208114601
:10CC20004FF0000213EB010B44EB020C5846614637
:10CC30007B685B684FF000041A462346FAF7AEFDA6
:10CC400003460C467B6157E07B685B685B084FF0EE
:10CC50000004B1494FF0000213EB010B44EB020C4E
:10CC6000584661467B685B684FF000041A462346CD
:10CC7000FAF794FD03460C467B613DE0FDF758FC56
:10CC8000034619464FF000024FF000034FF0000436
:10CC9000140244EA11640B027A6852685208114681
:10CCA0004FF0000213EB010B44EB020C58466146B7
:10CCB0007B685B684FF000041A462346FAF76EFD66
:10CCC00003460C467B6117E07B685B685B084FF0AE
:10CCD000000413F5000044F100017B685B684FF02D
:10CCE00000041A462346FAF759FD03460C467B61B9
:10CCF00002E00123FB7400BF7B69B3F5407F08D3DA
:10CD00007B69B3F5801F04D27B681B687A69DA609F
:10CD1000F5E00123FB74F2E07B68DB69B3F5004FBB
:10CD20007FD1FB7E082B5CD801A252F823F000BF14
:10CD300055CD000873CD000891CD0008E3CD000863
:10CD4000ADCD0008E3CD0008E3CD0008E3CD000839
:10CD5000CBCD0008FDF782FC03465A007B685B6878
:10CD60005B081A447B685B68B2FBF3F39BB27B61A0
:10CD70003AE0FDF789FC03465A007B685B685B0874
:10CD80001A447B685B68B2FBF3F39BB27B612BE0D8
:10CD90007B685B685B0803F1F47303F590437A6882
:10CDA0005268B3FBF2F39BB27B611DE0FDF7C0FB61
:10CDB00003465A007B685B685B081A447B685B68C3
:10CDC000B2FBF3F39BB27B610EE07B685B685B08B0
:10CDD00003F580327B685B68B2FBF3F39BB27B6147
:10CDE00002E00123FB7400BF7B690F2B16D97B691E
:10CDF000B3F5803F12D27B699BB223F00F037B8196
:10CE00007B695B089BB203F007039AB27B891343EB
:10CE10007B817B681B687A89DA6070E00123FB7490
:10CE20006DE0FB7E082B59D801A252F823F000BF19
:10CE300055CE000871CE00088DCE0008DDCE00086A
:10CE4000A9CE0008DDCE0008DDCE0008DDCE00084A
:10CE5000C5CE0008FDF702FC02467B685B685B08F4
:10CE60001A447B685B68B2FBF3F39BB27B6138E0EA
:10CE7000FDF70AFC02467B685B685B081A447B6826
:10CE80005B68B2FBF3F39BB27B612AE07B685B6873
:10CE90005B0803F5740303F510537A685268B3FB1B
:10CEA000F2F39BB27B611CE0FDF742FB02467B681C
:10CEB0005B685B081A447B685B68B2FBF3F39BB268
:10CEC0007B610EE07B685B685B0803F500427B6872
:10CED0005B68B2FBF3F39BB27B6102E00123FB745E
:10CEE00000BF7B690F2B08D97B69B3F5803F04D263
:10CEF0007B681B687A69DA6001E00123FB747B6858
:10CF000000221A667B6800225A66FB7C184620378E
:10CF1000BD46BDE8908800BF000024F480B483B013
:10CF200000AF78607B685B6A03F00103002B0AD0D6
:10CF30007B681B685B6823F400317B689A6A7B68B6
:10CF40001B680A435A607B685B6A03F00203002B8C
:10CF50000AD07B681B685B6823F480317B68DA6ADF
:10CF60007B681B680A435A607B685B6A03F00403B2
:10CF7000002B0AD07B681B685B6823F480217B68E8
:10CF80001A6B7B681B680A435A607B685B6A03F014
:10CF90000803002B0AD07B681B685B6823F4004100
:10CFA0007B685A6B7B681B680A435A607B685B6AC4
:10CFB00003F01003002B0AD07B681B689B6823F4E6
:10CFC00080517B689A6B7B681B680A439A607B6818
:10CFD0005B6A03F02003002B0AD07B681B689B6808
:10CFE00023F400517B68DA6B7B681B680A439A6004
:10CFF0007B685B6A03F04003002B1AD07B681B68D8
:10D000005B6823F480117B681A6C7B681B680A4399
:10D010005A607B681B6CB3F5801F0AD17B681B6864
:10D020005B6823F4C0017B685A6C7B681B680A4309
:10D030005A607B685B6A03F08003002B0AD07B6830
:10D040001B685B6823F400217B689A6C7B681B6813
:10D050000A435A6000BF0C37BD465DF8047B704739
:10D0600080B586B002AF78607B680022DA67FBF794
:10D07000FFFCF8607B681B681B6803F00803082B43
:10D080000ED16FF07E430093FB6800224FF4001135
:10D09000786800F02AF80346002B01D0032320E033
:10D0A0007B681B681B6803F00403042B0ED16FF030
:10D0B0007E430093FB6800224FF48001786800F003
:10D0C00014F80346002B01D003230AE07B682022DA
:10D0D0005A677B6820229A677B68002283F8702059
:10D0E000002318461037BD4680BD80B584B000AF20
:10D0F000F860B9603B601346FB712AE0BB69B3F18D
:10D10000FF3F26D0FBF7B4FC02463B68D31ABA694E
:10D110009A4202D3BB69002B1BD1FB681B681A68BB
:10D12000FB681B6822F4D0721A60FB681B689A685F
:10D13000FB681B6822F001029A60FB6820225A6794
:10D14000FB6820229A67FB68002283F87020032383
:10D150000FE0FB681B68DA69BB681340BA689A4243
:10D160000CBF01230023DBB21A46FB799A42C5D0DB
:10D17000002318461037BD4680BD80B483B000AF91
:10D1800078607B681B681A687B681B6822F4907261
:10D190001A607B681B689A687B681B6822F0010232
:10D1A0009A607B6820229A677B6800221A6600BF1B
:10D1B0000C37BD465DF8047B704780B584B000AF86
:10D1C00078607B689B6AFB60FB680022A3F85A20AA
:10D1D000FB680022A3F85220F868FFF74DFB00BF60
:10D1E0001037BD4680BD80B483B000AF78607B68E7
:10D1F0005B6F212B2BD17B68B3F852309BB2002B95
:10D2000010D17B681B681A687B681B6822F080025B
:10D210001A607B681B681A687B681B6842F04002D2
:10D220001A6014E07B68DB6C1A787B681B6892B22A
:10D230001A857B68DB6C5A1C7B68DA647B68B3F800
:10D2400052309BB2013B9AB27B68A3F8522000BFD8
:10D250000C37BD465DF8047B704780B485B000AFE5
:10D2600078607B685B6F212B2FD17B68B3F85230DD
:10D270009BB2002B10D17B681B681A687B681B6807
:10D2800022F080021A607B681B681A687B681B6842
:10D2900042F040021A6018E07B68DB6CFB60FB68C0
:10D2A0001A887B681B68C2F3080292B21A857B68F1
:10D2B000DB6C9A1C7B68DA647B68B3F852309BB2F3
:10D2C000013B9AB27B68A3F8522000BF1437BD46D9
:10D2D0005DF8047B704780B582B000AF78607B68F2
:10D2E0001B681A687B681B6822F040021A607B6822
:10D2F00020225A677B6800225A667868FFF7B2FAE4
:10D3000000BF0837BD4680BD80B483B000AF7860F1
:10D3100000BF0C37BD465DF8047B704780B584B014
:10D3200000AF0346FB71FB79084A9B0013445B681E
:10D330005B68FA7905490A44127A10469847034611
:10D34000FB73FB7B18461037BD4680BD7C0F002069
:10D3500080B584B000AF0346FB710023FB73FB79FB
:10D360000D4AD35C002B11D1FB790B4A0121D1541A
:10D37000FB79094A9B0013445B681B68FA790649EC
:10D380000A44127A104698470346FB73FB7B184603
:10D390001037BD4680BD00BF7C0F002090B587B020
:10D3A00000AFB9607A603B600346FB73FB7B0A4ABF
:10D3B0009B0013445B689C68FB7B074A1344187A04
:10D3C0003B687A68B968A0470346FB75FB7D184641
:10D3D0001C37BD4690BD00BF7C0F002090B587B0C4
:10D3E00000AFB9607A603B600346FB73FB7B0A4A7F
:10D3F0009B0013445B68DC68FB7B074A1344187A84
:10D400003B687A68B968A0470346FB75FB7D184600
:10D410001C37BD4690BD00BF7C0F002080B584B096
:10D4200000AF03463A60FB710B46BB71FB79094ABA
:10D430009B0013445B681B69FA7906490A44107A19
:10D44000B9793A6898470346FB73FB7B1846103757
:10D45000BD4680BD7C0F002080B485B000AF7860F1
:10D460007B6801331B78FB81FB891B021AB27B6846
:10D470001B781BB213431BB2FB81FB891846143780
:10D48000BD465DF8047B704780B485B000AF78601E
:10D490007B6803331B78FB60FB681B027A680232EF
:10D4A00012781343FB60FB681B027A680132127822
:10D4B0001343FB60FB681B027A6812781343FB601E
:10D4C000FB6818461437BD465DF8047B70472DE9AC
:10D4D000900885B000AF78607B6807331B78DBB2BB
:10D4E0004FF00004C7E90234D7E902124FF0000BF5
:10D4F0004FF0000C4FEA022C4CEA116C4FEA012B62
:10D500007A6806321278D1B24FF000024BEA01037A
:10D510004CEA0204C7E90234D7E902124FF0000BCB
:10D520004FF0000C4FEA022C4CEA116C4FEA012B31
:10D530007A6805321278D1B24FF000024BEA01034B
:10D540004CEA0204C7E90234D7E902124FF0000B9B
:10D550004FF0000C4FEA022C4CEA116C4FEA012B01
:10D560007A6804321278D1B24FF000024BEA01031C
:10D570004CEA0204C7E90234D7E902124FF0000B6B
:10D580004FF0000C4FEA022C4CEA116C4FEA012BD1
:10D590007A6803321278D1B24FF000024BEA0103ED
:10D5A0004CEA0204C7E90234D7E902124FF0000B3B
:10D5B0004FF0000C4FEA022C4CEA116C4FEA012BA1
:10D5C0007A6802321278D1B24FF000024BEA0103BE
:10D5D0004CEA0204C7E90234D7E902124FF0000B0B
:10D5E0004FF0000C4FEA022C4CEA116C4FEA012B71
:10D5F0007A6801321278D1B24FF000024BEA01038F
:10D600004CEA0204C7E90234D7E902124FF0000BDA
:10D610004FF0000C4FEA022C4CEA116C4FEA012B40
:10D620007A681278D1B24FF000024BEA01034CEA5B
:10D630000204C7E90234D7E90234184621461437F8
:10D64000BD46BDE89008704780B483B000AF7860F5
:10D650000B467B807B685A1C7A607A88D2B21A703B
:10D660007B881B0A7B807B685A1C7A607A88D2B2DE
:10D670001A7000BF0C37BD465DF8047B704780B45C
:10D6800083B000AF786039607B685A1C7A603A6872
:10D69000D2B21A703B681B0A3B607B685A1C7A60E6
:10D6A0003A68D2B21A703B681B0A3B607B685A1C0E
:10D6B0007A603A68D2B21A703B681B0A3B607B689A
:10D6C0005A1C7A603A68D2B21A7000BF0C37BD4655
:10D6D0005DF8047B704780B487B000AFF860B96034
:10D6E0007A60FB687B61BB683B617B68002B0DD077
:10D6F0003A69531C3B617B69591C796112781A7035
:10D700007B68013B7B607B68002BF1D100BF1C373D
:10D71000BD465DF8047B704780B487B000AFF86009
:10D72000B9607A60FB687B617B695A1C7A61BA6870
:10D73000D2B21A707B68013B7B607B68002BF3D10F
:10D7400000BF1C37BD465DF8047B704780B489B0CC
:10D7500000AFF860B9607A60FB68FB61BB68BB61D1
:10D7600000237B61FB695A1CFA611B781946BB696F
:10D770005A1CBA611B78CB1A7B617B68013B7B60CA
:10D780007B68002B02D07B69002BEBD07B691846AD
:10D790002437BD465DF8047B704780B483B000AF8A
:10D7A0007860396002E07B6801337B607B681B78BE
:10D7B000002B05D07B681B781A463B689342F2D158
:10D7C0007B681B7818460C37BD465DF8047B7047B4
:10D7D00080B485B000AF786039600023FB601FE043
:10D7E000414AFB681B0113441A687B681B689A4214
:10D7F00013D13D4AFB681B01134404331A687B684C
:10D800009B689A4209D1384AFB681B0113440833CC
:10D810001A687B681B6B9A4206D0FB680133FB6079
:10D82000FB68012BDCD900E000BFFB68022B32D182
:10D830000023FB6002E0FB680133FB60FB68012B07
:10D8400006D8294AFB681B0113441B68002BF2D140
:10D85000FB68022B01D1002340E07B681A68224953
:10D86000FB681B010B441A607B689A681E49FB68C1
:10D870001B010B4404331A607B681A6B1A49FB685E
:10D880001B010B4408331A60174AFB681B01134441
:10D890000C3300221A803B68002B09D0124AFB6827
:10D8A0001B0113440C331B88002B01D0002315E00F
:10D8B0003B68002B08D10C4AFB681B0113440C3356
:10D8C0001B8801339AB201E04FF480720649FB686D
:10D8D0001B010B440C331A80FB68013318461437C4
:10D8E000BD465DF8047B7047FC0A002080B485B01B
:10D8F00000AF78607B68013B7B607B68012B25D89B
:10D90000174A7B681B0113440C331B88FB81FB897E
:10D91000B3F5807F01D10023FB81FB89002B02D06E
:10D92000FB89013BFB810E4A7B681B0113440C33CE
:10D93000FA891A80FB89002B05D1094A7B681B01F3
:10D94000134400221A6000237B7301E002237B73DF
:10D950007B7B18461437BD465DF8047B704700BFDB
:10D96000FC0A002080B485B000AF78600023FB6023
:10D9700010E00D4AFB681B0113441B687A689A4249
:10D9800005D1094AFB681B01134400221A60FB6899
:10D990000133FB60FB68012BEBD900BF1437BD4698
:10D9A0005DF8047B704700BFFC0A002080B586B09C
:10D9B00000AF78600023FB737B68DB78002B34D0EA
:10D9C0007B689B6B7B617B6858787B6803F13C01CB
:10D9D00001237A69FFF702FD0346002B02D00123E1
:10D9E000FB7322E07B680022DA707B68DB6A7A696D
:10D9F000D21A7B685B6A9A4217D27B689B783B613C
:10DA000010E07B685B6A7A6913447B617B685878B5
:10DA10007B6803F13C0101237A69FFF7DFFC3B6976
:10DA2000013B3B613B69012BEBD8FB7B1846183768
:10DA3000BD4680BD80B584B000AF786039600023FA
:10DA4000FB737B689B6B3A689A421BD07868FFF740
:10DA5000ADFF0346FB73FB7B002B13D17B6858782B
:10DA60007B6803F13C0101233A68FFF797FC03460A
:10DA7000002B04D04FF0FF333B600123FB737B6826
:10DA80003A689A63FB7B18461037BD4680BD80B468
:10DA900083B000AF786039603B68023B3B607B68D5
:10DAA0001B6A023B3A689A4201D3002308E07B6874
:10DAB0005B891A463B6803FB02F27B685B6B13448D
:10DAC00018460C37BD465DF8047B704790B589B0A9
:10DAD00000AF786039607B681B68BB613B68012BD5
:10DAE00004D9BB691B6A3A689A4202D30123FB61DD
:10DAF0003AE14FF0FF33FB61BB691B78013B032B1D
:10DB000000F2268101A252F823F000BF1DDB0008BD
:10DB1000CBDB000817DC000867DC00083B68FB6013
:10DB2000FB685B08FA681344FB60BB69DA6ABB698F
:10DB30009B891946FB68B3FBF1F313441946B86996
:10DB4000FFF778FF0346002B40F00581FB685A1C65
:10DB5000FA60BA699289B3FBF2F102FB01F29B1AF7
:10DB6000BA69134493F83C30BB60BB69DA6ABB699D
:10DB70009B891946FB68B3FBF1F313441946B86956
:10DB8000FFF758FF0346002B40F0E780BB699B89F5
:10DB90001A46FB68B3FBF2F102FB01F29B1ABA6969
:10DBA000134493F83C301B021A46BB681343BB6016
:10DBB0003B6803F00103002B02D0BB681B0902E0A5
:10DBC000BB68C3F30B03FB61CEE0BB69DA6ABB69D8
:10DBD0009B895B089BB219463B68B3FBF1F3134486
:10DBE0001946B869FFF726FF0346002B40F0B780BF
:10DBF000BB6903F13C013B685B00BA699289B3FBE6
:10DC0000F2F002FB00F29B1A0B441846FFF724FCCB
:10DC10000346FB61A8E0BB69DA6ABB699B899B0884
:10DC20009BB219463B68B3FBF1F313441946B8693C
:10DC3000FFF700FF0346002B40F09380BB6903F120
:10DC40003C013B689B00BA699289B3FBF2F002FB8E
:10DC500000F29B1A0B441846FFF716FC034623F00C
:10DC60007043FB6180E07B68D3E9043423436FD0C9
:10DC70007B689B683A68D31A7B617B68D3E904347C
:10DC800013F1FF3044F1FF31BB699B899BB24FF028
:10DC900000041A462346F9F781FD03460C461A464E
:10DCA000BB695B89B2FBF3F33B617B68DB79022BD9
:10DCB0000ED17A693B699A420AD87A693B699A42DD
:10DCC00002D03B68013301E06FF00043FB614BE0A1
:10DCD0007B68DB79032B08D17B689B697A699A4260
:10DCE00003D23B680133FB613EE07B68DB79022BAA
:10DCF0002ED07B68DB69002B03D06FF00043FB6103
:10DD000032E0BB69DA6ABB699B899B089BB2194602
:10DD10003B68B3FBF1F313441946B869FFF78AFE79
:10DD20000346002B1FD1BB6903F13C013B689B00FC
:10DD3000BA699289B3FBF2F002FB00F29B1A0B4422
:10DD40001846FFF7A1FB034623F00043FB610BE0FD
:10DD50000123FB6108E000BF06E000BF04E000BF54
:10DD600002E000BF00E000BFFB6918462437BD4653
:10DD700090BD00BF90B589B000AFF860B9607A601F
:10DD80000223FB77BB68012B40F21181FB681B6A01
:10DD9000BA689A4280F00B81FB681B78013B032B29
:10DDA00000F2058101A252F823F000BFBDDD00089A
:10DDB000C1DE000817DF000817DF0008BB68BB6181
:10DDC000BB695B08BA691344BB61FB68DA6AFB682C
:10DDD0009B891946BB69B3FBF1F313441946F868F4
:10DDE000FFF728FE0346FB77FB7F002B40F0D8802F
:10DDF000FB6803F13C01BB695A1CBA61FA6892895D
:10DE0000B3FBF2F002FB00F29B1A0B447B61BB6890
:10DE100003F00103002B0DD07B691B785BB203F08C
:10DE20000F035AB27B68DBB21B015BB213435BB2D8
:10DE3000DBB201E07B68DBB27A691370FB68012218
:10DE4000DA70FB68DA6AFB689B891946BB69B3FB29
:10DE5000F1F313441946F868FFF7ECFD0346FB772E
:10DE6000FB7F002B40F09E80FB6803F13C01FB68C8
:10DE70009B891A46BB69B3FBF2F002FB00F29B1AC6
:10DE80000B447B61BB6803F00103002B03D07B686C
:10DE90001B09DBB20EE07B691B785BB223F00F033A
:10DEA0005AB27B681B0A5BB203F00F035BB21343E9
:10DEB0005BB2DBB27A691370FB680122DA7076E03C
:10DEC000FB68DA6AFB689B895B089BB21946BB68F2
:10DED000B3FBF1F313441946F868FFF7ABFD0346B3
:10DEE000FB77FB7F002B5FD1FB6803F13C01BB6834
:10DEF0005B00FA689289B3FBF2F002FB00F29B1A16
:10DF00000B447A6892B211461846FFF79DFBFB68F6
:10DF10000122DA704BE0FB68DA6AFB689B899B0898
:10DF20009BB21946BB68B3FBF1F313441946F8687A
:10DF3000FFF780FD0346FB77FB7F002B36D1FB68A4
:10DF40001B78042B17D07B6823F07044FB6803F127
:10DF50003C01BB689B00FA689289B3FBF2F002FBBC
:10DF600000F29B1A0B441846FFF78EFA034603F0A3
:10DF7000704323437B60FB6803F13C01BB689B005B
:10DF8000FA689289B3FBF2F002FB00F29B1A0B4491
:10DF900079681846FFF773FBFB680122DA7006E028
:10DFA00000BF04E000BF02E000BF00E000BFFB7F55
:10DFB00018462437BD4690BD80B58AB000AFF860E2
:10DFC000B9607A60BB68023BBB60FB681B6A023BBE
:10DFD000BA689A4201D30023BB60BB68FB61FB694E
:10DFE000BB6100237B61FB685A6BFB69DB08F96846
:10DFF0008989B3FBF1F313441946F868FFF71AFD5A
:10E000000346002B02D04FF0FF3358E0FB69DB08DA
:10E01000FA689289B3FBF2F102FB01F29B1A3B62B0
:10E02000FB6903F00703012202FA03F387F82730A4
:10E03000FA683B6A13443C331A7897F82730134048
:10E04000FB7497F827305B0087F82730FB690133B2
:10E05000FB61FB681B6A023BFA699A4207D3002303
:10E06000FB61002387F82730FB689B893B62FB7CC0
:10E07000002B09D17B6901337B617A697B689A4205
:10E0800006D1BB6902331AE0FB69BB6100237B61E7
:10E09000FA69BB689A4201D1002310E097F8273053
:10E0A000002BC5D1012387F827303B6A01333B623F
:10E0B000FB689B891A463B6A9342B9D393E718469B
:10E0C0002837BD4680BD80B588B000AFF860B96024
:10E0D0007A603B60BB68023BBB60FB685A6BBB6805
:10E0E000DB08F9688989B3FBF1F313447B61BB68F2
:10E0F000DB08FA689289B3FBF2F102FB01F29B1A8A
:10E10000BB61BB6803F00703012202FA03F3FB774C
:10E110007B695A1C7A611946F868FFF78BFC034645
:10E12000002B01D001233FE0FA68BB6913443C3364
:10E130001A78FB7F1340DBB2002B14BF01230023AE
:10E14000DBB21A463B68934201D102232CE0FA6805
:10E15000BB6913443C331A78FB7F5340D9B2FA6849
:10E16000BB6913443C330A461A70FB680122DA701B
:10E170007B68013B7B607B68002B01D1002313E0AF
:10E18000FB7F5B00FB77FB7F002BCDD10123FB776F
:10E19000BB690133BB61FB689B891A46BB6993422B
:10E1A000C2D30023BB61B3E718462037BD4680BD0C
:10E1B00080B586B000AFF860B9607A6020E0FB6897
:10E1C0001868FB68DB69BA68D31A591CFB68DB69FD
:10E1D000012B05D9FB68DB69BA68D31A023300E06A
:10E1E0007B681A46FFF7C6FD0346FB75FB7D002BD7
:10E1F00001D0FB7D09E0FB68DB695A1EFB68DA6130
:10E20000FB68DB69002BDAD1002318461837BD46BE
:10E2100080BD80B588B000AF786039607B681B68CE
:10E220003B613B68002B0DD13B699B69BB61BB69BE
:10E23000002B04D03B691B6ABA699A421BD30123A5
:10E24000BB6118E039687868FFF740FCF860FB684C
:10E25000012B01D80123D9E0FB68B3F1FF3F01D1C5
:10E26000FB68D3E03B691B6AFA689A4201D2FB68FB
:10E27000CCE03B68BB613B691B78042B64D1012275
:10E28000B9693869FFF798FEF861FB69002B03D084
:10E29000FB69B3F1FF3F01D1FB69B7E00123012224
:10E2A000F9693869FFF70FFF0346FB75FB7D022B09
:10E2B00001D10123AAE0FB7D012B02D14FF0FF33F6
:10E2C000A4E03B68002B03D17B680222DA7111E0E5
:10E2D0007B68DB79022B0DD1BB690133FA699A4265
:10E2E00008D07B689B68BA69D21A7B689A617B68A0
:10E2F0000322DA717B68DB79022B64D03B6801333F
:10E30000FA699A420BD17B68DB69002B03D07B68EA
:10E31000DB69013300E002237A68D36153E07B6854
:10E32000DB69002B02D17B680122DA61FA69396866
:10E330007868FFF73DFF0346FB75FB7D002B42D15C
:10E340007B680122DA613EE0BB69FB61FB69013356
:10E35000FB613B691B6AFA699A4207D30223FB619E
:10E36000FA69BB699A4201D900234FE0F9697868DC
:10E37000FFF7ACFBF860FB68002B0ED0FB68012BAD
:10E3800003D0FB68B3F1FF3F01D1FB683EE0FA69BF
:10E39000BB699A42DAD1002338E000BF4FF0FF3268
:10E3A000F9693869FFF7E6FC0346FB75FB7D002B36
:10E3B00009D13B68002B06D0FA6939683869FFF744
:10E3C000D9FC0346FB75FB7D002B16D13B69FA692E
:10E3D0009A613B69DA693B691B6A023B9A4204D83D
:10E3E0003B69DB695A1E3B69DA613B691B7943F083
:10E3F0000103DAB23B691A7107E0FB7D012B02D100
:10E400004FF0FF3300E00123FB61FB691846203722
:10E41000BD4680BD80B586B000AF786039607B684E
:10E420001B683B613B691B78042B02D14FF0805283
:10E4300001E04FF400123B689A4204D93B6803F0B4
:10E440001F03002B01D0022374E07B683A681A6333
:10E450007B689B687B617B69002B09D13B691B78DA
:10E46000022B05D93B691B6B7B617B680022DA714B
:10E470007B69002B0CD13B685B093A691289934296
:10E4800001D3022356E03B691A6B7B689A632DE047
:10E490003B695B891A463B699B8903FB02F3FB607E
:10E4A00019E07B6879691846FFF710FB78617B6992
:10E4B000B3F1FF3F01D101233CE07B69012B04D97B
:10E4C0003B691B6A7A699A4201D3022332E03A68B7
:10E4D000FB68D31A3B603A68FB689A42E1D27969DB
:10E4E0003869FFF7D4FA02467B689A637B687A69D9
:10E4F0005A637B689B6B002B01D102231AE07B6877
:10E500009A6B3B699B8919463B68B3FBF1F31A444C
:10E510007B689A633B6903F13C013B699B891A461E
:10E520003B68B3FBF2F002FB00F29B1ACA187B684F
:10E53000DA63002318461837BD4680BD80B586B023
:10E5400000AF786039607B681B68FB607B681B6B81
:10E550002033BB607B689B6B002B0BD0FB681B7868
:10E56000042B02D14FF0805201E04FF40012BB683F
:10E570009A4201D80423C3E0FB689B891A46BB6812
:10E58000B3FBF2F102FB01F29B1A002B40F0A580D5
:10E590007B689B6B5A1C7B689A637B685B6B002B68
:10E5A0000BD1BB685B09FA6812899342C0F0958071
:10E5B0007B6800229A630423A2E0FB689B891A46C9
:10E5C000BB68B3FBF2F3FA685289013A1340002B9F
:10E5D00040F083807A687B685B6B19461046FFF7D2
:10E5E00075FA78617B69012B01D8022388E07B6989
:10E5F000B3F1FF3F01D1012382E0FB681B6A7A6916
:10E600009A4260D33B68002B04D17B6800229A6356
:10E61000042375E07A687B685B6B19461046FFF748
:10E62000F8FD78617B69002B01D1072368E07B69E5
:10E63000012B01D1022363E07B69B3F1FF3F01D1DC
:10E6400001235DE07B68DB7943F00403DAB27B6889
:10E65000DA71F868FFF7AAF90346002B01D001230D
:10E660004EE0FB6803F13C00FB689B891A460021E1
:10E67000FFF752F800233B617969F868FFF707FA62
:10E680000246FB689A6312E0FB680122DA70F868C0
:10E69000FFF78CF90346002B01D0012330E03B69E2
:10E6A00001333B61FB689B6B5A1CFB689A63FB68F8
:10E6B0005B891A463B699342E6D3FB689A6B3B69D8
:10E6C000D21AFB689A637B687A695A637969F86839
:10E6D000FFF7DDF902467B689A637B68BA681A63C4
:10E6E000FB6803F13C01FB689B891A46BB68B3FBDE
:10E6F000F2F002FB00F29B1ACA187B68DA6300236F
:10E7000018461837BD4680BD80B584B000AF78602C
:10E7100039603B681A331846FEF79EFE0346FB60DD
:10E720007B681B78032B09D13B6814331846FEF72E
:10E7300093FE03461B04FA681343FB60FB6818460C
:10E740001037BD4680BD000090B587B000AF78603F
:10E7500039603B681A331846FEF77EFE0346002BED
:10E7600001D0002359E03B681B7803F03F035A1E99
:10E7700013465B0013449B0013447B610123FB8120
:10E7800000233B6133E0274A3B6913441B781A4658
:10E790003B6813441846FEF75FFE0346BB81FB89C6
:10E7A000002B1AD07B69FE2B12D8BB89184601F0CA
:10E7B00009FF03461C467B695A1C7A615B007A6834
:10E7C00013441B88184601F0FDFE03469C4201D00D
:10E7D000002322E0BB89FB8106E0BB894FF6FF7274
:10E7E000934201D0002318E03B6901333B613B6950
:10E7F0000C2BC8D93B681B7803F04003002B0BD0CF
:10E80000FB89002B08D07B695B007A6813441B8866
:10E81000002B01D0002300E0012318461C37BD4621
:10E8200090BD00BF0007060880B586B000AF7860D5
:10E8300039603B681A331846FEF70EFE0346002B7C
:10E8400001D000234DE03B681B7823F040035A1EA3
:10E8500013465B0013449B0013447B610123FB813F
:10E8600000233B6128E0214A3B6913441B781A4688
:10E870003B6813441846FEF7EFFD0346BB81FB8956
:10E88000002B0FD07B69FE2B01D9002329E0BB8927
:10E89000FB817B695A1C7A615B007A681344FA89B0
:10E8A0001A8006E0BB894FF6FF72934201D0002325
:10E8B00017E03B6901333B613B690C2BD3D93B68C3
:10E8C0001B7803F04003002B0AD07B69FE2B01D993
:10E8D000002306E07B695B007A68134400221A80FB
:10E8E000012318461837BD4680BD00BF0007060843
:10E8F00080B485B000AF78600023FB730B23BB604E
:10E90000FB7BDAB25208DB011343DAB27B68591C95
:10E9100079601B781344FB73BB68013BBB60BB6829
:10E92000002BEDD1FB7B18461437BD465DF8047B08
:10E93000704780B487B000AF78607B6801331B7884
:10E9400001335B01FB6000237B8200237B6118E0C5
:10E950007B69022B03D17B6901337B610EE07B8AEB
:10E96000DB039AB27B8A5B089BB213449AB2796844
:10E970007B690B441B789BB213447B827B69013318
:10E980007B617A69FB689A42E2D37B8A18461C371E
:10E99000BD465DF8047B704780B584B000AF7860F9
:10E9A0000023FB811FE0BB89184601F00BFE0346E4
:10E9B000BB81FB89DB039AB2FB895B089BB21344E2
:10E9C0009AB2BB89DBB29BB21344FB81FB89DB03A8
:10E9D0009AB2FB895B089BB213449AB2BB891B0AAB
:10E9E0009BB21344FB817B689A1C7A601B88BB81B5
:10E9F000BB89002BD7D1FB8918461037BD4680BD97
:10EA000090B587B000AF7860396000237B61402308
:10EA10003B610023FB602CE03B6903F01F03002BEC
:10EA200002D13B6902333B617A683B691344184663
:10EA3000FEF712FD03460021184601F087FD03464C
:10EA40007B817B89002B02D07B69FE2B02D90023BE
:10EA50007B6115E07B695A1C7A617A89D1B23A6888
:10EA600013440A469A763B6902333B61FB680133E3
:10EA7000FB607B6823331B781A46FB689342CBD339
:10EA80007B69002B06D17B695A1C7A613A68134472
:10EA90003F229A763A687B6913441A3300221A702F
:10EAA0003B6800225A737B681A793B681A733B688B
:10EAB0001B7B03F01003002B07D17B68383318460B
:10EAC000FEF705FD03460C4603E04FF000034FF050
:10EAD00000043A68C2E900347B680C331846FEF73C
:10EAE000BBFC03461A463B685A817B680E331846C6
:10EAF000FEF7B2FC03461A463B681A8100BF1C377A
:10EB0000BD4690BD90B587B000AF78607B681B684C
:10EB10005B693B617B681A687B689B6B1946104692
:10EB2000FEF788FF0346FB73FB7B002B01D0FB7BCA
:10EB30009FE07B68DB6B1B78852B01D0022398E07C
:10EB40007B68DB6B202219463869FEF7C4FD3B6900
:10EB500001331B7801335B01BB60BB685F2B03D9BA
:10EB6000BB68B3F5187F01D9022382E000217868E1
:10EB7000FFF7E4FC0346FB73FB7B002B01D0FB7B20
:10EB800077E07B681A687B689B6B19461046FEF736
:10EB900051FF0346FB73FB7B002B01D0FB7B68E03E
:10EBA0007B68DB6B1B78C02B01D0022361E03B69E3
:10EBB00003F120007B68DB6B20221946FEF78BFDFA
:10EBC0003B6923331B782C332C4AA2FB0323DB083D
:10EBD0005B01BA689A4201D202234AE040237B617A
:10EBE00000217868FFF7AAFC0346FB73FB7B002B30
:10EBF00001D0FB7B3DE07B681A687B689B6B194604
:10EC00001046FEF717FF0346FB73FB7B002B01D07A
:10EC1000FB7B2EE07B68DB6B1B78C12B01D00223D2
:10EC200027E07B69B3F5187F08D23A697B69D01871
:10EC30007B68DB6B20221946FEF74DFD7B69203394
:10EC40007B617A69BB689A42CAD37B69B3F5187F46
:10EC50000ED83869FFF76DFE03461C463B69023348
:10EC60001846FEF7F9FB03469C4201D0022300E060
:10EC7000002318461C37BD4690BD00BF8988888890
:10EC800080B586B000AF786039600423FB757B687F
:10EC90001B683B61FF237B75FF233B759FE07B680F
:10ECA0009B6B19463869FEF7C5FE0346FB75FB7D75
:10ECB000002B40F09A807B68DB6B1B78BB75BB7DBB
:10ECC000002B02D10423FB7596E03B691B78042BD3
:10ECD00018D1BB7D852B79D17B681A6B7B68DA6490
:10ECE0007868FFF70FFF0346FB75FB7D002B7ED195
:10ECF0003B695B6904331B7803F03F03DAB27B683E
:10ED00009A7174E07B68DB6B0B331B7803F03F0375
:10ED1000FB737B68FA7B9A71BB7DE52B0ED0BB7DC4
:10ED20002E2B0BD0FB7B23F02003082B0CBF0123E1
:10ED30000023DBB21A463B68934202D0FF237B7567
:10ED400044E0FB7B0F2B2FD1BB7D03F04003002B56
:10ED50000DD07B68DB6B5B7B3B75BB7D23F0400399
:10ED6000BB75BB7D7B757B681A6B7B68DA64BA7D8B
:10ED70007B7D9A4215D17B68DB6B0D331B783A7D26
:10ED80009A420ED13B691A697B68DB6B19461046C3
:10ED9000FFF74AFD0346002B03D07B7D013BDBB22E
:10EDA00000E0FF237B7511E07B7D002B09D17B68A0
:10EDB000DB6B1846FFF79CFD03461A463B7D9342EA
:10EDC00017D07B684FF0FF32DA6412E000217868D8
:10EDD000FFF7B4FB0346FB75FB7D002B0BD17B6873
:10EDE0009B6B002B7FF45BAF06E000BF04E000BF2D
:10EDF00002E000BF00E000BFFB7D002B02D07B687B
:10EE000000229A63FB7D18461837BD4680BD90B539
:10EE100089B000AF78607B681B68FB600021786870
:10EE2000FFF7F8FA0346FB77FB7F002B01D0FB7F4F
:10EE300012E1FB681B78042B64D1FB681B69184640
:10EE4000FFF7AAFD03463B814FE0FB685B69243373
:10EE50001846FEF701FB03461A463B89934200D051
:10EE600043E0FB685B6993F82330FB7640237B61CA
:10EE700000233B6129E07B6903F01F03002B02D1D3
:10EE80007B6902337B61FB685A697B6913441846CE
:10EE9000FEF7E2FA0346184601F094FB03461C46CF
:10EEA000FB681A693B695B0013441B88184601F034
:10EEB00089FB03469C420CD1FB7E013BFB767B69C0
:10EEC00002337B613B6901333B61FB7E002BD2D176
:10EED00000E000BFFB7E002B07D1FB681A693B698D
:10EEE0005B0013441B88002B09D000217868FFF7D2
:10EEF000C7FE0346FB77FB7F002BA6D000E000BFD8
:10EF0000FB7FA9E0FF233B773B7F7B777B684FF05C
:10EF1000FF32DA647B689B6B1946F868FEF78AFD5E
:10EF20000346FB77FB7F002B40F090807B68DB6B18
:10EF30001B78BB77BB7F002B02D10423FB778AE0D1
:10EF40007B68DB6B0B331B7803F03F03FB727B6842
:10EF5000FA7A9A71BB7FE52B07D0FB7A03F008039E
:10EF6000002B09D0FB7A0F2B06D0FF237B777B6821
:10EF70004FF0FF32DA645EE0FB7A0F2B36D17B680C
:10EF800093F84B3003F04003002B54D1BB7F03F0C8
:10EF90004003002B0DD07B68DB6B5B7B3B77BB7F3B
:10EFA00023F04003BB77BB7F7B777B681A6B7B6862
:10EFB000DA64BA7F7B7F9A4215D17B68DB6B0D33B5
:10EFC0001B783A7F9A420ED1FB681A697B68DB6B2B
:10EFD00019461046FFF7B8FB0346002B03D07B7F92
:10EFE000013BDBB200E0FF237B7724E07B7F002B3B
:10EFF00009D17B68DB6B1846FFF77AFC03461A469B
:10F000003B7F934224D07B6893F84B3003F001039D
:10F01000002B0AD17B68D86B7B6840330B221946E2
:10F02000FEF794FB0346002B14D0FF237B777B680D
:10F030004FF0FF32DA6400217868FFF77FFA034669
:10F04000FB77FB7F002B3FF465AF04E000BF02E0DD
:10F0500000BF00E000BFFB7F18462437BD4690BDCF
:10F0600090B589B000AF786039607B681B683B6100
:10F070003B6800229A767B689B6B002B00F0D78060
:10F080003B691B78042B06D13B695B6939681846DC
:10F09000FFF7B6FCCCE07B68DB6CB3F1FF3F32D00E
:10F0A0000023BB61BB69FB611BE0FB8900211846A3
:10F0B00001F04CFA0346FB81FB89002B02D10023AF
:10F0C000FB611AE0FB69FE2B02D90023FB6114E00F
:10F0D000FB695A1CFA61FA89D1B23A6813440A46AC
:10F0E0009A763B691A69BB69591CB9615B00134484
:10F0F0001B88FB81FB89002BD7D13A68FB6913443D
:10F100001A3300221A700023BB61BB69FB613A68A5
:10F11000FB6913441A331B78BB814CE07B68DA6BC4
:10F12000FB69591CF96113441B78FB75FB7D202B8F
:10F1300000D140E0FB7D052B01D1E523FB75FB6988
:10F14000092B0FD1BB89002B05D13A68BB69134449
:10F150001A332E221A70BB695A1CBA613A681344DA
:10F160002E225A733A68BB6913440D33FA7D1A7024
:10F17000BB89002B1CD1FB7D402B13D9FB7D5A2B67
:10F1800010D87B68DB6B0C331B781A46FB69082BA5
:10F1900001D9102300E008231340002B02D0FB7D8F
:10F1A0002033FB753A68BB6913441A33FA7D1A7031
:10F1B000BB690133BB61FB690A2BAFD9BB89002B4B
:10F1C0000DD13A68BB6913441A3300221A707B6868
:10F1D000DB6B0C331B78002B01D10023BB613A6839
:10F1E000BB6913440D3300221A707B68DB6BDA7A3B
:10F1F0003B681A737B68DB6B1C331846FEF744F9D7
:10F2000003464FF000043A68C2E900347B68DB6BC8
:10F2100016331846FEF738F9B860BB689AB23B68F7
:10F220005A81BB681B0C9AB23B681A8100E000BF90
:10F230002437BD4690BD000080B58AB000AF78602D
:10F2400039603B681B683B617B681B681B69FB601E
:10F2500000237B617B69BB61BB695A1CBA613A6957
:10F2600013441B78BB84BB8C1F2B40D9BB8C2F2B2A
:10F2700006D0BB8C5C2B10D102E0BB690133BB61B3
:10F280003A69BB6913441B782F2BF6D03A69BB69E6
:10F2900013441B785C2BF0D02AE07B69FE2B01D94C
:10F2A000062377E1BB8CDBB2BB84BB8C0121184603
:10F2B00001F04CF90346BB84BB8C002B01D1062323
:10F2C00068E1BB8C7F2B09D8BB8C1946B348FEF78D
:10F2D00064FA0346002B01D006235BE17B695A1CCC
:10F2E0007A615B00FA681344BA8C1A80B4E700BFF5
:10F2F0003A69BB691A443B681A60BB8C1F2B01D862
:10F30000042300E0002387F8273011E07B6903F134
:10F310000043013B5B00FA6813441B88BB84BB8C31
:10F32000202B02D0BB8C2E2B06D17B69013B7B614D
:10F330007B69002BEAD100E000BF7B695B00FA68C3
:10F34000134400221A807B69002B01D1062321E19E
:10F350007B6840330B2220211846FEF7DDF900239D
:10F36000BB6102E0BB690133BB61BB695B00FA684A
:10F3700013441B88202BF5D0BB695B00FA6813444B
:10F380001B882E2BEED0BB69002B09D097F82730B5
:10F3900043F0030387F8273002E07B69013B7B6180
:10F3A0007B69002B09D07B6903F10043013B5B00C3
:10F3B000FA6813441B882E2BEFD1002387F82630E0
:10F3C00000233B620823FB61BB695A1CBA615B00E6
:10F3D000FA6813441B88BB84BB8C002B00F0908020
:10F3E000BB8C202B06D0BB8C2E2B0AD1BA697B6933
:10F3F0009A4206D097F8273043F0030387F8273066
:10F400007DE03A6AFB699A4203D2BA697B699A4203
:10F4100023D1FB690B2B06D197F8273043F0030368
:10F4200087F827306FE0BA697B699A4205D097F870
:10F43000273043F0030387F82730BA697B699A4283
:10F4400060D87B69BB6108233B620B23FB6197F8A3
:10F4500026309B0087F8263051E0BB8C7F2B14D9D7
:10F46000BB8C0021184601F071F80346BB84BB8CAD
:10F47000002B04D0BB8C803B494AD35CBB8497F8FB
:10F48000273043F0020387F82730BB8C002B07D0CE
:10F49000BB8C19464348FEF780F90346002B08D081
:10F4A0005F23BB8497F8273043F0030387F82730A6
:10F4B0001BE0BB8C402B09D9BB8C5A2B06D897F884
:10F4C000263043F0020387F826300EE0BB8C602B19
:10F4D0000BD9BB8C7A2B08D897F8263043F0010360
:10F4E00087F82630BB8C203BBB843B6A5A1C3A62AF
:10F4F000BA8CD1B27A6813440A4683F8402063E795
:10F5000000BF00E000BF7B6893F84030E52B03D1DB
:10F510007B68052283F84020FB69082B04D197F80B
:10F5200026309B0087F8263097F8263003F00C032E
:10F530000C2B05D097F8263003F00303032B05D1DD
:10F5400097F8273043F0020387F8273097F82730E1
:10F5500003F00203002B17D197F8263003F00303C2
:10F56000012B05D197F8273043F0100387F8273097
:10F5700097F8263003F00C03042B05D197F82730B9
:10F5800043F0080387F827307B6897F8272083F833
:10F590004B20002318462837BD4680BD10070608BB
:10F5A000800606081C07060890B587B000AF786093
:10F5B00039607B683B613B691B68FB6002E03B682C
:10F5C00001333B603B681B782F2BF8D03B681B78DE
:10F5D0005C2BF4D03B6900229A603B690022DA611F
:10F5E0003B681B781F2B0AD87B68802283F84B204E
:10F5F00000217868FEF70EFF0346FB757CE03B4672
:10F6000019467868FFF718FE0346FB75FB7D002B53
:10F610006DD17868FFF7FBFB0346FB757B6893F8B9
:10F620004B30FB72FB7D002B0AD0FB7D042B60D19D
:10F63000FB7A03F00403002B5BD10523FB7558E034
:10F64000FB7A03F00403002B55D13B699B7903F04F
:10F650001003002B02D10523FB754DE0FB681B78DE
:10F66000042B2FD13B699A683B691A623B69D3E945
:10F67000043423F0FF033A69D2791A433B695A6292
:10F680007B68DA6C3B699A62FB685B6934331846C5
:10F69000FDF7FAFE02463B699A60FB685B6921331D
:10F6A0001B7803F00203DAB23B69DA71FB685B692D
:10F6B00038331846FDF70BFF03460C463A69C2E99A
:10F6C00004349CE7FB6803F13C017B681B6BFA6820
:10F6D0009289B3FBF2F002FB00F29B1A0B4419462D
:10F6E000F868FFF711F802463B699A6087E700BFA8
:10F6F00002E000BF00E000BFFB7D18461C37BD469E
:10F7000090BD80B487B000AF78604FF0FF333B61AD
:10F710007B681B68002B31D07B681B687B6102E033
:10F720007B6901337B617B691B781F2B03D97B6964
:10F730001B783A2BF4D17B691B783A2B1CD17B6860
:10F740001B68FB60FB685A1CFA601B78303BBB608F
:10F75000BB68092B0ED8FA687B699A420AD1BB684C
:10F76000002B07D1BB683B617B6901337B617B6800
:10F770007A691A603B6902E000233B613B691846E5
:10F780001C37BD465DF8047B7047000080B582B031
:10F7900000AF786039607B680022DA707B684FF0D8
:10F7A000FF329A6339687868FEF744F90346002B04
:10F7B00001D0042344E07B683C3303F5FF73184613
:10F7C000FDF74AFE03461A464AF655239A4201D0EF
:10F7D000032335E07B6893F83C30E92B09D07B6844
:10F7E00093F83C30EB2B1ED17B6893F83E30902B86
:10F7F00019D17B683C3336331846FDF745FE034686
:10F8000023F07F43104A934201D1002318E07B6824
:10F810003C3352331846FDF737FE02460B4B9A42F3
:10F8200001D100230CE07B683C330B2208491846C9
:10F83000FDF78CFF0346002B01D1012300E00223DA
:10F8400018460837BD4680BD4641540046415433F2
:10F85000240706082DE9904898B000AFF860B96019
:10F860001346FB71BB6800221A60F868FFF749FF76
:10F8700078647B6C002B01DA0B236EE3AA4A7B6C65
:10F8800052F823303B643B6C002B01D10C2364E322
:10F89000BB683A6C1A60FB7923F00103FB713B6C87
:10F8A0001B78002B1AD03B6C5B781846FDF736FDB1
:10F8B000034687F83F3097F83F3003F00103002BF1
:10F8C0000CD1FB79002B07D097F83F3003F00403ED
:10F8D000002B01D00A2340E300233EE33B6C0022CF
:10F8E0001A707B6CDAB23B6C5A703B6C5B781846D2
:10F8F000FDF72EFD034687F83F3097F83F3003F0C1
:10F900000103002B01D0032327E3FB79002B07D051
:10F9100097F83F3003F00403002B01D00A231CE3C7
:10F920003B6C58783B6C0C331A460221FDF776FD90
:10F930000346002B01D001230FE33B6C9B89B3F5F9
:10F94000805F0DD83B6C9B89B3F5007F08D33B6C7F
:10F950009B891A463B6C9B89013B1340002B01D0CD
:10F960000123FAE20023BB65B96D386CFFF70EFF87
:10F97000034687F85F3097F85F30022B4BD10023A6
:10F98000BB641FE03B6C03F13C02BB6C1B0103F545
:10F99000DF731344BB63BB6B04331B78002B06D0AF
:10F9A000BB6B08331846FDF76FFD024600E00022EE
:10F9B000BB6C9B0007F160010B4443F8502CBB6CFF
:10F9C0000133BB64BB6C032BDCD90023BB64BB6C71
:10F9D000002B02D0BB6C013BBB64BB6C9B0007F1EE
:10F9E0006002134453F8503CBB65BB6D002B05D03F
:10F9F000B96D386CFFF7CAFE034600E0032387F8B1
:10FA00005F3097F85F30012B05D9BB6C0133BB64C5
:10FA1000BB6C032BE1D997F85F30042B01D1012394
:10FA20009BE297F85F30012B01D90D2395E297F8FF
:10FA30005F30012B40F001810B23BB6402E0BB6C03
:10FA40000133BB64BB6C3F2B06D83A6CBB6C1344D0
:10FA50003C331B78002BF2D0BB6C3F2B01D80D231D
:10FA60007BE23B6C3C3368331846FDF7F5FC0346FC
:10FA7000B3F5807F01D00D236FE23B6C93F8A83083
:10FA80001A46012393403A6C9289934201D00D2388
:10FA900063E23B6C3C3348331846FDF718FD0A46D9
:10FAA0000146BB6D9B464FF0000C1BEB01034CEB7A
:10FAB0000204C7E90834D7E90834012C08BF002B39
:10FAC00001D30D2349E23B6C3C3354331846FDF718
:10FAD000DBFC02463B6C5A623B6C93F8AA203B6C01
:10FAE0009A703B6C9B78012B01D00D2335E23B6C67
:10FAF00093F8A9301A46012393409AB23B6C5A817D
:10FB00003B6C5B89002B01D10D2326E23B6C3C331F
:10FB10005C331846FDF7B8FCF862FB6A034A93426F
:10FB200006D90D2319E200BFF40A0020FDFFFF7F74
:10FB3000FB6A9A1C3B6C1A623B6CBA6D9A623B6C16
:10FB40003C3358331846FDF79FFC0246BB6D1A4400
:10FB50003B6C5A633B6C3C3350331846FDF794FCC6
:10FB60000246BB6D1A443B6CDA623B6C5B6B194618
:10FB70004FF000023B6C5B891846FB6A03FB00F305
:10FB80009B464FF0000C1BEB01034CEB0204D7E942
:10FB90000812A24208BF994201D20D23DDE13B6C5D
:10FBA0003C3360331846FDF76FFC02463B6C1A632A
:10FBB0003B6C1B6B1946386CFDF769FF0346194611
:10FBC000386CFDF737FF0346002B01D00123C4E159
:10FBD0000023BB6415E03A6CBB6C13443C331B78C8
:10FBE000812B0BD13B6C03F13C02BB6C14331344EF
:10FBF0001846FDF749FC0346022B09D0BB6C2033A5
:10FC0000BB643B6C9B891A46BB6C9342E3D300E018
:10FC100000BF3B6C9B891A46BB6C934201D10D23FC
:10FC20009BE13B6C4FF0FF32DA613B6CDA693B6C75
:10FC30009A61042387F85F3077E13B6C3C330B33E8
:10FC40001846FDF709FC03461A463B6C9B899A420D
:10FC500001D00D2381E13B6C3C3316331846FDF790
:10FC6000FBFB03467B657B6D002B06D13B6C3C3375
:10FC700024331846FDF708FC78653B6C7A6D5A62B0
:10FC80003B6C93F84C203B6C9A703B6C9B78012B3F
:10FC900005D03B6C9B78022B01D00D235DE13B6CC2
:10FCA0009B781A467B6D02FB03F37B653B6C93F8F4
:10FCB00049309AB23B6C5A813B6C5B89002B08D06F
:10FCC0003B6C5B891A463B6C5B89013B1340002B04
:10FCD00001D00D2341E13B6C3C3311331846FDF755
:10FCE000BBFB03461A463B6C1A813B6C1B893A6C82
:10FCF0009289520992B2B3FBF2F102FB01F29B1A14
:10FD00009BB2002B01D00D2327E13B6C3C33133316
:10FD10001846FDF7A1FB03463B653B6D002B06D162
:10FD20003B6C3C3320331846FDF7AEFB38653B6C2B
:10FD30003C330E331846FDF78FFB0346FB86FB8EE4
:10FD4000002B01D10D2308E1FA8E7B6D13443A6C30
:10FD500011893A6C9289520992B2B1FBF2F292B2D5
:10FD600013443B633A6D3B6B9A4201D20D23F4E09E
:10FD70003A6D3B6BD31A3A6C5289B3FBF2F3FB62D8
:10FD8000FB6A002B01D10D23E7E0032387F85F30E6
:10FD9000FB6A4FF6F572934202D8022387F85F3070
:10FDA000FB6A40F6F572934202D8012387F85F3070
:10FDB000FB6A9A1C3B6C1A623B6CBA6D9A62FA8EB3
:10FDC000BB6D1A443B6CDA62BA6D3B6B1A443B6CF8
:10FDD0005A6397F85F30032B1ED13B6C3C332A33B8
:10FDE0001846FDF739FB0346002B01D00D23B4E084
:10FDF0003B6C1B89002B01D00D23AEE03B6C3C33E8
:10FE00002C331846FDF740FB02463B6C1A633B6CF3
:10FE10001B6A9B00FB641FE03B6C1B89002B01D11C
:10FE20000D239AE03B6CDA6A7B6D1A443B6C1A63D3
:10FE300097F85F30022B03D13B6C1B6A5B000AE032
:10FE40003B6C1A6A13465B0013445A083B6C1B6AEE
:10FE500003F001031344FB643B6C5A6A3B6C9B89BF
:10FE60001946FB6C0B44013B396C8989B3FBF1F3F8
:10FE70009A4201D20D2370E03B6C4FF0FF32DA6101
:10FE80003B6CDA693B6C9A613B6C80221A7197F883
:10FE90005F30032B49D13B6C3C3330331846FDF7C0
:10FEA000DBFA0346012B40D1BB6D01331946386C98
:10FEB000FDF7C0FD0346002B37D13B6C00221A71C1
:10FEC0003B6C3C3303F5FF731846FDF7C5FA034658
:10FED0001A464AF655239A4227D13B6C3C331846C2
:10FEE000FDF7D2FA02461F4B9A421ED13B6C3C33BF
:10FEF00003F5F2731846FDF7C7FA02461A4B9A4209
:10FF000013D13B6C3C3303F5F4731846FDF7BCFA90
:10FF100002463B6CDA613B6C3C3303F5F6731846E2
:10FF2000FDF7B2FA02463B6C9A613B6C97F85F2092
:10FF30001A700E4B1B8801339AB20C4B1A800B4B74
:10FF40001A883B6CDA803B6C094A1A613B6C094A9F
:10FF50005A61386CFDF706FD002318466037BD4630
:10FF6000BDE890885252614172724161F80A0020E6
:10FF70007C0D00201C0B002080B584B000AF7860A1
:10FF800039600923FB737B68002B1CD07B681B68DE
:10FF9000002B18D07B681B681B78002B13D07B6864
:10FFA0009A887B681B68DB889A420CD17B681B6847
:10FFB0005B781846FDF7B2F9034603F00103002B06
:10FFC00001D10023FB73FB7B002B02D17B681B68F4
:10FFD00000E000233A681360FB7B18461037BD46EB
:10FFE00080BD000080B588B000AFF860B9601346EE
:10FFF000FB71BB683B6107F110031846FFF781FBFB
:020000040801F1
:10000000F861FB69002B01DA0B232BE0174AFB692F
:1000100052F82330BB61BB69002B05D0B869FDF7EE
:10002000A1FCBB6900221A70FB68002B02D0FB68A0
:1000300000221A70FA680D49FB6941F82320FB6819
:10004000002B02D0FB79012B01D000230AE007F13D
:100050000C0107F1080300221846FFF7FBFB0346DB
:10006000FB75FB7D18462037BD4680BDF40A002095
:1000700090B587B000AF786039607B68002B01D104
:10008000092399E07B683B6107F10C013B460022A4
:100090001846FFF7DFFB0346FB75FB7D002B40F0A6
:1000A0008480FA683B691A603B6819467868FFF7F4
:1000B0007BFA0346FB75FB7D002B71D17B6893F8BF
:1000C0004B305BB2002B46DB3B699B7903F010039E
:1000D000002B3ED0FB681B78042B2FD13B699A681C
:1000E0003B691A623B69D3E9043423F0FF033A69A0
:1000F000D2791A433B695A627B68DA6C3B699A622F
:10010000FB685B6934331846FDF7BEF902463B696C
:100110009A60FB685B6938331846FDF7D8F90346E7
:100120000C463A69C2E90434FB685B6921331B78E9
:1001300003F00203DAB23B69DA710CE0FA687B681B
:10014000DB6B19461046FEF7DFFA02463B699A6000
:1001500001E00523FB75FB7D002B21D1FB68DA88CC
:100160003B699A8000217868FEF754F90346FB75D5
:10017000FB7D002B14D13B699B68002B0DD0002127
:100180007868FDF725FB02463B69DA623B69DB6A6A
:10019000002B05D11223FB7502E03B690022DA62D5
:1001A000FB7D042B01D10523FB75FB7D002B02D0C9
:1001B0003B6900221A60FB7D18461C37BD4690BD86
:1001C00080B584B000AF78607B6807F10802114603
:1001D0001846FFF7D1FE0346FB73FB7B002B10D1C3
:1001E0007B68DB6A002B06D07B68DB6A1846FDF76C
:1001F0007DFB0346FB73FB7B002B02D17B68002257
:100200001A60FB7B18461037BD4680BD80B584B0B0
:1002100000AF786039607B6807F108021146184624
:10022000FFF7AAFE0346FB73FB7B002B26D13B683E
:10023000002B06D100217868FEF7ECF80346FB732B
:100240001CE000217868FEF71BFD0346FB73FB7B77
:10025000042B01D10023FB73FB7B002B0ED13968EB
:100260007868FEF7FDFE00217868FEF767F903461F
:10027000FB73FB7B042B01D10023FB73FB7B184634
:100280001037BD4680BD80B59AB000AFF860B96048
:100290007A6007F1400107F10C0300221846FFF7CE
:1002A000D9FA034687F8673097F86730002B40F09B
:1002B000EB803A6C7B681A603B6CDA693B6C1B6ABA
:1002C000023B9A4204D83B6CDA69BB681A60DBE0F7
:1002D00000233B663B6C1B78012B28D10223FB6576
:1002E0003B6C3B6107F11003F96D1846FDF7EEFB1F
:1002F00078647B6CB3F1FF3F03D1012387F867304B
:10030000B5E07B6C012B03D1022387F86730AEE0A8
:100310007B6C002B02D13B6E01333B66FB6D0133DE
:10032000FB653B6C1B6AFA6D9A42DBD39FE03B6C2A
:100330001B78042B4BD13B6C1B6A023BFB653B6C6F
:100340005B6BBB6500237B657B6D002B0DD1386C2F
:10035000BB6D5A1CBA651946FDF76CFB034687F85E
:10036000673097F86730002B7ED10823BB643A6C66
:100370007B6D13443C331B7887F84F3013E097F8BC
:100380004F3003F00103002B02D13B6E01333B667B
:1003900097F84F305B0887F84F30BB6C013BBB646C
:1003A000FB6D013BFB65BB6C002B02D0FB6D002B92
:1003B000E5D17B6D01333A6C9289B3FBF2F102FB1C
:1003C00001F29B1A7B65FB6D002BBDD14FE03B6CAE
:1003D0001B6AFB653B6CDB6ABB6500237B65002306
:1003E0003B657B6D002B13D1386CBB6D5A1CBA6515
:1003F0001946FDF71FFB034687F8673097F867300B
:10040000002B33D13B6C3C333B653B6C9B897B655C
:100410003B6C1B78022B0FD1386DFDF71DF803469E
:10042000002B02D13B6E01333B663B6D02333B65D3
:100430007B6D023B7B6510E0386DFDF725F80346C8
:1004400023F07043002B02D13B6E01333B663B6DC2
:1004500004333B657B6D043B7B65FB6D013BFB65BA
:10046000FB6D002BBDD102E000BF00E000BFBB6808
:100470003A6E1A603B6C3A6EDA613B6C1A793B6CEF
:1004800042F00102D2B21A7197F867301846683705
:10049000BD4680BD80B487B000AFF860B960134638
:1004A000FB710123FB750023BB751F4B5B7ADBB22D
:1004B000002B31D11C4B5B7ADBB21A461A4B002160
:1004C0009954194B5B7ADBB2174A9B001344FA68C4
:1004D0005A60154B5B7ADBB21A46134B1344FA7918
:1004E0001A72114B5B7ADBB25A1CD1B20E4A5172AE
:1004F000BB75BB7D3033DAB2BB681A70BB680133A1
:100500003A221A70BB6802332F221A70BB68033379
:1005100000221A700023FB75FB7D18461C37BD4670
:100520005DF8047B704700BF7C0F002080B582B06F
:1005300000AF78603960002239687868FFF7AAFF59
:10054000034618460837BD4680BD000080B485B01C
:1005500000AF03463960FB80FB887F2B02D8FB8805
:10056000FB8125E03B68002B0BD0FB88FF2B05D8D7
:10057000FB88803B124A32F8133000E00023FB81F5
:1005800016E00023FB8109E0FB890D4A32F81330A5
:10059000FA889A4206D0FB890133FB81FB897F2BC5
:1005A000F2D900E000BFFB8980339BB2DBB2FB8154
:1005B000FB8918461437BD465DF8047B704700BFC1
:1005C0008407060880B487B000AF0346FB80FB8831
:1005D000B3F5805F01D23E4B00E03E4B7B617B690F
:1005E0009A1C7A611B887B827B8A002B68D0FA88F0
:1005F0007B8A9A4264D37B699A1C7A611B883B820E
:100600003B8A1B0AFB813B8ADBB23B82FA88798AF0
:100610003B8A0B449A4249DAFB89082B4FD801A246
:1006200052F823F0490601085B060108710601082B
:10063000790601088106010889060108910601086A
:1006400099060108A1060108FA887B8AD31A5B0083
:100650007A6913441B88FB8027E0FA887B8AD31AC7
:100660009BB203F001039BB2FA88D31AFB801CE013
:10067000FB88103BFB8018E0FB88203BFB8014E0EC
:10068000FB88303BFB8010E0FB881A3BFB800CE0D2
:10069000FB880833FB8008E0FB88503BFB8004E0CC
:1006A000FB88A3F5E353FB8000BF08E0FB89002B28
:1006B00095D13B8A5B007A6913447B618FE700BF69
:1006C000FB8818461C37BD465DF8047B704700BFA9
:1006D00084080608780A060838B50546064B1C68E3
:1006E0000822064920461CF0DFFC296820461CF041
:1006F0000DFE1CF0AFFC38BD30000020201A0608AB
:1007000038B50546064B1C680822064920461CF0F1
:10071000CBFC294620461CF0F9FD1CF09BFC38BDA3
:1007200030000020201A060830B583B005460A4B79
:100730001C680A22094920461CF0B6FC29462046BE
:100740001CF0E4FD02A90A2301F8013D01221CF07E
:10075000ABFC03B030BD00BF30000020141A060807
:1007600038B50546064B1C680822064920461CF091
:100770009BFC294620461CF0C9FD1CF06BFC38BDD3
:1007800030000020201A060838B50546064B1C68C4
:100790000822064920461CF087FC294620461CF00A
:1007A000B5FD1CF057FC38BD30000020201A0608AB
:1007B00038B50546074B1C680822074920461CF03F
:1007C00073FC6A68296820461CF06EFC1CF042FC31
:1007D00038BD00BF30000020201A060838B5054695
:1007E000064B1C680822064920461CF05DFC294681
:1007F00020461CF08BFD1CF02DFC38BD3000002085
:10080000201A060838B50546064B1C68082206491A
:1008100020461CF049FC294620461CF077FD1CF0C0
:1008200019FC38BD30000020201A060838B50546EE
:10083000064B1C680822064920461CF035FC294658
:1008400020461CF063FD1CF005FC38BD3000002084
:10085000201A060830B583B005460A4B1C680A22E8
:10086000094920461CF020FC294620461CF04EFD7C
:1008700002A90A2301F8013D01221CF015FC03B076
:1008800030BD00BF30000020141A06082DE9F041E9
:10089000B4B00446884616461F46102102A81CF034
:1008A000F1F93B9902A81CF031FD054622221749B7
:1008B0001CF0FAFB414628461CF042FD782534A97D
:1008C00001F8C95D01221CF0EFFB31461CF038FD38
:1008D000064605220E491CF0E7FB394630461CF05F
:1008E0002FFD34A901F8CA5D01221CF0DDFB3A9905
:1008F0001CF026FD03A920461BF02AFF02A81BF0CE
:1009000087FE204634B0BDE8F08100BF2C1A0608EF
:10091000501A060838B504460D46012805D01CB902
:100920004FF6FF739D421DD038BD4FF6FF739942BD
:10093000F5D10E481AF01AFE0D4A13680133136000
:10094000012B0BD00B4A136801331360012BE6D146
:10095000094B00200949C3E90001E0E7084B0022E8
:100960001A60EFE701481AF013FEDDE7880F002058
:100970003C37002038370020403700200000F87F47
:100980004837002080ED000B704780ED020B704768
:1009900080ED040B704780ED060B704780ED080B6F
:1009A000704700F5246090ED000B704700F524605F
:1009B00080ED000B704700F6482080ED000B70477B
:1009C00000F5256080ED000B704700F6582080EDA3
:1009D000000B704700F5266080ED000B704700F6B5
:1009E000682080ED000B704700F5276080ED000B5C
:1009F000704710B52DED0E8B0446B0EE41CAF0EEF7
:100A000061CAB0EE42BAF0EE62BAB0EE43AAF0EEBE
:100A100063AAB0EE449AF0EE649AB0EE458AF0EE26
:100A2000658AB0EE46DAF0EE66DAB0EE47EAF0EE4E
:100A300067EAFFF7A7FFB0EE4C0AF0EE6C0A20461B
:100A4000FFF7A3FFB0EE4B0AF0EE6B0A2046FFF76C
:100A50009FFFB0EE4A0AF0EE6A0A2046FFF79BFFBE
:100A6000B0EE490AF0EE690A2046FFF797FFB0EEB4
:100A7000480AF0EE680A2046FFF798FFB0EE4D0AEC
:100A8000F0EE6D0A2046FFF796FFB0EE4E0AF0EE4C
:100A90006E0A2046FFF794FF9DED100B2046FFF7EE
:100AA00094FF9DED120B2046FFF794FF9DED140B74
:100AB0002046FFF794FF9DED160B2046FFF794FFAD
:100AC000BDEC0E8B10BD10B50446C38933B98368E5
:100AD000102B03D9006908B143F0C4FE204610BDB5
:100AE000F0B583B004460068B0F5803F03D2636878
:100AF000B3F5803F13D36568F6F78EFA06460F46C6
:100B00002846F6F789FA02460B4630463946F6F78C
:100B1000FDFA1CA3D3E90023F6F788FD38B9A568D0
:100B2000102D0FD855B90023236103B0F0BD02A8E2
:100B3000114B40F8083DFFF7CFFDF0E704F120032B
:100B40002361F2E7A5B1B5F1005F06D2E80043F0FA
:100B500081FE054640B12561E7E702A8074B40F852
:100B6000043DFFF7B9FDF1E70548FFF7C9FDF2E7DE
:100B70000025F0E7AFF30080E41706081018060818
:100B8000481806080000E0FFFFFFEF4100000000EA
:100B90002DE9F04F85B004460D46164603688B429A
:100BA00011D0A389B4F80EA0BAF1030F0FD04FF003
:100BB000000B5F46ABB185B97EB9012B0BD0022B80
:100BC0000FD101250DE043689342EAD175E0DFF8CB
:100BD0003CB10127EEE70126F1E7012B37D0022BCC
:100BE0003BD0B5F5803F02D2B6F5803F13D32846FF
:100BF000F6F712FA804689463046F6F70DFA0246B5
:100C00000B4640464946F6F781FA3EA3D3E9002356
:100C1000F6F70CFD38BB47BBD4F8088006FB05F798
:100C2000B84528D0BAF1020F28D0B84531D9BAF169
:100C3000000F3FD1102F3DD8B8F1100F03D9206914
:100C400008B143F00FFE07BB0023236132E0012E01
:100C5000C5D0DFF8BCB00127C1E7012DC1D0DFF856
:100C6000B4B00127BDE7DFF8B0B004A840F80CBD70
:100C7000FFF732FDD0E7256066601EE004A81E4B3A
:100C800040F8083DFFF728FDCFE704F1200323617A
:100C900010E0BAF1000F06D1B8F1100F03D92069A6
:100CA00008B143F0DFFD102F0AD804F120032361BF
:100CB0000023E38125606660A76005B0BDE8F08F82
:100CC000AFB1B7F1005F07D2F80043F0C3FD804633
:100CD00048B1C4F81080EBE704A8084B40F8043D85
:100CE000FFF7FAFCF0E70648FFF70AFDF1E74FF0DF
:100CF0000008EEE7AFF30080381906081018060860
:100D0000481806080000E0FFFFFFEF4170180608D2
:100D1000A8180608F0180608E4170608013A082A79
:100D20002AD8DFE802F025211D1915110D0905004B
:100D3000D1E91023C0E91023D1E90E23C0E90E2325
:100D4000D1E90C23C0E90C23D1E90A23C0E90A2325
:100D5000D1E90823C0E90823D1E90623C0E9062325
:100D6000D1E90423C0E90423D1E90223C0E9022325
:100D7000D1E90023C0E90023704738B504460D4689
:100D80000B6803604B6843608B688360002383813A
:100D9000C3810361FFF7A4FE20692969AA68092AB3
:100DA00004D9D20043F0F5FF204638BDFFF7B6FF67
:100DB000FAE738B504460D468A68026001234360AD
:100DC000826083810023C3810361FFF789FE20696C
:100DD0002969AA68092A04D9D20043F0DAFF20461B
:100DE00038BDFFF79BFFFAE738B5054688420CD0BF
:100DF0000C464A680968FFF7CBFE28692169A2689A
:100E0000092A04D9D20043F0C4FF284638BDFFF7B1
:100E100085FFFAE72DE9F0438BB005468846C768A1
:100E200006690B6849689F421AD18E4218D12C6816
:100E3000A04514BF002401241CBB4FF00009CDF8CD
:100E4000089034B3CDF80C90C846012F23D06B68BE
:100E5000002B61D129680A6897424BD0002461E0D9
:100E6000019200913246394604A8FFF70FFD04A80D
:100E7000FFF79EFC049806AB9842D8D01AF0D8F839
:100E8000D5E7A0201AF0AEF881464146FFF775FF7E
:100E9000D5E7C146D6E729680F686868AA680B6974
:100EA00007FB020203EBC203D9F8102001218E4296
:100EB0000DD9D2E90089D2E902451032C3E900898F
:100EC000F8000344C3E9004503440231EFE7013968
:100ED000B14203D2D2E90001C3E90001029C34B15E
:100EE0002046FFF7F0FDA02120461AF079F80BB05C
:100EF000BDE8F0830869A96801FB023300EBC30079
:100F0000D9F810106A69092A03D9D20043F041FFC9
:100F1000E4E7FFF703FFE1E7002403E03A46FFF7C9
:100F2000FDFE0134A642D9D92A681069AB68234472
:100F300011686A6801FB032300EBC300D8F81010A6
:100F4000D8F8003003FB04F301EBC301092FE5D906
:100F5000FA0043F01EFFE4E72DE9F04FCBB0054661
:100F60000F460DF16F0323F00F0308930991C46836
:100F70000069059009680B6849689C420CD1884259
:100F80000AD13E462B683A689A4216D0012C00F0EE
:100F90004B8100273A469AE101920091059A214639
:100FA00044A8FFF773FC44A8FFF702FC449846AB43
:100FB0009842E6D01AF03CF8E3E71368089E3360E5
:100FC0003B685B6873603B689B68B3600023B381D8
:100FD000F38133613046FFF783FD3669D7F800802F
:100FE000D8F808A016F00F0F76D1D8F8109019F0A5
:100FF0000F0F39D14FF0010E4FF00009274602952F
:10100000F2451FD9D8F810104FEAC9028B18D3E95E
:1010100000454FEACE031944D1E90001A34605F18A
:10102000004C0A9001F100410B913244C2E900BC2E
:1010300033449DED0A7B83ED007B09F102090EF13B
:10104000020EDDE73C46029DCA457ED9D8F8103035
:101050004FEAC9094B44D3E90023B144104603F1D8
:101060000041C9E9000170E04FF0010E4FF00008A7
:1010700027460295F2451FD94FEAC80209EB020341
:10108000D3E900454FEACE0309EB0301D1E90001A2
:10109000A34605F1004C0C9001F100410D91324442
:1010A000C2E900BC33449DED0C7B83ED007B08F16D
:1010B00002080EF1020EDDE73C46029DC24544D90E
:1010C0004FEAC808C144D9E90023B044104603F1EF
:1010D0000041C8E9000138E0D8F810904FF0010E47
:1010E0004FF0000827460695F2451FD94FEAC8027F
:1010F00009EB0203D3E900454FEACE0309EB0301F4
:10110000D1E90001A34605F1004C029001F1004134
:1011100003913244C2E900BC33449DED027B83ED70
:10112000007B08F102080EF1020EDDE73C46069D49
:10113000C2450AD94FEAC808C144D9E90023464448
:10114000104603F10041C6E90001012C0BD06B6889
:10115000002B48D129680A68A24232D00026DDF867
:101160001480089F43E02B68D3F800C06968AA6820
:101170001B690CFB021203EBC203089A12690121DE
:10118000DDF814E08E450ED9D2E90067D2E90245B8
:101190001032C3E900674FEACC000344C3E90045BD
:1011A00003440231EEE701390598814203D2D2E9C6
:1011B0000001C3E900010898FFF785FC4BB0BDE8CA
:1011C000F08F0869A96801FB023300EBC300089B9C
:1011D00019696A69092A03D9D20043F0DAFDEAE7FE
:1011E000FFF79CFDE7E70026DDF81480089FB04577
:1011F000E1D92A681069AB68334411686A6801FB59
:10120000032300EBC30039693B6806FB03F301EBE2
:10121000C301092C04D9E20043F0BBFD0136E6E727
:101220002246FFF77BFDF9E71A686C68A968186920
:1012300002FB014300EBC3030124DDF814A0BE460A
:10124000DDF824C0A2451BD904F1FF38DCF80050BA
:101250002D6905EBC808D8E90089464609F1004721
:1012600005EBC405D5E90089404609F10041C3E911
:101270000067D5002B44C3E900012B440234E1E7A9
:10128000013C059A944299D2DEF80020126902EBE3
:10129000C404D4E90045204605F10041C3E900013A
:1012A0008CE77446029D0CF1FF3CE6450ED931688F
:1012B000096901EBC201D1E90001069001F1004189
:1012C00007919DED067B83ED007B01320137059B85
:1012D000BB427FF673AF2868D0F810C0A9683944C4
:1012E00000686B6800FB01300CEBC0034FF0010C91
:1012F000A6460295E645D4D93168096901EBC200DA
:10130000D0E90045A04605F10049501C01EBC001A1
:10131000D1E90001824601F1004B0232C3E90089A4
:10132000C3E902AB10330CF1020CE3E72DE9F04FF7
:101330002DED048BBDB082460D460DF1370424F02F
:101340000F040E46D0F80C900069039009680B68F2
:10135000496899450FD188420DD1A846DAF8003086
:101360002A689A4218D0B9F1010F00F074814FF049
:10137000000B5E46C6E101920091039A494636A8E9
:10138000FFF784FA36A8FFF713FA369838AB98427D
:10139000E3D019F04DFEE0E7136823602B685B682B
:1013A00063602B689B68A3600023A381E3812361B2
:1013B0002046FFF795FB95ED027B8DED047B2369BD
:1013C0000793D5F80080D8F80810069113F00F0F96
:1013D00040F08980D8F810B01BF00F0F42D10127E0
:1013E0004FF0000BCDF82090994609940C46BC4272
:1013F00020D9D8F810304FEACB069A19FD002B44BB
:1014000093ED009BD2E90023DDE90401F5F77EFEB0
:1014100041EC180B53EC192BDDE90401F5F776FECE
:101420004E4486ED008B4D44C5E900010BF1020BE3
:101430000237DCE7DDF82090099C069B5B4540F213
:101440009480D8F810304FEACB0B5B44079A5A448B
:101450009346D3E90023DDE90401F5F757FECBE914
:10146000000182E001274FF00008CDF82090DDF860
:101470001C900994069CBC4220D94FEAC8060BEB8D
:101480000603FD000BEB050292ED009BD3E9002360
:10149000DDE90401F5F73AFE41EC180B53EC192B8A
:1014A000DDE90401F5F732FE4E4486ED008B4D4434
:1014B000C5E9000108F102080237DCE7DDF82090F9
:1014C000099C069B434550D94FEAC808C344079B73
:1014D00043449846DBE90023DDE90401F5F716FEF5
:1014E000C8E9000141E0D8F810B001274FF000082A
:1014F000CDF82090DDF81C900994069CBC4220D9C0
:101500004FEAC8060BEB0603FD000BEB050292ED5C
:10151000009BD3E90023DDE90401F5F7F7FD41EC79
:10152000180B53EC192BDDE90401F5F7EFFD4E44E0
:1015300086ED008B4D44C5E9000108F10208023731
:10154000DCE7DDF82090099C069B43450DD94FEA66
:10155000C805AB44079B2B441D46DBE90023DDE9AE
:101560000401F5F7D3FDC5E90001B9F1010F0BD076
:10157000DAF80430002B4AD1DAF800100A684A453C
:1015800032D00025039E44E0DAF800301D68DAF816
:101590000410DAF808201B6905FB021203EBC203F2
:1015A00022690121DDF80CC08C450DD9D2E90089F2
:1015B000D2E902671032C3E90089E8000344C3E9B5
:1015C000006703440231EFE701390398814203D2F7
:1015D000D2E90001C3E900012046FFF774FA3DB0EB
:1015E000BDEC048BBDE8F08F0869DAF8081001FB48
:1015F000023300EBC3002169DAF81420092A03D969
:10160000D20043F0C6FBE7E7FFF788FBE4E70025DD
:10161000039EAE42E0D9DAF800201069DAF808300B
:101620002B441168DAF8042001FB032300EBC3000C
:101630002169236805FB03F301EBC301B9F1090F2D
:1016400005D94FEAC90243F0A4FB0135E1E74A4658
:10165000FFF764FBF9E7D3F80090DAF80410DAF842
:1016600008201C6909FB021304EBC3040127DDF801
:101670000CA0B046BA4521D9791ED8F800301E69B1
:1016800006EBC10198ED028B53EC182BD1E9000158
:10169000F5F73CFD41EC190B06EBC70153EC182B99
:1016A000D1E90001F5F732FD84ED009B4FEAC90353
:1016B0001C44C4E900011C440237DBE7013F039BE3
:1016C0009F428CD22B681B6903EBC707D5E9022325
:1016D000D7E90001F5F71AFDC4E900017FE7013FF2
:1016E000B9450DD9D8F80030196901EBC601D8E920
:1016F0000223D1E90001F5F709FDC5E90001013632
:101700000BF1010B039B5B457FF669AFDAF8002014
:101710001569DAF808305B441168DAF8042001FB37
:10172000032305EBC3050127B945D8D9D8F8003004
:101730001C6904EBC60198ED028B53EC182BD1E920
:101740000001F5F7E3FC41EC190B731C04EBC30437
:1017500053EC182BD4E90001F5F7D8FC023685EDDF
:10176000009BC5E9020110350237DDE738B50446B4
:1017700001F55065D1F8082D0260012343608260B5
:1017800083810023C3810361FFF7AAF920692969D6
:10179000AA68092A04D9D20043F0FBFA204638BDD2
:1017A000FFF7BCFAFAE738B5044601F50665D1F84B
:1017B00060380360D1F864384360D1F868388360DA
:1017C00000238381C3810361FFF78AF920692969B6
:1017D000AA68092A04D9D20043F0DBFA204638BDB2
:1017E000FFF79CFAFAE738B5044601F51065D1F821
:1017F00000390360D1F804394360D1F808398360B7
:1018000000238381C3810361FFF76AF92069296995
:10181000AA68092A04D9D20043F0BBFA204638BD91
:10182000FFF77CFAFAE738B500F1E0058D420DD0FC
:101830000C464A6809682846FFF7AAF92869216911
:10184000A268092A03D9D20043F0A3FA38BDFFF7F2
:1018500065FAFBE738B500F130058D420DD00C4636
:101860004A6809682846FFF793F928692169A26840
:10187000092A03D9D20043F08CFA38BDFFF74EFA9B
:10188000FBE738B500F55A658D420DD00C464A6825
:1018900009682846FFF77CF928692169A268092AA6
:1018A00003D9D20043F075FA38BDFFF737FAFBE7EA
:1018B00038B500F530758D420DD00C464A68096880
:1018C0002846FFF765F928692169A268092A03D922
:1018D000D20043F05EFA38BDFFF720FAFBE738B5D7
:1018E00000F5D0658D420DD00C464A68096828463F
:1018F000FFF74EF928692169A268092A03D9D200A5
:1019000043F047FA38BDFFF709FAFBE738B500F5B1
:10191000C0758D420DD00C464A6809682846FFF70D
:1019200037F928692169A268092A03D9D20043F04E
:1019300030FA38BDFFF7F2F9FBE738B500F5466538
:101940008D420DD00C464A6809682846FFF720F9F9
:1019500028692169A268092A03D9D20043F019FA3B
:1019600038BDFFF7DBF9FBE738B500F580658D4240
:101970000DD00C464A6809682846FFF709F928691E
:101980002169A268092A03D9D20043F002FA38BDBE
:10199000FFF7C4F9FBE738B500F5F8658D420DD0C7
:1019A0000C464A6809682846FFF7F2F82869216959
:1019B000A268092A03D9D20043F0EBF938BDFFF73A
:1019C000ADF9FBE738B500F508758D420DD00C4632
:1019D0004A6809682846FFF7DBF828692169A26888
:1019E000092A03D9D20043F0D4F938BDFFF796F99C
:1019F000FBE738B500F550658D420DD00C464A68BE
:101A000009682846FFF7C4F828692169A268092AED
:101A100003D9D20043F0BDF938BDFFF77FF9FBE7EA
:101A200038B500F528658D420DD00C464A68096826
:101A30002846FFF7ADF828692169A268092A03D969
:101A4000D20043F0A6F938BDFFF768F9FBE738B5D7
:101A500000F510658D420DD00C464A68096828468D
:101A6000FFF796F828692169A268092A03D9D200EC
:101A700043F08FF938BDFFF751F9FBE738B500F5B2
:101A80003C658D420DD00C464A6809682846FFF730
:101A90007FF828692169A268092A03D9D20043F096
:101AA00078F938BDFFF73AF9FBE738B500F532654C
:101AB0008D420DD00C464A6809682846FFF768F841
:101AC00028692169A268092A03D9D20043F061F983
:101AD00038BDFFF723F9FBE738B500F506658D4201
:101AE0000DD00C464A6809682846FFF751F8286966
:101AF0002169A268092A03D9D20043F04AF938BD06
:101B0000FFF70CF9FBE738B500F5A8658D420DD05D
:101B10000C464A6809682846FFF73AF8286921699F
:101B2000A268092A03D9D20043F033F938BDFFF780
:101B3000F5F8FBE738B500F51A658D420DD00C4677
:101B40004A6809682846FFF723F828692169A268CE
:101B5000092A03D9D20043F01CF938BDFFF7DEF89B
:101B6000FBE70139082918D8DFE801F01513110F38
:101B70000D0B0907050080ED100B80ED0E0B80EDBD
:101B80000C0B80ED0A0B80ED080B80ED060B80ED51
:101B9000040B80ED020B80ED000B704738B52DED86
:101BA000028B0446B0EE408AF0EE608A0D460929A9
:101BB0000AD90022002351EC100BF5F70FFD60B19C
:101BC0002DB9BDEC028B38BDFFF7CBFFF9E7EA007A
:101BD0000021204643F001F9F3E714F00F0F15D16F
:101BE000012300229D420AD904EBC20181ED008B42
:101BF00004EBC30181ED008B02320233F2E7954220
